{
    "contractName": "Dwitter",
    "abi": [
        {
            "inputs": [],
            "stateMutability": "nonpayable",
            "type": "constructor"
        },
        {
            "anonymous": false,
            "inputs": [
                {
                    "indexed": false,
                    "internalType": "uint256",
                    "name": "id",
                    "type": "uint256"
                },
                {
                    "indexed": false,
                    "internalType": "string",
                    "name": "hashtag",
                    "type": "string"
                }
            ],
            "name": "logCommentBanned",
            "type": "event"
        },
        {
            "anonymous": false,
            "inputs": [
                {
                    "indexed": false,
                    "internalType": "uint256",
                    "name": "id",
                    "type": "uint256"
                },
                {
                    "indexed": false,
                    "internalType": "string",
                    "name": "hashtag",
                    "type": "string"
                }
            ],
            "name": "logDweetBanned",
            "type": "event"
        },
        {
            "anonymous": false,
            "inputs": [
                {
                    "indexed": false,
                    "internalType": "address",
                    "name": "author",
                    "type": "address"
                },
                {
                    "indexed": false,
                    "internalType": "uint256",
                    "name": "userid",
                    "type": "uint256"
                },
                {
                    "indexed": false,
                    "internalType": "uint256",
                    "name": "dweetid",
                    "type": "uint256"
                },
                {
                    "indexed": false,
                    "internalType": "string",
                    "name": "hashtag",
                    "type": "string"
                }
            ],
            "name": "logDweetCreated",
            "type": "event"
        },
        {
            "anonymous": false,
            "inputs": [
                {
                    "indexed": false,
                    "internalType": "uint256",
                    "name": "id",
                    "type": "uint256"
                },
                {
                    "indexed": false,
                    "internalType": "string",
                    "name": "hashtag",
                    "type": "string"
                }
            ],
            "name": "logDweetDeleted",
            "type": "event"
        },
        {
            "anonymous": false,
            "inputs": [
                {
                    "indexed": false,
                    "internalType": "address",
                    "name": "user",
                    "type": "address"
                },
                {
                    "indexed": false,
                    "internalType": "uint256",
                    "name": "id",
                    "type": "uint256"
                }
            ],
            "name": "logRegisterUser",
            "type": "event"
        },
        {
            "anonymous": false,
            "inputs": [
                {
                    "indexed": false,
                    "internalType": "address",
                    "name": "user",
                    "type": "address"
                },
                {
                    "indexed": false,
                    "internalType": "uint256",
                    "name": "id",
                    "type": "uint256"
                }
            ],
            "name": "logUserBanned",
            "type": "event"
        },
        {
            "inputs": [
                {
                    "internalType": "string",
                    "name": "_username",
                    "type": "string"
                }
            ],
            "name": "changeUsername",
            "outputs": [],
            "stateMutability": "nonpayable",
            "type": "function"
        },
        {
            "inputs": [
                {
                    "internalType": "uint256",
                    "name": "_dweetid",
                    "type": "uint256"
                },
                {
                    "internalType": "string",
                    "name": "_comment",
                    "type": "string"
                }
            ],
            "name": "createComment",
            "outputs": [],
            "stateMutability": "nonpayable",
            "type": "function"
        },
        {
            "inputs": [
                {
                    "internalType": "string",
                    "name": "_hashtag",
                    "type": "string"
                },
                {
                    "internalType": "string",
                    "name": "_content",
                    "type": "string"
                },
                {
                    "internalType": "string",
                    "name": "_imghash",
                    "type": "string"
                }
            ],
            "name": "createDweet",
            "outputs": [],
            "stateMutability": "nonpayable",
            "type": "function"
        },
        {
            "inputs": [
                {
                    "internalType": "uint256",
                    "name": "_id",
                    "type": "uint256"
                }
            ],
            "name": "deleteComment",
            "outputs": [],
            "stateMutability": "nonpayable",
            "type": "function"
        },
        {
            "inputs": [
                {
                    "internalType": "uint256",
                    "name": "_id",
                    "type": "uint256"
                }
            ],
            "name": "deleteDweet",
            "outputs": [],
            "stateMutability": "nonpayable",
            "type": "function"
        },
        {
            "inputs": [
                {
                    "internalType": "uint256",
                    "name": "_commentid",
                    "type": "uint256"
                },
                {
                    "internalType": "string",
                    "name": "_comment",
                    "type": "string"
                }
            ],
            "name": "editComment",
            "outputs": [],
            "stateMutability": "nonpayable",
            "type": "function"
        },
        {
            "inputs": [
                {
                    "internalType": "uint256",
                    "name": "_id",
                    "type": "uint256"
                },
                {
                    "internalType": "string",
                    "name": "_hashtag",
                    "type": "string"
                },
                {
                    "internalType": "string",
                    "name": "_content",
                    "type": "string"
                },
                {
                    "internalType": "string",
                    "name": "_imghash",
                    "type": "string"
                }
            ],
            "name": "editDweet",
            "outputs": [],
            "stateMutability": "nonpayable",
            "type": "function"
        },
        {
            "inputs": [
                {
                    "internalType": "uint256",
                    "name": "_id",
                    "type": "uint256"
                }
            ],
            "name": "getComment",
            "outputs": [
                {
                    "internalType": "uint256",
                    "name": "commentId",
                    "type": "uint256"
                },
                {
                    "internalType": "address",
                    "name": "author",
                    "type": "address"
                },
                {
                    "internalType": "uint256",
                    "name": "dweetId",
                    "type": "uint256"
                },
                {
                    "internalType": "string",
                    "name": "content",
                    "type": "string"
                },
                {
                    "internalType": "uint256",
                    "name": "likeCount",
                    "type": "uint256"
                },
                {
                    "internalType": "enum Dwitter.commentStatus",
                    "name": "status",
                    "type": "uint8"
                }
            ],
            "stateMutability": "view",
            "type": "function"
        },
        {
            "inputs": [
                {
                    "internalType": "uint256",
                    "name": "_id",
                    "type": "uint256"
                }
            ],
            "name": "getDweet",
            "outputs": [
                {
                    "internalType": "uint256",
                    "name": "dweetId",
                    "type": "uint256"
                },
                {
                    "internalType": "address",
                    "name": "author",
                    "type": "address"
                },
                {
                    "internalType": "string",
                    "name": "hashtag",
                    "type": "string"
                },
                {
                    "internalType": "string",
                    "name": "content",
                    "type": "string"
                },
                {
                    "internalType": "string",
                    "name": "imgHash",
                    "type": "string"
                },
                {
                    "internalType": "uint256",
                    "name": "likeCount",
                    "type": "uint256"
                }
            ],
            "stateMutability": "view",
            "type": "function"
        },
        {
            "inputs": [],
            "name": "getUserComments",
            "outputs": [
                {
                    "internalType": "uint256[]",
                    "name": "commentList",
                    "type": "uint256[]"
                }
            ],
            "stateMutability": "view",
            "type": "function"
        },
        {
            "inputs": [],
            "name": "getUserDweets",
            "outputs": [
                {
                    "internalType": "uint256[]",
                    "name": "dweetList",
                    "type": "uint256[]"
                }
            ],
            "stateMutability": "view",
            "type": "function"
        },
        {
            "inputs": [
                {
                    "internalType": "uint256",
                    "name": "",
                    "type": "uint256"
                }
            ],
            "name": "maintainers",
            "outputs": [
                {
                    "internalType": "address",
                    "name": "",
                    "type": "address"
                }
            ],
            "stateMutability": "view",
            "type": "function"
        },
        {
            "inputs": [],
            "name": "owner",
            "outputs": [
                {
                    "internalType": "address payable",
                    "name": "",
                    "type": "address"
                }
            ],
            "stateMutability": "view",
            "type": "function"
        },
        {
            "inputs": [
                {
                    "internalType": "string",
                    "name": "_username",
                    "type": "string"
                },
                {
                    "internalType": "string",
                    "name": "_name",
                    "type": "string"
                },
                {
                    "internalType": "string",
                    "name": "_imgHash",
                    "type": "string"
                },
                {
                    "internalType": "string",
                    "name": "_bio",
                    "type": "string"
                }
            ],
            "name": "registerUser",
            "outputs": [],
            "stateMutability": "nonpayable",
            "type": "function"
        },
        {
            "inputs": [],
            "name": "stopped",
            "outputs": [
                {
                    "internalType": "bool",
                    "name": "",
                    "type": "bool"
                }
            ],
            "stateMutability": "view",
            "type": "function"
        },
        {
            "inputs": [],
            "name": "totalComments",
            "outputs": [
                {
                    "internalType": "uint256",
                    "name": "",
                    "type": "uint256"
                }
            ],
            "stateMutability": "view",
            "type": "function"
        },
        {
            "inputs": [],
            "name": "totalDweets",
            "outputs": [
                {
                    "internalType": "uint256",
                    "name": "",
                    "type": "uint256"
                }
            ],
            "stateMutability": "view",
            "type": "function"
        },
        {
            "inputs": [],
            "name": "totalUsers",
            "outputs": [
                {
                    "internalType": "uint256",
                    "name": "",
                    "type": "uint256"
                }
            ],
            "stateMutability": "view",
            "type": "function"
        },
        {
            "inputs": [
                {
                    "internalType": "string",
                    "name": "_username",
                    "type": "string"
                }
            ],
            "name": "usernameAvailable",
            "outputs": [
                {
                    "internalType": "bool",
                    "name": "status",
                    "type": "bool"
                }
            ],
            "stateMutability": "view",
            "type": "function"
        }
    ],
    "bytecode": "60806040526002805460ff1916905560006003819055600481905560055534801561002957600080fd5b50600080546001600160a01b0319163390811782558152601260205260409020805460ff19166001179055611f9c806100636000396000f3fe608060405234801561001057600080fd5b50600436106101215760003560e01c80637d0b1026116100ad578063bff1f9e111610071578063bff1f9e11461094d578063db80552d14610955578063f717793b14610b0a578063f98be58114610cb8578063fc3e562e14610cd557610121565b80637d0b1026146106425780638da5cb5b1461065f57806393e54a5614610667578063ad8160291461089a578063b9f069081461094557610121565b8063719b741d116100f4578063719b741d1461044d57806372d66e30146104a557806374ebaadc146104de57806375f12b211461059657806377c846af1461059e57610121565b80630800e300146101265780631d83417a146101fe57806340a179851461038657806361936b8114610433575b600080fd5b6101436004803603602081101561013c57600080fd5b5035610cdd565b60405180878152602001866001600160a01b03166001600160a01b031681526020018581526020018060200184815260200183600381111561018157fe5b60ff168152602001828103825285818151815260200191508051906020019080838360005b838110156101be5781810151838201526020016101a6565b50505050905090810190601f1680156101eb5780820380516001836020036101000a031916815260200191505b5097505050505050505060405180910390f35b61021b6004803603602081101561021457600080fd5b5035610e2e565b60405180878152602001866001600160a01b03166001600160a01b03168152602001806020018060200180602001858152602001848103845288818151815260200191508051906020019080838360005b8381101561028457818101518382015260200161026c565b50505050905090810190601f1680156102b15780820380516001836020036101000a031916815260200191505b50848103835287518152875160209182019189019080838360005b838110156102e45781810151838201526020016102cc565b50505050905090810190601f1680156103115780820380516001836020036101000a031916815260200191505b50848103825286518152865160209182019188019080838360005b8381101561034457818101518382015260200161032c565b50505050905090810190601f1680156103715780820380516001836020036101000a031916815260200191505b50995050505050505050505060405180910390f35b6104316004803603604081101561039c57600080fd5b81359190810190604081016020820135600160201b8111156103bd57600080fd5b8201836020820111156103cf57600080fd5b803590602001918460018302840111600160201b831117156103f057600080fd5b91908080601f016020809104026020016040519081016040528093929190818152602001838380828437600092019190915250929550611094945050505050565b005b61043b6111f9565b60408051918252519081900360200190f35b6104556111ff565b60408051602080825283518183015283519192839290830191858101910280838360005b83811015610491578181015183820152602001610479565b505050509050019250505060405180910390f35b6104c2600480360360208110156104bb57600080fd5b503561129a565b604080516001600160a01b039092168252519081900360200190f35b610582600480360360208110156104f457600080fd5b810190602081018135600160201b81111561050e57600080fd5b82018360208201111561052057600080fd5b803590602001918460018302840111600160201b8311171561054157600080fd5b91908080601f0160208091040260200160405190810160405280939291908181526020018383808284376000920191909152509295506112c1945050505050565b604080519115158252519081900360200190f35b61058261132d565b610431600480360360208110156105b457600080fd5b810190602081018135600160201b8111156105ce57600080fd5b8201836020820111156105e057600080fd5b803590602001918460018302840111600160201b8311171561060157600080fd5b91908080601f016020809104026020016040519081016040528093929190818152602001838380828437600092019190915250929550611336945050505050565b6104316004803603602081101561065857600080fd5b5035611401565b6104c26114f4565b6104316004803603608081101561067d57600080fd5b810190602081018135600160201b81111561069757600080fd5b8201836020820111156106a957600080fd5b803590602001918460018302840111600160201b831117156106ca57600080fd5b91908080601f0160208091040260200160405190810160405280939291908181526020018383808284376000920191909152509295949360208101935035915050600160201b81111561071c57600080fd5b82018360208201111561072e57600080fd5b803590602001918460018302840111600160201b8311171561074f57600080fd5b91908080601f0160208091040260200160405190810160405280939291908181526020018383808284376000920191909152509295949360208101935035915050600160201b8111156107a157600080fd5b8201836020820111156107b357600080fd5b803590602001918460018302840111600160201b831117156107d457600080fd5b91908080601f0160208091040260200160405190810160405280939291908181526020018383808284376000920191909152509295949360208101935035915050600160201b81111561082657600080fd5b82018360208201111561083857600080fd5b803590602001918460018302840111600160201b8311171561085957600080fd5b91908080601f016020809104026020016040519081016040528093929190818152602001838380828437600092019190915250929550611503945050505050565b610431600480360360408110156108b057600080fd5b81359190810190604081016020820135600160201b8111156108d157600080fd5b8201836020820111156108e357600080fd5b803590602001918460018302840111600160201b8311171561090457600080fd5b91908080601f0160208091040260200160405190810160405280939291908181526020018383808284376000920191909152509295506117da945050505050565b61043b61188b565b61043b611891565b6104316004803603608081101561096b57600080fd5b81359190810190604081016020820135600160201b81111561098c57600080fd5b82018360208201111561099e57600080fd5b803590602001918460018302840111600160201b831117156109bf57600080fd5b91908080601f0160208091040260200160405190810160405280939291908181526020018383808284376000920191909152509295949360208101935035915050600160201b811115610a1157600080fd5b820183602082011115610a2357600080fd5b803590602001918460018302840111600160201b83111715610a4457600080fd5b91908080601f0160208091040260200160405190810160405280939291908181526020018383808284376000920191909152509295949360208101935035915050600160201b811115610a9657600080fd5b820183602082011115610aa857600080fd5b803590602001918460018302840111600160201b83111715610ac957600080fd5b91908080601f016020809104026020016040519081016040528093929190818152602001838380828437600092019190915250929550611897945050505050565b61043160048036036060811015610b2057600080fd5b810190602081018135600160201b811115610b3a57600080fd5b820183602082011115610b4c57600080fd5b803590602001918460018302840111600160201b83111715610b6d57600080fd5b91908080601f0160208091040260200160405190810160405280939291908181526020018383808284376000920191909152509295949360208101935035915050600160201b811115610bbf57600080fd5b820183602082011115610bd157600080fd5b803590602001918460018302840111600160201b83111715610bf257600080fd5b91908080601f0160208091040260200160405190810160405280939291908181526020018383808284376000920191909152509295949360208101935035915050600160201b811115610c4457600080fd5b820183602082011115610c5657600080fd5b803590602001918460018302840111600160201b83111715610c7757600080fd5b91908080601f016020809104026020016040519081016040528093929190818152602001838380828437600092019190915250929550611996945050505050565b61043160048036036020811015610cce57600080fd5b5035611bb0565b610455611dd6565b60008080606081803360016001600160a01b0382166000908152600660208190526040909120015460ff166003811115610d1357fe5b14610d1d57600080fd5b8760016000828152600d602052604090206005015460ff166003811115610d4057fe5b14610d4a57600080fd5b6000898152600d6020908152604091829020805460018083015460028085015460048601546005870154600390970180548a516101009782161597909702600019011693909304601f810189900489028601890190995288855294976001600160a01b0390931696909591949360ff909216928591830182828015610e105780601f10610de557610100808354040283529160200191610e10565b820191906000526020600020905b815481529060010190602001808311610df357829003601f168201915b50505050509250975097509750975097509750505091939550919395565b60008060608080833360016001600160a01b0382166000908152600660208190526040909120015460ff166003811115610e6457fe5b14610e6e57600080fd5b87600160008281526009602052604090206006015460ff166003811115610e9157fe5b14610e9b57600080fd5b600089815260096020908152604091829020805460018083015460058401546002808601805489516101009682161596909602600019011691909104601f810188900488028501880190985287845293966001600160a01b03909216959394600381019460049091019391928691830182828015610f5a5780601f10610f2f57610100808354040283529160200191610f5a565b820191906000526020600020905b815481529060010190602001808311610f3d57829003601f168201915b5050865460408051602060026001851615610100026000190190941693909304601f810184900484028201840190925281815295995088945092508401905082828015610fe85780601f10610fbd57610100808354040283529160200191610fe8565b820191906000526020600020905b815481529060010190602001808311610fcb57829003601f168201915b5050855460408051602060026001851615610100026000190190941693909304601f8101849004840282018401909252818152959850879450925084019050828280156110765780601f1061104b57610100808354040283529160200191611076565b820191906000526020600020905b81548152906001019060200180831161105957829003601f168201915b50505050509150975097509750975097509750505091939550919395565b336000818152600660208190526040909120015460019060ff1660038111156110b957fe5b146110c357600080fd5b82600160008281526009602052604090206006015460ff1660038111156110e657fe5b146110f057600080fd5b6040805160c081018252600480548083523360208085019182528486018a8152606086018a8152600060808801819052600160a0890181905295860196879055958652600d83529690942085518155915192820180546001600160a01b0319166001600160a01b03909416939093179092559151600283015592518051929391926111819260038501920190611e6e565b506080820151600482015560a082015160058201805460ff191660018360038111156111a957fe5b021790555050336000908152600e60209081526040808320600480548254600181810185559387528587200155988452601183529083209754885491820189559783529120019490945550505050565b60045481565b60603360016001600160a01b0382166000908152600660208190526040909120015460ff16600381111561122f57fe5b1461123957600080fd5b336000908152600e60209081526040918290208054835181840281018401909452808452909183018282801561128e57602002820191906000526020600020905b81548152602001906001019080831161127a575b505050505091505b5090565b600181815481106112a757fe5b6000918252602090912001546001600160a01b0316905081565b60006008826040518082805190602001908083835b602083106112f55780518252601f1990920191602091820191016112d6565b51815160209384036101000a600019018019909216911617905292019485525060405193849003019092205460ff1615949350505050565b60025460ff1681565b336000818152600660208190526040909120015460019060ff16600381111561135b57fe5b1461136557600080fd5b816008816040518082805190602001908083835b602083106113985780518252601f199092019160209182019101611379565b51815160209384036101000a600019018019909216911617905292019485525060405193849003019092205460ff161591506113d5905057600080fd5b33600090815260066020908152604090912084516113fb92600290920191860190611e6e565b50505050565b8060016000828152600d602052604090206005015460ff16600381111561142457fe5b1461142e57600080fd5b336000818152600660208190526040909120015460019060ff16600381111561145357fe5b1461145d57600080fd5b6000838152600d602052604090206001015483906001600160a01b0316331461148557600080fd5b6000848152600d602052604081208181556001810180546001600160a01b031916905560028101829055906114bd6003830182611ee8565b506000600482018190556005918201805460ff19908116909155958152600d60205260409020018054909416600317909355505050565b6000546001600160a01b031681565b3360008181526006602081905260408220015460ff16600381111561152457fe5b1461152e57600080fd5b846008816040518082805190602001908083835b602083106115615780518252601f199092019160209182019101611542565b51815160209384036101000a600019018019909216911617905292019485525060405193849003019092205460ff1615915061159e905057600080fd5b60016008876040518082805190602001908083835b602083106115d25780518252601f1990920191602091820191016115b3565b51815160209384036101000a6000190180199092169116179052920194855250604080519485900382018520805460ff19169615159690961790955560e0840185526005805460019081019182905590855233918501919091529383018a90525050606081018790526080810186905260a081018590529060c08201523360009081526006602090815260409182902083518155838201516001820180546001600160a01b0319166001600160a01b039092169190911790559183015180516116a19260028501920190611e6e565b50606082015180516116bd916003840191602090910190611e6e565b50608082015180516116d9916004840191602090910190611e6e565b5060a082015180516116f5916005840191602090910190611e6e565b5060c082015160068201805460ff1916600183600381111561171357fe5b0217905550905050336007876040518082805190602001908083835b6020831061174e5780518252601f19909201916020918201910161172f565b51815160209384036101000a600019018019909216911617905292019485525060408051948590038201852080546001600160a01b0319166001600160a01b03979097169690961790955560055433855290840152505081517fabc58c36475157c4ac7669f9adfbb6f254d3a3578fb89676f6866ac3b9950eed929181900390910190a1505050505050565b336000818152600660208190526040909120015460019060ff1660038111156117ff57fe5b1461180957600080fd5b8260016000828152600d602052604090206005015460ff16600381111561182c57fe5b1461183657600080fd5b6000848152600d602052604090206001015484906001600160a01b0316331461185e57600080fd5b6000858152600d60209081526040909120855161188392600390920191870190611e6e565b505050505050565b60035481565b60055481565b83600160008281526009602052604090206006015460ff1660038111156118ba57fe5b146118c457600080fd5b336000818152600660208190526040909120015460019060ff1660038111156118e957fe5b146118f357600080fd5b60008681526009602052604090206001015486906001600160a01b0316331461191b57600080fd5b6000878152600960209081526040909120875161194092600290920191890190611e6e565b506000878152600960209081526040909120865161196692600390920191880190611e6e565b506000878152600960209081526040909120855161198c92600490920191870190611e6e565b5050505050505050565b336000818152600660208190526040909120015460019060ff1660038111156119bb57fe5b146119c557600080fd5b6040805160e081018252600380548083523360208085019182528486018a8152606086018a905260808601899052600060a08701819052600160c0880181905294850195869055948552600982529590932084518155905191810180546001600160a01b0319166001600160a01b039093169290921790915592518051929392611a559260028501920190611e6e565b5060608201518051611a71916003840191602090910190611e6e565b5060808201518051611a8d916004840191602090910190611e6e565b5060a0820151600582015560c082015160068201805460ff19166001836003811115611ab557fe5b021790555050336000818152600a60209081526040808320600380548254600181018455928652848620909201919091558484526006835281842054905482518681528085018390529283018190526080606084018181528c51918501919091528b517f21593a9df09ab143689b32be8383151220aea83c109d2687fdaf0352025b12b69850929591948c9493919260a085019291860191908190849084905b83811015611b6d578181015183820152602001611b55565b50505050905090810190601f168015611b9a5780820380516001836020036101000a031916815260200191505b509550505050505060405180910390a150505050565b80600160008281526009602052604090206006015460ff166003811115611bd357fe5b14611bdd57600080fd5b336000818152600660208190526040909120015460019060ff166003811115611c0257fe5b14611c0c57600080fd5b60008381526009602052604090206001015483906001600160a01b03163314611c3457600080fd5b6000848152600960209081526040918290208251878152918201838152600291820180546000196101006001831615020116929092049383018490527f83eaa369805b076a12075449c0a5991787d784ac3ac93f7f0ee7d626867ba1609388939190606083019084908015611cea5780601f10611cbf57610100808354040283529160200191611cea565b820191906000526020600020905b815481529060010190602001808311611ccd57829003601f168201915b5050935050505060405180910390a160008481526009602052604081208181556001810180546001600160a01b031916905590611d2a6002830182611ee8565b611d38600383016000611ee8565b611d46600483016000611ee8565b506000600582018190556006918201805460ff1990811690915586825260096020526040822090920180549092166003179091555b600085815260116020526040902054811015611dbe576000858152601160205260409020805482908110611dab57fe5b6000918252602082200155600101611d7b565b5060008481526011602052604081206113fb91611f2f565b60603360016001600160a01b0382166000908152600660208190526040909120015460ff166003811115611e0657fe5b14611e1057600080fd5b336000908152600a60209081526040918290208054835181840281018401909452808452909183018282801561128e576020028201919060005260206000209081548152602001906001019080831161127a57505050505091505090565b828054600181600116156101000203166002900490600052602060002090601f016020900481019282601f10611eaf57805160ff1916838001178555611edc565b82800160010185558215611edc579182015b82811115611edc578251825591602001919060010190611ec1565b50611296929150611f49565b50805460018160011615610100020316600290046000825580601f10611f0e5750611f2c565b601f016020900490600052602060002090810190611f2c9190611f49565b50565b5080546000825590600052602060002090810190611f2c91905b611f6391905b808211156112965760008155600101611f4f565b9056fea26469706673582212205d168a135349e908e3ad408d672a310ad24b15ec9883da1e163f2f871769c6a364736f6c63430006000033",
    "sourcePath": "c:/Users/MOHITBHAT/Desktop/MYPERSONAL/CONSENSYS_ACADEMY_COURSE/PROJECT/Decentralized_Social_Media/contracts/dwitter.sol",
    "compiler": {
        "name": "solc",
        "version": "0.6.0+commit.26b70077"
    },
    "functionHashes": {
        "changeUsername(string)": "77c846af",
        "createComment(uint256,string)": "40a17985",
        "createDweet(string,string,string)": "f717793b",
        "deleteComment(uint256)": "7d0b1026",
        "deleteDweet(uint256)": "f98be581",
        "editComment(uint256,string)": "ad816029",
        "editDweet(uint256,string,string,string)": "db80552d",
        "getComment(uint256)": "0800e300",
        "getDweet(uint256)": "1d83417a",
        "getUserComments()": "719b741d",
        "getUserDweets()": "fc3e562e",
        "maintainers(uint256)": "72d66e30",
        "owner()": "8da5cb5b",
        "registerUser(string,string,string,string)": "93e54a56",
        "stopped()": "75f12b21",
        "totalComments()": "61936b81",
        "totalDweets()": "b9f06908",
        "totalUsers()": "bff1f9e1",
        "usernameAvailable(string)": "74ebaadc"
    },
    "gasEstimates": {
        "creation": {
            "codeDepositCost": "1618400",
            "executionCost": "79261",
            "totalCost": "1697661"
        },
        "external": {
            "changeUsername(string)": "infinite",
            "createComment(uint256,string)": "infinite",
            "createDweet(string,string,string)": "infinite",
            "deleteComment(uint256)": "infinite",
            "deleteDweet(uint256)": "infinite",
            "editComment(uint256,string)": "infinite",
            "editDweet(uint256,string,string,string)": "infinite",
            "getComment(uint256)": "infinite",
            "getDweet(uint256)": "infinite",
            "getUserComments()": "infinite",
            "getUserDweets()": "infinite",
            "maintainers(uint256)": "2015",
            "owner()": "1082",
            "registerUser(string,string,string,string)": "infinite",
            "stopped()": "1099",
            "totalComments()": "1088",
            "totalDweets()": "1109",
            "totalUsers()": "1020",
            "usernameAvailable(string)": "infinite"
        },
        "internal": {
            "banComment(uint256)": "infinite",
            "banDweet(uint256)": "infinite",
            "banUser(address)": "infinite"
        }
    }
}