{
  "contractName": "Dwitter",
  "abi": [
    {
      "inputs": [],
      "stateMutability": "nonpayable",
      "type": "constructor"
    },
    {
      "anonymous": false,
      "inputs": [
        {
          "indexed": false,
          "internalType": "uint256",
          "name": "id",
          "type": "uint256"
        },
        {
          "indexed": false,
          "internalType": "uint256",
          "name": "maintainer",
          "type": "uint256"
        }
      ],
      "name": "logAdvertisementApproved",
      "type": "event"
    },
    {
      "anonymous": false,
      "inputs": [
        {
          "indexed": false,
          "internalType": "uint256",
          "name": "id",
          "type": "uint256"
        },
        {
          "indexed": false,
          "internalType": "uint256",
          "name": "maintainer",
          "type": "uint256"
        }
      ],
      "name": "logAdvertisementRejected",
      "type": "event"
    },
    {
      "anonymous": false,
      "inputs": [
        {
          "indexed": false,
          "internalType": "uint256",
          "name": "id",
          "type": "uint256"
        },
        {
          "indexed": false,
          "internalType": "string",
          "name": "hashtag",
          "type": "string"
        },
        {
          "indexed": false,
          "internalType": "uint256",
          "name": "maintainer",
          "type": "uint256"
        }
      ],
      "name": "logDweetBanned",
      "type": "event"
    },
    {
      "anonymous": false,
      "inputs": [
        {
          "indexed": false,
          "internalType": "address",
          "name": "author",
          "type": "address"
        },
        {
          "indexed": false,
          "internalType": "uint256",
          "name": "userid",
          "type": "uint256"
        },
        {
          "indexed": false,
          "internalType": "uint256",
          "name": "dweetid",
          "type": "uint256"
        },
        {
          "indexed": false,
          "internalType": "string",
          "name": "hashtag",
          "type": "string"
        }
      ],
      "name": "logDweetCreated",
      "type": "event"
    },
    {
      "anonymous": false,
      "inputs": [
        {
          "indexed": false,
          "internalType": "uint256",
          "name": "id",
          "type": "uint256"
        },
        {
          "indexed": false,
          "internalType": "string",
          "name": "hashtag",
          "type": "string"
        }
      ],
      "name": "logDweetDeleted",
      "type": "event"
    },
    {
      "anonymous": false,
      "inputs": [
        {
          "indexed": false,
          "internalType": "uint256",
          "name": "id",
          "type": "uint256"
        },
        {
          "indexed": false,
          "internalType": "string",
          "name": "hashtag",
          "type": "string"
        },
        {
          "indexed": false,
          "internalType": "uint256",
          "name": "maintainer",
          "type": "uint256"
        }
      ],
      "name": "logDweetFreed",
      "type": "event"
    },
    {
      "anonymous": false,
      "inputs": [
        {
          "indexed": false,
          "internalType": "uint256",
          "name": "id",
          "type": "uint256"
        },
        {
          "indexed": false,
          "internalType": "string",
          "name": "hashtag",
          "type": "string"
        }
      ],
      "name": "logDweetReported",
      "type": "event"
    },
    {
      "anonymous": false,
      "inputs": [
        {
          "indexed": false,
          "internalType": "address",
          "name": "user",
          "type": "address"
        },
        {
          "indexed": false,
          "internalType": "uint256",
          "name": "id",
          "type": "uint256"
        }
      ],
      "name": "logRegisterUser",
      "type": "event"
    },
    {
      "anonymous": false,
      "inputs": [
        {
          "indexed": false,
          "internalType": "address",
          "name": "user",
          "type": "address"
        },
        {
          "indexed": false,
          "internalType": "uint256",
          "name": "id",
          "type": "uint256"
        }
      ],
      "name": "logUserBanned",
      "type": "event"
    },
    {
      "inputs": [],
      "name": "advertisementCost",
      "outputs": [
        {
          "internalType": "uint256",
          "name": "",
          "type": "uint256"
        }
      ],
      "stateMutability": "view",
      "type": "function",
      "constant": true
    },
    {
      "inputs": [
        {
          "internalType": "address",
          "name": "",
          "type": "address"
        },
        {
          "internalType": "uint256",
          "name": "",
          "type": "uint256"
        }
      ],
      "name": "advertiserAdvertisementsList",
      "outputs": [
        {
          "internalType": "uint256",
          "name": "",
          "type": "uint256"
        }
      ],
      "stateMutability": "view",
      "type": "function",
      "constant": true
    },
    {
      "inputs": [
        {
          "internalType": "address",
          "name": "",
          "type": "address"
        }
      ],
      "name": "isMaintainer",
      "outputs": [
        {
          "internalType": "bool",
          "name": "",
          "type": "bool"
        }
      ],
      "stateMutability": "view",
      "type": "function",
      "constant": true
    },
    {
      "inputs": [],
      "name": "owner",
      "outputs": [
        {
          "internalType": "address payable",
          "name": "",
          "type": "address"
        }
      ],
      "stateMutability": "view",
      "type": "function",
      "constant": true
    },
    {
      "inputs": [],
      "name": "reportingRewardPrice",
      "outputs": [
        {
          "internalType": "uint256",
          "name": "",
          "type": "uint256"
        }
      ],
      "stateMutability": "view",
      "type": "function",
      "constant": true
    },
    {
      "inputs": [],
      "name": "reportingstakePrice",
      "outputs": [
        {
          "internalType": "uint256",
          "name": "",
          "type": "uint256"
        }
      ],
      "stateMutability": "view",
      "type": "function",
      "constant": true
    },
    {
      "inputs": [],
      "name": "stopped",
      "outputs": [
        {
          "internalType": "bool",
          "name": "",
          "type": "bool"
        }
      ],
      "stateMutability": "view",
      "type": "function",
      "constant": true
    },
    {
      "inputs": [],
      "name": "totalAdvertisements",
      "outputs": [
        {
          "internalType": "uint256",
          "name": "",
          "type": "uint256"
        }
      ],
      "stateMutability": "view",
      "type": "function",
      "constant": true
    },
    {
      "inputs": [],
      "name": "totalComments",
      "outputs": [
        {
          "internalType": "uint256",
          "name": "",
          "type": "uint256"
        }
      ],
      "stateMutability": "view",
      "type": "function",
      "constant": true
    },
    {
      "inputs": [],
      "name": "totalDweets",
      "outputs": [
        {
          "internalType": "uint256",
          "name": "",
          "type": "uint256"
        }
      ],
      "stateMutability": "view",
      "type": "function",
      "constant": true
    },
    {
      "inputs": [],
      "name": "totalMaintainers",
      "outputs": [
        {
          "internalType": "uint256",
          "name": "",
          "type": "uint256"
        }
      ],
      "stateMutability": "view",
      "type": "function",
      "constant": true
    },
    {
      "inputs": [],
      "name": "totalUsers",
      "outputs": [
        {
          "internalType": "uint256",
          "name": "",
          "type": "uint256"
        }
      ],
      "stateMutability": "view",
      "type": "function",
      "constant": true
    },
    {
      "inputs": [
        {
          "internalType": "address",
          "name": "",
          "type": "address"
        },
        {
          "internalType": "uint256",
          "name": "",
          "type": "uint256"
        }
      ],
      "name": "userReportList",
      "outputs": [
        {
          "internalType": "uint256",
          "name": "",
          "type": "uint256"
        }
      ],
      "stateMutability": "view",
      "type": "function",
      "constant": true
    },
    {
      "inputs": [
        {
          "internalType": "string",
          "name": "_username",
          "type": "string"
        }
      ],
      "name": "usernameAvailable",
      "outputs": [
        {
          "internalType": "bool",
          "name": "status",
          "type": "bool"
        }
      ],
      "stateMutability": "view",
      "type": "function",
      "constant": true
    },
    {
      "inputs": [
        {
          "internalType": "string",
          "name": "_username",
          "type": "string"
        },
        {
          "internalType": "string",
          "name": "_name",
          "type": "string"
        },
        {
          "internalType": "string",
          "name": "_imgHash",
          "type": "string"
        },
        {
          "internalType": "string",
          "name": "_coverHash",
          "type": "string"
        },
        {
          "internalType": "string",
          "name": "_bio",
          "type": "string"
        }
      ],
      "name": "registerUser",
      "outputs": [],
      "stateMutability": "nonpayable",
      "type": "function"
    },
    {
      "inputs": [],
      "name": "userStatus",
      "outputs": [
        {
          "internalType": "enum Dwitter.accountStatus",
          "name": "status",
          "type": "uint8"
        }
      ],
      "stateMutability": "view",
      "type": "function",
      "constant": true
    },
    {
      "inputs": [
        {
          "internalType": "string",
          "name": "_username",
          "type": "string"
        }
      ],
      "name": "changeUsername",
      "outputs": [],
      "stateMutability": "nonpayable",
      "type": "function"
    },
    {
      "inputs": [
        {
          "internalType": "address",
          "name": "_user",
          "type": "address"
        }
      ],
      "name": "getUser",
      "outputs": [
        {
          "internalType": "uint256",
          "name": "id",
          "type": "uint256"
        },
        {
          "internalType": "string",
          "name": "username",
          "type": "string"
        },
        {
          "internalType": "string",
          "name": "name",
          "type": "string"
        },
        {
          "internalType": "string",
          "name": "imghash",
          "type": "string"
        },
        {
          "internalType": "string",
          "name": "coverhash",
          "type": "string"
        },
        {
          "internalType": "string",
          "name": "bio",
          "type": "string"
        }
      ],
      "stateMutability": "view",
      "type": "function",
      "constant": true
    },
    {
      "inputs": [],
      "name": "getUser",
      "outputs": [
        {
          "internalType": "uint256",
          "name": "id",
          "type": "uint256"
        },
        {
          "internalType": "string",
          "name": "username",
          "type": "string"
        },
        {
          "internalType": "string",
          "name": "name",
          "type": "string"
        },
        {
          "internalType": "string",
          "name": "imghash",
          "type": "string"
        },
        {
          "internalType": "string",
          "name": "coverhash",
          "type": "string"
        },
        {
          "internalType": "string",
          "name": "bio",
          "type": "string"
        }
      ],
      "stateMutability": "view",
      "type": "function",
      "constant": true
    },
    {
      "inputs": [
        {
          "internalType": "string",
          "name": "_hashtag",
          "type": "string"
        },
        {
          "internalType": "string",
          "name": "_content",
          "type": "string"
        },
        {
          "internalType": "string",
          "name": "_imghash",
          "type": "string"
        }
      ],
      "name": "createDweet",
      "outputs": [],
      "stateMutability": "nonpayable",
      "type": "function"
    },
    {
      "inputs": [
        {
          "internalType": "uint256",
          "name": "_id",
          "type": "uint256"
        },
        {
          "internalType": "string",
          "name": "_hashtag",
          "type": "string"
        },
        {
          "internalType": "string",
          "name": "_content",
          "type": "string"
        },
        {
          "internalType": "string",
          "name": "_imghash",
          "type": "string"
        }
      ],
      "name": "editDweet",
      "outputs": [],
      "stateMutability": "nonpayable",
      "type": "function"
    },
    {
      "inputs": [
        {
          "internalType": "uint256",
          "name": "_id",
          "type": "uint256"
        }
      ],
      "name": "deleteDweet",
      "outputs": [],
      "stateMutability": "nonpayable",
      "type": "function"
    },
    {
      "inputs": [
        {
          "internalType": "uint256",
          "name": "_id",
          "type": "uint256"
        }
      ],
      "name": "getDweet",
      "outputs": [
        {
          "internalType": "address",
          "name": "author",
          "type": "address"
        },
        {
          "internalType": "string",
          "name": "hashtag",
          "type": "string"
        },
        {
          "internalType": "string",
          "name": "content",
          "type": "string"
        },
        {
          "internalType": "string",
          "name": "imgHash",
          "type": "string"
        },
        {
          "internalType": "uint256",
          "name": "timestamp",
          "type": "uint256"
        },
        {
          "internalType": "uint256",
          "name": "likeCount",
          "type": "uint256"
        }
      ],
      "stateMutability": "view",
      "type": "function",
      "constant": true
    },
    {
      "inputs": [
        {
          "internalType": "uint256",
          "name": "_id",
          "type": "uint256"
        }
      ],
      "name": "likeDweet",
      "outputs": [],
      "stateMutability": "nonpayable",
      "type": "function"
    },
    {
      "inputs": [
        {
          "internalType": "address",
          "name": "_user",
          "type": "address"
        }
      ],
      "name": "getUserDweets",
      "outputs": [
        {
          "internalType": "uint256[]",
          "name": "dweetList",
          "type": "uint256[]"
        }
      ],
      "stateMutability": "view",
      "type": "function",
      "constant": true
    },
    {
      "inputs": [],
      "name": "getUserDweets",
      "outputs": [
        {
          "internalType": "uint256[]",
          "name": "dweetList",
          "type": "uint256[]"
        }
      ],
      "stateMutability": "view",
      "type": "function",
      "constant": true
    },
    {
      "inputs": [
        {
          "internalType": "uint256",
          "name": "_dweetid",
          "type": "uint256"
        },
        {
          "internalType": "string",
          "name": "_comment",
          "type": "string"
        }
      ],
      "name": "createComment",
      "outputs": [],
      "stateMutability": "nonpayable",
      "type": "function"
    },
    {
      "inputs": [
        {
          "internalType": "uint256",
          "name": "_commentid",
          "type": "uint256"
        },
        {
          "internalType": "string",
          "name": "_comment",
          "type": "string"
        }
      ],
      "name": "editComment",
      "outputs": [],
      "stateMutability": "nonpayable",
      "type": "function"
    },
    {
      "inputs": [
        {
          "internalType": "uint256",
          "name": "_id",
          "type": "uint256"
        }
      ],
      "name": "deleteComment",
      "outputs": [],
      "stateMutability": "nonpayable",
      "type": "function"
    },
    {
      "inputs": [
        {
          "internalType": "uint256",
          "name": "_id",
          "type": "uint256"
        }
      ],
      "name": "getComment",
      "outputs": [
        {
          "internalType": "address",
          "name": "author",
          "type": "address"
        },
        {
          "internalType": "uint256",
          "name": "dweetId",
          "type": "uint256"
        },
        {
          "internalType": "string",
          "name": "content",
          "type": "string"
        },
        {
          "internalType": "uint256",
          "name": "likeCount",
          "type": "uint256"
        },
        {
          "internalType": "uint256",
          "name": "timestamp",
          "type": "uint256"
        },
        {
          "internalType": "enum Dwitter.cdStatus",
          "name": "status",
          "type": "uint8"
        }
      ],
      "stateMutability": "view",
      "type": "function",
      "constant": true
    },
    {
      "inputs": [
        {
          "internalType": "address",
          "name": "_user",
          "type": "address"
        }
      ],
      "name": "getUserComments",
      "outputs": [
        {
          "internalType": "uint256[]",
          "name": "commentList",
          "type": "uint256[]"
        }
      ],
      "stateMutability": "view",
      "type": "function",
      "constant": true
    },
    {
      "inputs": [],
      "name": "getUserComments",
      "outputs": [
        {
          "internalType": "uint256[]",
          "name": "commentList",
          "type": "uint256[]"
        }
      ],
      "stateMutability": "view",
      "type": "function",
      "constant": true
    },
    {
      "inputs": [
        {
          "internalType": "uint256",
          "name": "_id",
          "type": "uint256"
        }
      ],
      "name": "getDweetComments",
      "outputs": [
        {
          "internalType": "uint256[]",
          "name": "list",
          "type": "uint256[]"
        }
      ],
      "stateMutability": "view",
      "type": "function",
      "constant": true
    },
    {
      "inputs": [
        {
          "internalType": "address",
          "name": "_user",
          "type": "address"
        }
      ],
      "name": "addMaintainer",
      "outputs": [],
      "stateMutability": "nonpayable",
      "type": "function"
    },
    {
      "inputs": [
        {
          "internalType": "address",
          "name": "_user",
          "type": "address"
        }
      ],
      "name": "revokeMaintainer",
      "outputs": [],
      "stateMutability": "nonpayable",
      "type": "function"
    },
    {
      "inputs": [
        {
          "internalType": "uint256",
          "name": "_dweetId",
          "type": "uint256"
        }
      ],
      "name": "reportDweet",
      "outputs": [],
      "stateMutability": "payable",
      "type": "function",
      "payable": true
    },
    {
      "inputs": [
        {
          "internalType": "uint256",
          "name": "_dweetId",
          "type": "uint256"
        },
        {
          "internalType": "bool",
          "name": "_action",
          "type": "bool"
        }
      ],
      "name": "takeAction",
      "outputs": [],
      "stateMutability": "nonpayable",
      "type": "function"
    },
    {
      "inputs": [
        {
          "internalType": "uint256",
          "name": "_id",
          "type": "uint256"
        }
      ],
      "name": "claimReportingReward",
      "outputs": [],
      "stateMutability": "nonpayable",
      "type": "function"
    },
    {
      "inputs": [],
      "name": "claimSuitReward",
      "outputs": [],
      "stateMutability": "nonpayable",
      "type": "function"
    },
    {
      "inputs": [],
      "name": "myReportings",
      "outputs": [
        {
          "internalType": "uint256[]",
          "name": "list",
          "type": "uint256[]"
        }
      ],
      "stateMutability": "view",
      "type": "function",
      "constant": true
    },
    {
      "inputs": [
        {
          "internalType": "uint256",
          "name": "_id",
          "type": "uint256"
        }
      ],
      "name": "reportingClaimStatus",
      "outputs": [
        {
          "internalType": "enum Dwitter.userdweetReportingStatus",
          "name": "status",
          "type": "uint8"
        }
      ],
      "stateMutability": "view",
      "type": "function",
      "constant": true
    },
    {
      "inputs": [],
      "name": "fakeReportingSuitReward",
      "outputs": [
        {
          "internalType": "uint256",
          "name": "balance",
          "type": "uint256"
        }
      ],
      "stateMutability": "view",
      "type": "function",
      "constant": true
    },
    {
      "inputs": [],
      "name": "getReportedDweets",
      "outputs": [
        {
          "internalType": "uint256[]",
          "name": "list",
          "type": "uint256[]"
        }
      ],
      "stateMutability": "view",
      "type": "function",
      "constant": true
    },
    {
      "inputs": [
        {
          "internalType": "uint256",
          "name": "_dweetId",
          "type": "uint256"
        }
      ],
      "name": "getReportedDweetStatus",
      "outputs": [
        {
          "internalType": "enum Dwitter.reportAction",
          "name": "status",
          "type": "uint8"
        }
      ],
      "stateMutability": "view",
      "type": "function",
      "constant": true
    },
    {
      "inputs": [
        {
          "internalType": "string",
          "name": "_imgHash",
          "type": "string"
        },
        {
          "internalType": "string",
          "name": "_link",
          "type": "string"
        }
      ],
      "name": "submitAdvertisement",
      "outputs": [],
      "stateMutability": "payable",
      "type": "function",
      "payable": true
    },
    {
      "inputs": [
        {
          "internalType": "uint256",
          "name": "_id",
          "type": "uint256"
        },
        {
          "internalType": "bool",
          "name": "_decision",
          "type": "bool"
        }
      ],
      "name": "advertisementApproval",
      "outputs": [],
      "stateMutability": "nonpayable",
      "type": "function"
    },
    {
      "inputs": [],
      "name": "getAds",
      "outputs": [
        {
          "internalType": "uint256[]",
          "name": "list",
          "type": "uint256[]"
        }
      ],
      "stateMutability": "view",
      "type": "function",
      "constant": true
    },
    {
      "inputs": [
        {
          "internalType": "uint256",
          "name": "_id",
          "type": "uint256"
        }
      ],
      "name": "getAd",
      "outputs": [
        {
          "internalType": "address",
          "name": "advertiser",
          "type": "address"
        },
        {
          "internalType": "string",
          "name": "imgHash",
          "type": "string"
        },
        {
          "internalType": "string",
          "name": "link",
          "type": "string"
        },
        {
          "internalType": "enum Dwitter.AdApprovalStatus",
          "name": "status",
          "type": "uint8"
        },
        {
          "internalType": "uint256",
          "name": "expiry",
          "type": "uint256"
        }
      ],
      "stateMutability": "view",
      "type": "function",
      "constant": true
    },
    {
      "inputs": [],
      "name": "myAdvertisements",
      "outputs": [
        {
          "internalType": "uint256[]",
          "name": "list",
          "type": "uint256[]"
        }
      ],
      "stateMutability": "view",
      "type": "function",
      "constant": true
    },
    {
      "inputs": [
        {
          "internalType": "uint256",
          "name": "_id",
          "type": "uint256"
        }
      ],
      "name": "getAdvertisementStatus",
      "outputs": [
        {
          "internalType": "enum Dwitter.AdApprovalStatus",
          "name": "status",
          "type": "uint8"
        }
      ],
      "stateMutability": "view",
      "type": "function",
      "constant": true
    },
    {
      "inputs": [],
      "name": "getBalance",
      "outputs": [
        {
          "internalType": "uint256",
          "name": "balance",
          "type": "uint256"
        }
      ],
      "stateMutability": "view",
      "type": "function",
      "constant": true
    },
    {
      "inputs": [
        {
          "internalType": "uint256",
          "name": "_amount",
          "type": "uint256"
        }
      ],
      "name": "transferContractBalance",
      "outputs": [],
      "stateMutability": "nonpayable",
      "type": "function"
    },
    {
      "inputs": [],
      "name": "stopDapp",
      "outputs": [],
      "stateMutability": "nonpayable",
      "type": "function"
    },
    {
      "inputs": [],
      "name": "startDapp",
      "outputs": [],
      "stateMutability": "nonpayable",
      "type": "function"
    }
  ],
  "bytecode": "0x60806040526000805460ff60a01b19168155600181815560028290556003829055600d829055600f556606e132f19a2944601055660dc265e3345288601155670157fbf3301c0f40601955601a553480156200005a57600080fd5b50600080546001600160a01b0319163390811790915562000084906001600160e01b036200008a16565b620000e3565b6000546001600160a01b03163314620000a257600080fd5b6001600160a01b03166000908152601260209081526040808320805460ff19166001908117909155600d805490910190819055338452601390925290912055565b6149a380620000f36000396000f3fe6080604052600436106103355760003560e01c8063830426ee116101ab578063bddb2b64116100f7578063ef8e419711610095578063f8264f811161006f578063f8264f81146118e3578063f98be581146118f8578063fc3e562e14611922578063fc9c6a151461193757610335565b8063ef8e4197146116fe578063efde468514611713578063f717793b1461172857610335565b8063bff1f9e1116100d1578063bff1f9e1146114ca578063d354f392146114df578063db80552d14611509578063dd57366a146116cb57610335565b8063bddb2b6414611452578063be06db4514611467578063beee20dc146114a057610335565b806398f4538c11610164578063aabeceb01161013e578063aabeceb0146110ab578063ac9f0a40146110c0578063ad81602914611385578063b9f069081461143d57610335565b806398f4538c146110325780639d096b9714611047578063a26eadff1461107957610335565b8063830426ee14610e74578063832880e714610e895780638b041a0314610e9e5780638da5cb5b14610fc7578063939327a114610ff857806395d2cc921461101d57610335565b806348c87bdb11610285578063719b741d1161022357806377c846af116101fd57806377c846af14610c8a5780637d0b102614610d3b5780637ede1c0714610d65578063825622d014610e5f57610335565b8063719b741d14610b9b57806374ebaadc14610bb057806375f12b2114610c7557610335565b806361936b811161025f57806361936b81146108ec578063668df506146109015780636b453c1f1461091e5780636f77926b1461095157610335565b806348c87bdb1461086e5780634aa6600e1461089857806350931c81146108c257610335565b80631d83417a116102f25780632f008262116102cc5780632f0082621461075957806333aa01e91461076e57806337d33ac91461078357806340a17985146107b657610335565b80631d83417a146105585780631e54248e146106ed5780632b3c6e221461072657610335565b806302d90f241461033a57806306681ad8146103665780630800e300146103995780630955ae991461047e57806312065fe0146104e35780631bf6e71a1461050a575b600080fd5b34801561034657600080fd5b506103646004803603602081101561035d57600080fd5b503561194c565b005b34801561037257600080fd5b506103646004803603602081101561038957600080fd5b50356001600160a01b0316611a46565b3480156103a557600080fd5b506103c3600480360360208110156103bc57600080fd5b5035611a7e565b60405180876001600160a01b03166001600160a01b031681526020018681526020018060200185815260200184815260200183600381111561040157fe5b60ff168152602001828103825286818151815260200191508051906020019080838360005b8381101561043e578181015183820152602001610426565b50505050905090810190601f16801561046b5780820380516001836020036101000a031916815260200191505b5097505050505050505060405180910390f35b34801561048a57600080fd5b50610493611bd2565b60408051602080825283518183015283519192839290830191858101910280838360005b838110156104cf5781810151838201526020016104b7565b505050509050019250505060405180910390f35b3480156104ef57600080fd5b506104f8611c63565b60408051918252519081900360200190f35b34801561051657600080fd5b506105346004803603602081101561052d57600080fd5b5035611c81565b6040518082600281111561054457fe5b60ff16815260200191505060405180910390f35b34801561056457600080fd5b506105826004803603602081101561057b57600080fd5b5035611cd1565b60405180876001600160a01b03166001600160a01b03168152602001806020018060200180602001868152602001858152602001848103845289818151815260200191508051906020019080838360005b838110156105eb5781810151838201526020016105d3565b50505050905090810190601f1680156106185780820380516001836020036101000a031916815260200191505b5084810383528851815288516020918201918a019080838360005b8381101561064b578181015183820152602001610633565b50505050905090810190601f1680156106785780820380516001836020036101000a031916815260200191505b50848103825287518152875160209182019189019080838360005b838110156106ab578181015183820152602001610693565b50505050905090810190601f1680156106d85780820380516001836020036101000a031916815260200191505b50995050505050505050505060405180910390f35b3480156106f957600080fd5b506104f86004803603604081101561071057600080fd5b506001600160a01b038135169060200135611f38565b34801561073257600080fd5b506104936004803603602081101561074957600080fd5b50356001600160a01b0316611f66565b34801561076557600080fd5b5061049361200a565b34801561077a57600080fd5b50610364612098565b34801561078f57600080fd5b50610493600480360360208110156107a657600080fd5b50356001600160a01b03166120db565b3480156107c257600080fd5b50610364600480360360408110156107d957600080fd5b81359190810190604081016020820135600160201b8111156107fa57600080fd5b82018360208201111561080c57600080fd5b803590602001918460018302840111600160201b8311171561082d57600080fd5b91908080601f01602080910402602001604051908101604052809392919081815260200183838082843760009201919091525092955061217d945050505050565b34801561087a57600080fd5b506105346004803603602081101561089157600080fd5b503561230d565b3480156108a457600080fd5b50610534600480360360208110156108bb57600080fd5b5035612360565b3480156108ce57600080fd5b50610364600480360360208110156108e557600080fd5b50356123bb565b3480156108f857600080fd5b506104f861247a565b6103646004803603602081101561091757600080fd5b5035612480565b34801561092a57600080fd5b506103646004803603602081101561094157600080fd5b50356001600160a01b03166126eb565b34801561095d57600080fd5b506109846004803603602081101561097457600080fd5b50356001600160a01b0316612743565b60405180878152602001806020018060200180602001806020018060200186810386528b818151815260200191508051906020019080838360005b838110156109d75781810151838201526020016109bf565b50505050905090810190601f168015610a045780820380516001836020036101000a031916815260200191505b5086810385528a5181528a516020918201918c019080838360005b83811015610a37578181015183820152602001610a1f565b50505050905090810190601f168015610a645780820380516001836020036101000a031916815260200191505b5086810384528951815289516020918201918b019080838360005b83811015610a97578181015183820152602001610a7f565b50505050905090810190601f168015610ac45780820380516001836020036101000a031916815260200191505b5086810383528851815288516020918201918a019080838360005b83811015610af7578181015183820152602001610adf565b50505050905090810190601f168015610b245780820380516001836020036101000a031916815260200191505b50868103825287518152875160209182019189019080838360005b83811015610b57578181015183820152602001610b3f565b50505050905090810190601f168015610b845780820380516001836020036101000a031916815260200191505b509b50505050505050505050505060405180910390f35b348015610ba757600080fd5b50610493612a56565b348015610bbc57600080fd5b50610c6160048036036020811015610bd357600080fd5b810190602081018135600160201b811115610bed57600080fd5b820183602082011115610bff57600080fd5b803590602001918460018302840111600160201b83111715610c2057600080fd5b91908080601f016020809104026020016040519081016040528093929190818152602001838380828437600092019190915250929550612aed945050505050565b604080519115158252519081900360200190f35b348015610c8157600080fd5b50610c61612b59565b348015610c9657600080fd5b5061036460048036036020811015610cad57600080fd5b810190602081018135600160201b811115610cc757600080fd5b820183602082011115610cd957600080fd5b803590602001918460018302840111600160201b83111715610cfa57600080fd5b91908080601f016020809104026020016040519081016040528093929190818152602001838380828437600092019190915250929550612b69945050505050565b348015610d4757600080fd5b5061036460048036036020811015610d5e57600080fd5b5035612c4a565b348015610d7157600080fd5b50610d8f60048036036020811015610d8857600080fd5b5035612d5a565b60405180866001600160a01b03166001600160a01b031681526020018060200180602001856002811115610dbf57fe5b60ff168152602001848152602001838103835287818151815260200191508051906020019080838360005b83811015610e02578181015183820152602001610dea565b50505050905090810190601f168015610e2f5780820380516001836020036101000a031916815260200191505b5083810382528651815286516020918201918801908083836000831561043e578181015183820152602001610426565b348015610e6b57600080fd5b50610493612f05565b348015610e8057600080fd5b506104f8612f9c565b348015610e9557600080fd5b50610984612fa2565b61036460048036036040811015610eb457600080fd5b810190602081018135600160201b811115610ece57600080fd5b820183602082011115610ee057600080fd5b803590602001918460018302840111600160201b83111715610f0157600080fd5b91908080601f0160208091040260200160405190810160405280939291908181526020018383808284376000920191909152509295949360208101935035915050600160201b811115610f5357600080fd5b820183602082011115610f6557600080fd5b803590602001918460018302840111600160201b83111715610f8657600080fd5b91908080601f0160208091040260200160405190810160405280939291908181526020018383808284376000920191909152509295506132ab945050505050565b348015610fd357600080fd5b50610fdc61344b565b604080516001600160a01b039092168252519081900360200190f35b34801561100457600080fd5b5061100d61345a565b6040518082600381111561054457fe5b34801561102957600080fd5b50610364613473565b34801561103e57600080fd5b506104f86134af565b34801561105357600080fd5b506103646004803603604081101561106a57600080fd5b508035906020013515156134b5565b34801561108557600080fd5b506103646004803603604081101561109c57600080fd5b50803590602001351515613638565b3480156110b757600080fd5b50610493613831565b3480156110cc57600080fd5b50610364600480360360a08110156110e357600080fd5b810190602081018135600160201b8111156110fd57600080fd5b82018360208201111561110f57600080fd5b803590602001918460018302840111600160201b8311171561113057600080fd5b91908080601f0160208091040260200160405190810160405280939291908181526020018383808284376000920191909152509295949360208101935035915050600160201b81111561118257600080fd5b82018360208201111561119457600080fd5b803590602001918460018302840111600160201b831117156111b557600080fd5b91908080601f0160208091040260200160405190810160405280939291908181526020018383808284376000920191909152509295949360208101935035915050600160201b81111561120757600080fd5b82018360208201111561121957600080fd5b803590602001918460018302840111600160201b8311171561123a57600080fd5b91908080601f0160208091040260200160405190810160405280939291908181526020018383808284376000920191909152509295949360208101935035915050600160201b81111561128c57600080fd5b82018360208201111561129e57600080fd5b803590602001918460018302840111600160201b831117156112bf57600080fd5b91908080601f0160208091040260200160405190810160405280939291908181526020018383808284376000920191909152509295949360208101935035915050600160201b81111561131157600080fd5b82018360208201111561132357600080fd5b803590602001918460018302840111600160201b8311171561134457600080fd5b91908080601f0160208091040260200160405190810160405280939291908181526020018383808284376000920191909152509295506138c8945050505050565b34801561139157600080fd5b50610364600480360360408110156113a857600080fd5b81359190810190604081016020820135600160201b8111156113c957600080fd5b8201836020820111156113db57600080fd5b803590602001918460018302840111600160201b831117156113fc57600080fd5b91908080601f016020809104026020016040519081016040528093929190818152602001838380828437600092019190915250929550613bfc945050505050565b34801561144957600080fd5b506104f8613cc3565b34801561145e57600080fd5b506104f8613cc9565b34801561147357600080fd5b506104f86004803603604081101561148a57600080fd5b506001600160a01b038135169060200135613d17565b3480156114ac57600080fd5b50610364600480360360208110156114c357600080fd5b5035613d30565b3480156114d657600080fd5b506104f8613d81565b3480156114eb57600080fd5b506104936004803603602081101561150257600080fd5b5035613d87565b34801561151557600080fd5b506103646004803603608081101561152c57600080fd5b81359190810190604081016020820135600160201b81111561154d57600080fd5b82018360208201111561155f57600080fd5b803590602001918460018302840111600160201b8311171561158057600080fd5b91908080601f0160208091040260200160405190810160405280939291908181526020018383808284376000920191909152509295949360208101935035915050600160201b8111156115d257600080fd5b8201836020820111156115e457600080fd5b803590602001918460018302840111600160201b8311171561160557600080fd5b91908080601f0160208091040260200160405190810160405280939291908181526020018383808284376000920191909152509295949360208101935035915050600160201b81111561165757600080fd5b82018360208201111561166957600080fd5b803590602001918460018302840111600160201b8311171561168a57600080fd5b91908080601f016020809104026020016040519081016040528093929190818152602001838380828437600092019190915250929550613e4f945050505050565b3480156116d757600080fd5b50610c61600480360360208110156116ee57600080fd5b50356001600160a01b0316613f64565b34801561170a57600080fd5b506104f8613f79565b34801561171f57600080fd5b50610364613f7f565b34801561173457600080fd5b506103646004803603606081101561174b57600080fd5b810190602081018135600160201b81111561176557600080fd5b82018360208201111561177757600080fd5b803590602001918460018302840111600160201b8311171561179857600080fd5b91908080601f0160208091040260200160405190810160405280939291908181526020018383808284376000920191909152509295949360208101935035915050600160201b8111156117ea57600080fd5b8201836020820111156117fc57600080fd5b803590602001918460018302840111600160201b8311171561181d57600080fd5b91908080601f0160208091040260200160405190810160405280939291908181526020018383808284376000920191909152509295949360208101935035915050600160201b81111561186f57600080fd5b82018360208201111561188157600080fd5b803590602001918460018302840111600160201b831117156118a257600080fd5b91908080601f016020809104026020016040519081016040528093929190818152602001838380828437600092019190915250929550614007945050505050565b3480156118ef57600080fd5b506104f861425a565b34801561190457600080fd5b506103646004803603602081101561191b57600080fd5b5035614260565b34801561192e57600080fd5b506104936144ac565b34801561194357600080fd5b506104f8614543565b3360008181526004602052604090206007015460019060ff16600381111561197057fe5b1461197a57600080fd5b6001600083815260186020908152604080832033845290915290205460ff1660028111156119a457fe5b146119ae57600080fd5b336000908152601660205260409020546119c757600080fd5b600160008381526015602052604090205460ff1660028111156119e657fe5b146119f057600080fd5b6000828152601860209081526040808320338085529252808320805460ff19166002179055601154905191926108fc8215029290818181858888f19350505050158015611a41573d6000803e3d6000fd5b505050565b6000546001600160a01b03163314611a5d57600080fd5b6001600160a01b03166000908152601260205260409020805460ff19169055565b60008060608180803360016001600160a01b03821660009081526004602052604090206007015460ff166003811115611ab357fe5b14611abd57600080fd5b8760016000828152600a602052604090206006015460ff166003811115611ae057fe5b14611aea57600080fd5b6000898152600a6020908152604091829020600180820154600280840154600485015460058601546006870154600390970180548a516101009882161598909802600019011694909404601f81018990048902870189019099528886526001600160a01b039094169791969295909460ff9091169290918691830182828015611bb45780601f10611b8957610100808354040283529160200191611bb4565b820191906000526020600020905b815481529060010190602001808311611b9757829003601f168201915b50505050509350975097509750975097509750505091939550919395565b60603360016001600160a01b03821660009081526004602052604090206007015460ff166003811115611c0157fe5b14611c0b57600080fd5b601b805480602002602001604051908101604052809291908181526020018280548015611c5757602002820191906000526020600020905b815481526020019060010190808311611c43575b505050505091505b5090565b600080546001600160a01b03163314611c7b57600080fd5b50475b90565b60003360016001600160a01b03821660009081526004602052604090206007015460ff166003811115611cb057fe5b14611cba57600080fd5b505060009081526015602052604090205460ff1690565b60006060808083803360016001600160a01b03821660009081526004602052604090206007015460ff166003811115611d0657fe5b14611d1057600080fd5b87600160008281526007602052604090206008015460ff166003811115611d3357fe5b14611d3d57600080fd5b600089815260076020908152604091829020600180820154600583015460068401546002808601805489516101009782161597909702600019011691909104601f81018890048802860188019098528785526001600160a01b0390931696929560038601956004019492939192918791830182828015611dfe5780601f10611dd357610100808354040283529160200191611dfe565b820191906000526020600020905b815481529060010190602001808311611de157829003601f168201915b5050875460408051602060026001851615610100026000190190941693909304601f8101849004840282018401909252818152959a5089945092508401905082828015611e8c5780601f10611e6157610100808354040283529160200191611e8c565b820191906000526020600020905b815481529060010190602001808311611e6f57829003601f168201915b5050865460408051602060026001851615610100026000190190941693909304601f810184900484028201840190925281815295995088945092508401905082828015611f1a5780601f10611eef57610100808354040283529160200191611f1a565b820191906000526020600020905b815481529060010190602001808311611efd57829003601f168201915b50505050509250975097509750975097509750505091939550919395565b60166020528160005260406000208181548110611f5157fe5b90600052602060002001600091509150505481565b60603360016001600160a01b03821660009081526004602052604090206007015460ff166003811115611f9557fe5b14611f9f57600080fd5b6001600160a01b0383166000908152600b602090815260409182902080548351818402810184019094528084529091830182828015611ffd57602002820191906000526020600020905b815481526020019060010190808311611fe9575b5050505050915050919050565b60603360016001600160a01b03821660009081526004602052604090206007015460ff16600381111561203957fe5b1461204357600080fd5b600e805480602002602001604051908101604052809291908181526020018280548015611c575760200282019190600052602060002090815481526020019060010190808311611c4357505050505091505090565b6000546001600160a01b031633146120af57600080fd5b600054600160a01b900460ff16156120c657600080fd5b6000805460ff60a01b1916600160a01b179055565b60603360016001600160a01b03821660009081526004602052604090206007015460ff16600381111561210a57fe5b1461211457600080fd5b6001600160a01b03831660009081526008602090815260409182902080548351818402810184019094528084529091830182828015611ffd5760200282019190600052602060002090815481526020019060010190808311611fe9575050505050915050919050565b600054600160a01b900460ff161561219457600080fd5b3360008181526004602052604090206007015460019060ff1660038111156121b857fe5b146121c257600080fd5b82600160008281526007602052604090206008015460ff1660038111156121e557fe5b146121ef57600080fd5b600280546001908101918290556040805160e08101825283815233602082015290810187905260608101869052600060808201524260a08201529060c08201526000828152600a602090815260409182902083518155838201516001820180546001600160a01b0319166001600160a01b039092169190911790559183015160028301556060830151805161228a926003850192019061485a565b506080820151600482015560a0820151600582015560c082015160068201805460ff191660018360038111156122bc57fe5b021790555050336000908152600b60209081526040808320600280548254600181810185559387528587200155998452600c8352908320985489549182018a55988352912001959095555050505050565b60003360016001600160a01b03821660009081526004602052604090206007015460ff16600381111561233c57fe5b1461234657600080fd5b50506000908152601d602052604090206004015460ff1690565b60003360016001600160a01b03821660009081526004602052604090206007015460ff16600381111561238f57fe5b1461239957600080fd5b5050600090815260186020908152604080832033845290915290205460ff1690565b3360008181526004602052604090206007015460019060ff1660038111156123df57fe5b146123e957600080fd5b81600160008281526007602052604090206008015460ff16600381111561240c57fe5b1461241657600080fd5b600083815260096020908152604080832033845290915290205460ff161561243d57600080fd5b505060009081526007602090815260408083206006018054600190810190915560098352818420338552909252909120805460ff19169091179055565b60025481565b80600160008281526007602052604090206008015460ff1660038111156124a357fe5b146124ad57600080fd5b3360008181526004602052604090206007015460019060ff1660038111156124d157fe5b146124db57600080fd5b6010543410156124ea57600080fd5b600f5460008481526007602081905260409091200154111561250b57600080fd5b600083815260146020908152604080832033845290915290205460ff161561253257600080fd5b6000838152601460209081526040808320338085529083528184208054600160ff1991821681179092556016855283862080548084018255908752858720018990558886526018855283862092865291845282852080549092168117909155868452600792839052922001805490910190819055600f548114156126ad57600e805460018181019092557fbb7b4a454dc3493923482f07822329ed19e8244eff582cc204f8554c3620c3fd01859055600085815260076020908152604091829020825188815291820183815260029182018054610100968116159690960260001901909516919091049282018390527ff36efff61beff5fce9769a14cd22476bb653b2165946f3f58242301dcf6294c09388939092919060608301908490801561269d5780601f106126725761010080835404028352916020019161269d565b820191906000526020600020905b81548152906001019060200180831161268057829003601f168201915b5050935050505060405180910390a15b50601054604051349190910390339082156108fc029083906000818181858888f193505050501580156126e4573d6000803e3d6000fd5b5050505050565b6000546001600160a01b0316331461270257600080fd5b6001600160a01b03166000908152601260209081526040808320805460ff19166001908117909155600d805490910190819055338452601390925290912055565b6001600160a01b038116600090815260046020818152604080842080546002808301805485516001821615610100026000190190911692909204601f81018790048702830187019095528482526060968796879687968796956003820194820193600583019360069093019287918301828280156128025780601f106127d757610100808354040283529160200191612802565b820191906000526020600020905b8154815290600101906020018083116127e557829003601f168201915b5050875460408051602060026001851615610100026000190190941693909304601f8101849004840282018401909252818152959a50899450925084019050828280156128905780601f1061286557610100808354040283529160200191612890565b820191906000526020600020905b81548152906001019060200180831161287357829003601f168201915b5050865460408051602060026001851615610100026000190190941693909304601f81018490048402820184019092528181529599508894509250840190508282801561291e5780601f106128f35761010080835404028352916020019161291e565b820191906000526020600020905b81548152906001019060200180831161290157829003601f168201915b5050855460408051602060026001851615610100026000190190941693909304601f8101849004840282018401909252818152959850879450925084019050828280156129ac5780601f10612981576101008083540402835291602001916129ac565b820191906000526020600020905b81548152906001019060200180831161298f57829003601f168201915b5050845460408051602060026001851615610100026000190190941693909304601f810184900484028201840190925281815295975086945092508401905082828015612a3a5780601f10612a0f57610100808354040283529160200191612a3a565b820191906000526020600020905b815481529060010190602001808311612a1d57829003601f168201915b5050505050905095509550955095509550955091939550919395565b60603360016001600160a01b03821660009081526004602052604090206007015460ff166003811115612a8557fe5b14612a8f57600080fd5b336000908152600b602090815260409182902080548351818402810184019094528084529091830182828015611c575760200282019190600052602060002090815481526020019060010190808311611c4357505050505091505090565b60006006826040518082805190602001908083835b60208310612b215780518252601f199092019160209182019101612b02565b51815160209384036101000a600019018019909216911617905292019485525060405193849003019092205460ff1615949350505050565b600054600160a01b900460ff1681565b600054600160a01b900460ff1615612b8057600080fd5b3360008181526004602052604090206007015460019060ff166003811115612ba457fe5b14612bae57600080fd5b816006816040518082805190602001908083835b60208310612be15780518252601f199092019160209182019101612bc2565b51815160209384036101000a600019018019909216911617905292019485525060405193849003019092205460ff16159150612c1e905057600080fd5b3360009081526004602090815260409091208451612c449260029092019186019061485a565b50505050565b600054600160a01b900460ff1615612c6157600080fd5b8060016000828152600a602052604090206006015460ff166003811115612c8457fe5b14612c8e57600080fd5b3360008181526004602052604090206007015460019060ff166003811115612cb257fe5b14612cbc57600080fd5b6000838152600a602052604090206001015483906001600160a01b03163314612ce457600080fd5b6000848152600a602052604081208181556001810180546001600160a01b03191690556002810182905590612d1c60038301826148d4565b50600060048201819055600582018190556006918201805460ff19908116909155958152600a60205260409020018054909416600317909355505050565b600060608082803360016001600160a01b03821660009081526004602052604090206007015460ff166003811115612d8e57fe5b14612d9857600080fd5b6000878152601d6020908152604091829020600180820154600483015460058401546002808601805489516101009782161597909702600019011691909104601f81018890048802860188019098528785526001600160a01b0390931696929560039095019460ff9092169390929091869190830182828015612e5c5780601f10612e3157610100808354040283529160200191612e5c565b820191906000526020600020905b815481529060010190602001808311612e3f57829003601f168201915b5050865460408051602060026001851615610100026000190190941693909304601f810184900484028201840190925281815295995088945092508401905082828015612eea5780601f10612ebf57610100808354040283529160200191612eea565b820191906000526020600020905b815481529060010190602001808311612ecd57829003601f168201915b50505050509250955095509550955095505091939590929450565b60603360016001600160a01b03821660009081526004602052604090206007015460ff166003811115612f3457fe5b14612f3e57600080fd5b336000908152601c602090815260409182902080548351818402810184019094528084529091830182828015611c575760200282019190600052602060002090815481526020019060010190808311611c4357505050505091505090565b60115481565b33600090815260046020818152604080842080546002808301805485516001821615610100026000190190911692909204601f81018790048702830187019095528482526060968796879687968796956003820194820193600583019360069093019287918301828280156130585780601f1061302d57610100808354040283529160200191613058565b820191906000526020600020905b81548152906001019060200180831161303b57829003601f168201915b5050875460408051602060026001851615610100026000190190941693909304601f8101849004840282018401909252818152959a50899450925084019050828280156130e65780601f106130bb576101008083540402835291602001916130e6565b820191906000526020600020905b8154815290600101906020018083116130c957829003601f168201915b5050865460408051602060026001851615610100026000190190941693909304601f8101849004840282018401909252818152959950889450925084019050828280156131745780601f1061314957610100808354040283529160200191613174565b820191906000526020600020905b81548152906001019060200180831161315757829003601f168201915b5050855460408051602060026001851615610100026000190190941693909304601f8101849004840282018401909252818152959850879450925084019050828280156132025780601f106131d757610100808354040283529160200191613202565b820191906000526020600020905b8154815290600101906020018083116131e557829003601f168201915b5050845460408051602060026001851615610100026000190190941693909304601f8101849004840282018401909252818152959750869450925084019050828280156132905780601f1061326557610100808354040283529160200191613290565b820191906000526020600020905b81548152906001019060200180831161327357829003601f168201915b50505050509050955095509550955095509550909192939495565b3360008181526004602052604090206007015460019060ff1660038111156132cf57fe5b146132d957600080fd5b6019543410156132e857600080fd5b601a8054600101908190556040805160c08101825282815233602082015290810185905260608101849052608081016000815260006020918201819052838152601d825260409081902083518155838301516001820180546001600160a01b0319166001600160a01b0390921691909117905590830151805191926133759260028501929091019061485a565b506060820151805161339191600384019160209091019061485a565b50608082015160048201805460ff191660018360028111156133af57fe5b021790555060a09190910151600590910155601b805460018181019092557f3ad8aa4f87544323a9d1e5dd902f40c356527a7955687113db5f9a85ad579dc101829055336000818152601c60209081526040808320805495860181558352908220909301939093556019549151349290920392909183156108fc0291849190818181858888f193505050501580156126e4573d6000803e3d6000fd5b6000546001600160a01b031681565b3360009081526004602052604090206007015460ff1690565b6000546001600160a01b0316331461348a57600080fd5b600054600160a01b900460ff166134a057600080fd5b6000805460ff60a01b19169055565b60195481565b3360009081526012602052604090205460ff166134d157600080fd5b6000828152601d602052604081206004015460ff1660028111156134f157fe5b146134fb57600080fd5b8015613574576000828152601d6020908152604080832060048101805460ff1916600117905542620151800160059091015533835260138252918290205482518581529182015281517f6c8e69d71dc717c59fc706bd173bcb7ce7ea5a8737f9fdfd483006449fd8ec90929181900390910190a1613634565b6000828152601d60205260408120600401805460ff191660021790556019546135b7906064906135ab90600863ffffffff61454916565b9063ffffffff6145ab16565b604051909150339082156108fc029083906000818181858888f193505050501580156135e7573d6000803e3d6000fd5b50336000908152601360209081526040918290205482518681529182015281517fd66d01fb66b33dd99d19c922ec2c8157f57bd902b98ade160c6180593929ee0f929181900390910190a1505b5050565b3360009081526012602052604090205460ff1661365457600080fd5b81600160008281526007602052604090206008015460ff16600381111561367757fe5b1461368157600080fd5b3360008181526004602052604090206007015460019060ff1660038111156136a557fe5b146136af57600080fd5b60008481526015602052604081205460ff1660028111156136cc57fe5b146136d657600080fd5b8215613703576000848152601560205260409020805460ff191660011790556136fe846145ed565b612c44565b6000848152601560205260409020805460ff19166002179055600f5460105461372b91614549565b60008581526007602090815260408083206001808201546001600160a01b031685526017845282852080549096019095553384526013835292819020548151898152918201819052606092820183815260029485018054600019978116156101000297909701909616949094049282018390527f5a59bd75dcbe5cdfb58d606721117c0abdaaff14f93f26aab8a2e531fa09d08e948994909391929160808301908590801561381b5780601f106137f05761010080835404028352916020019161381b565b820191906000526020600020905b8154815290600101906020018083116137fe57829003601f168201915b505094505050505060405180910390a150505050565b60603360016001600160a01b03821660009081526004602052604090206007015460ff16600381111561386057fe5b1461386a57600080fd5b3360009081526016602090815260409182902080548351818402810184019094528084529091830182828015611c575760200282019190600052602060002090815481526020019060010190808311611c4357505050505091505090565b600054600160a01b900460ff16156138df57600080fd5b3360008181526004602052604081206007015460ff16600381111561390057fe5b1461390a57600080fd5b856006816040518082805190602001908083835b6020831061393d5780518252601f19909201916020918201910161391e565b51815160209384036101000a600019018019909216911617905292019485525060405193849003019092205460ff1615915061397a905057600080fd5b60016006886040518082805190602001908083835b602083106139ae5780518252601f19909201916020918201910161398f565b6001836020036101000a038019825116818451168082178552505050505050905001915050908152602001604051809103902060006101000a81548160ff0219169083151502179055506040518061010001604052806003600081546001019190508190558152602001336001600160a01b0316815260200188815260200187815260200186815260200185815260200184815260200160016003811115613a5257fe5b90523360009081526004602090815260409182902083518155838201516001820180546001600160a01b0319166001600160a01b03909216919091179055918301518051613aa6926002850192019061485a565b5060608201518051613ac291600384019160209091019061485a565b5060808201518051613ade91600484019160209091019061485a565b5060a08201518051613afa91600584019160209091019061485a565b5060c08201518051613b1691600684019160209091019061485a565b5060e082015160078201805460ff19166001836003811115613b3457fe5b0217905550905050336005886040518082805190602001908083835b60208310613b6f5780518252601f199092019160209182019101613b50565b51815160209384036101000a600019018019909216911617905292019485525060408051948590038201852080546001600160a01b0319166001600160a01b03979097169690961790955560035433855290840152505081517fabc58c36475157c4ac7669f9adfbb6f254d3a3578fb89676f6866ac3b9950eed929181900390910190a150505050505050565b600054600160a01b900460ff1615613c1357600080fd5b3360008181526004602052604090206007015460019060ff166003811115613c3757fe5b14613c4157600080fd5b8260016000828152600a602052604090206006015460ff166003811115613c6457fe5b14613c6e57600080fd5b6000848152600a602052604090206001015484906001600160a01b03163314613c9657600080fd5b6000858152600a602090815260409091208551613cbb9260039092019187019061485a565b505050505050565b60015481565b60003360016001600160a01b03821660009081526004602052604090206007015460ff166003811115613cf857fe5b14613d0257600080fd5b50503360009081526017602052604090205490565b601c6020528160005260406000208181548110611f5157fe5b6000546001600160a01b03163314613d4757600080fd5b47811115613d5457600080fd5b604051339082156108fc029083906000818181858888f19350505050158015613634573d6000803e3d6000fd5b60035481565b60603360016001600160a01b03821660009081526004602052604090206007015460ff166003811115613db657fe5b14613dc057600080fd5b82600160008281526007602052604090206008015460ff166003811115613de357fe5b14613ded57600080fd5b6000848152600c602090815260409182902080548351818402810184019094528084529091830182828015613e4157602002820191906000526020600020905b815481526020019060010190808311613e2d575b505050505092505050919050565b600054600160a01b900460ff1615613e6657600080fd5b83600160008281526007602052604090206008015460ff166003811115613e8957fe5b14613e9357600080fd5b3360008181526004602052604090206007015460019060ff166003811115613eb757fe5b14613ec157600080fd5b60008681526007602052604090206001015486906001600160a01b03163314613ee957600080fd5b60008781526007602090815260409091208751613f0e9260029092019189019061485a565b5060008781526007602090815260409091208651613f349260039092019188019061485a565b5060008781526007602090815260409091208551613f5a9260049092019187019061485a565b5050505050505050565b60126020526000908152604090205460ff1681565b601a5481565b3360008181526004602052604090206007015460019060ff166003811115613fa357fe5b14613fad57600080fd5b33600090815260176020526040902054613fc657600080fd5b33600081815260176020526040808220805490839055905190929183156108fc02918491818181858888f19350505050158015611a41573d6000803e3d6000fd5b600054600160a01b900460ff161561401e57600080fd5b3360008181526004602052604090206007015460019060ff16600381111561404257fe5b1461404c57600080fd5b600180548101808255604080516101208101825282815233602082015290810187905260608101869052608081018590524260a0820152600060c0820181905260e0820152909161010082015260008281526007602090815260409182902083518155838201516001820180546001600160a01b0319166001600160a01b039092169190911790559183015180516140ea926002850192019061485a565b506060820151805161410691600384019160209091019061485a565b506080820151805161412291600484019160209091019061485a565b5060a0820151600582015560c0820151600682015560e0820151600782015561010082015160088201805460ff1916600183600381111561415f57fe5b0217905550503360008181526008602090815260408083206001805482548083018455928652848620909201919091558484526004835281842054905482518681528085018390529283018190526080606084018181528d51918501919091528c517f21593a9df09ab143689b32be8383151220aea83c109d2687fdaf0352025b12b69850929591948d9493919260a085019291860191908190849084905b838110156142165781810151838201526020016141fe565b50505050905090810190601f1680156142435780820380516001836020036101000a031916815260200191505b509550505050505060405180910390a15050505050565b60105481565b80600160008281526007602052604090206008015460ff16600381111561428357fe5b1461428d57600080fd5b3360008181526004602052604090206007015460019060ff1660038111156142b157fe5b146142bb57600080fd5b600054600160a01b900460ff16156142d257600080fd5b60008381526007602052604090206001015483906001600160a01b031633146142fa57600080fd5b6000848152600760209081526040918290208251878152918201838152600291820180546000196101006001831615020116929092049383018490527f83eaa369805b076a12075449c0a5991787d784ac3ac93f7f0ee7d626867ba16093889391906060830190849080156143b05780601f10614385576101008083540402835291602001916143b0565b820191906000526020600020905b81548152906001019060200180831161439357829003601f168201915b5050935050505060405180910390a160008481526007602052604081208181556001810180546001600160a01b0319169055906143f060028301826148d4565b6143fe6003830160006148d4565b61440c6004830160006148d4565b506000600582018190556006820181905560078083018290556008928301805460ff199081169091558783526020919091526040822090920180549092166003179091555b6000858152600c6020526040902054811015614494576000858152600c6020526040902080548290811061448157fe5b6000918252602082200155600101614451565b506000848152600c60205260408120612c4491614918565b60603360016001600160a01b03821660009081526004602052604090206007015460ff1660038111156144db57fe5b146144e557600080fd5b3360009081526008602090815260409182902080548351818402810184019094528084529091830182828015611c575760200282019190600052602060002090815481526020019060010190808311611c4357505050505091505090565b600d5481565b600082614558575060006145a5565b8282028284828161456557fe5b04146145a25760405162461bcd60e51b815260040180806020018281038252602181526020018061494d6021913960400191505060405180910390fd5b90505b92915050565b60006145a283836040518060400160405280601a81526020017f536166654d6174683a206469766973696f6e206279207a65726f0000000000008152506147b8565b600081815260076020908152604080832033845260138352928190205481518581529182018190526060928201838152600294850180546000196101006001831615020116959095049383018490527fe8b0ee2448f5490098968df919aa6073143ba52e678bdd8decf9bfa160d626b8948694909391906080830190859080156146b85780601f1061468d576101008083540402835291602001916146b8565b820191906000526020600020905b81548152906001019060200180831161469b57829003601f168201915b505094505050505060405180910390a160008181526007602052604081208181556001810180546001600160a01b0319169055906146f960028301826148d4565b6147076003830160006148d4565b6147156004830160006148d4565b506000600582018190556006820181905560078083018290556008928301805460ff199081169091558483526020919091526040822090920180549092166002179091555b6000828152600c602052604090205481101561479d576000828152600c6020526040902080548290811061478a57fe5b600091825260208220015560010161475a565b506000818152600c602052604081206147b591614918565b50565b600081836148445760405162461bcd60e51b81526004018080602001828103825283818151815260200191508051906020019080838360005b838110156148095781810151838201526020016147f1565b50505050905090810190601f1680156148365780820380516001836020036101000a031916815260200191505b509250505060405180910390fd5b50600083858161485057fe5b0495945050505050565b828054600181600116156101000203166002900490600052602060002090601f016020900481019282601f1061489b57805160ff19168380011785556148c8565b828001600101855582156148c8579182015b828111156148c85782518255916020019190600101906148ad565b50611c5f929150614932565b50805460018160011615610100020316600290046000825580601f106148fa57506147b5565b601f0160209004906000526020600020908101906147b59190614932565b50805460008255906000526020600020908101906147b591905b611c7e91905b80821115611c5f576000815560010161493856fe536166654d6174683a206d756c7469706c69636174696f6e206f766572666c6f77a26469706673582212204978ed7d039d0af0e37920ba16805ce53ecbc86ce7779d30e1a794783fb566c464736f6c63430006010033",
  "source": "/*\r\n_____           _ _   _            \r\n |  __ \\         (_) | | |           \r\n | |  | |_      ___| |_| |_ ___ _ __ \r\n | |  | \\ \\ /\\ / / | __| __/ _ \\ '__|\r\n | |__| |\\ V  V /| | |_| ||  __/ |   \r\n |_____/  \\_/\\_/ |_|\\__|\\__\\___|_|   \r\n                                     \r\n*/\r\n\r\n// SPDX-License-Identifier: GPL-3.0\r\npragma solidity >=0.5.10;\r\n    library SafeMath {\r\n    \r\n        function add(uint256 a, uint256 b) internal pure returns (uint256) {\r\n            uint256 c = a + b;\r\n            require(c >= a, \"SafeMath: addition overflow\");\r\n    \r\n            return c;\r\n        }\r\n    \r\n        function sub(uint256 a, uint256 b) internal pure returns (uint256) {\r\n            return sub(a, b, \"SafeMath: subtraction overflow\");\r\n        }\r\n    \r\n        function sub(uint256 a, uint256 b, string memory errorMessage) internal pure returns (uint256) {\r\n            require(b <= a, errorMessage);\r\n            uint256 c = a - b;\r\n    \r\n            return c;\r\n        }\r\n    \r\n        function mul(uint256 a, uint256 b) internal pure returns (uint256) {\r\n            if (a == 0) {\r\n                return 0;\r\n            }\r\n    \r\n            uint256 c = a * b;\r\n            require(c / a == b, \"SafeMath: multiplication overflow\");\r\n    \r\n            return c;\r\n        }\r\n    \r\n        function div(uint256 a, uint256 b) internal pure returns (uint256) {\r\n            return div(a, b, \"SafeMath: division by zero\");\r\n        }\r\n    \r\n        function div(uint256 a, uint256 b, string memory errorMessage) internal pure returns (uint256) {\r\n            require(b > 0, errorMessage);\r\n            uint256 c = a / b;\r\n            return c;\r\n        }\r\n    \r\n    }\r\n\r\n/// @title A Decentralised Social Media Platform\r\n/// @author Mohit Bhat\r\n/// @notice You can use this contract to connect to decentralised social network, share your content to the world in a decentralised way!\r\n/// @dev Most of the features are implemented keeping note of security concerns\r\n\r\ncontract Dwitter{\r\n    using SafeMath for uint;\r\n    address payable public owner; //Owner is also a maintainer\r\n    bool public stopped = false;\r\n    \r\n    struct User{\r\n        uint id;\r\n        address ethAddress;\r\n        string username;\r\n        string name;\r\n        string profileImgHash;\r\n        string profileCoverImgHash;\r\n        string bio;\r\n        accountStatus status; // Account Banned or Not\r\n    }\r\n    \r\n    struct Dweet{\r\n        uint dweetId;\r\n        address author;\r\n        string hashtag;\r\n        string content;\r\n        string imgHash;\r\n        uint timestamp;\r\n        uint likeCount;\r\n        uint reportCount;\r\n        cdStatus status; // Dweet Active-Deleted-Banned\r\n    }\r\n    \r\n    struct Comment{\r\n        uint commentId;\r\n        address author;\r\n        uint dweetId;\r\n        string content;\r\n        uint likeCount;\r\n        // uint reportCount;\r\n        uint timestamp;\r\n        cdStatus status; // Comment Reported and Banned or not\r\n    }\r\n    \r\n    uint public totalDweets=0;\r\n    uint public totalComments=0;\r\n    uint public totalUsers=0;\r\n    \r\n    ///@dev NP means not present the default value for status \r\n    enum accountStatus{NP,Active,Banned,Deactivated}\r\n    enum cdStatus{NP,Active, Banned, Deleted}//Comment-Dweet status\r\n    // enum dweetStatus{NP,Active, Banned, Deleted}\r\n    \r\n    mapping(address=>User) private users; //mapping to get user details from user address\r\n    mapping(string=>address) private userAddressFromUsername;//to get user address from username\r\n    // mapping(address=>bool) private registeredUser; //mapping to get user details from user address\r\n    mapping(string=>bool) private usernames;//To check which username is taken taken=>true, not taken=>false\r\n\r\n    \r\n    mapping(uint=>Dweet) private dweets;// mapping to get dweet from Id\r\n    mapping(address=>uint[]) private userDweets; // Array to store dweets(Id) done by user\r\n    // mapping(uint=>address[]) private dweetLikersList;\r\n    mapping(uint=>mapping(address=>bool)) private dweetLikers; // Mapping to track who liked which dweet\r\n    \r\n    mapping(uint=>Comment) private comments; //Mapping to get comment from comment Id\r\n    mapping(address=>uint[]) private userComments;// Mapping to track user comments from there address\r\n    // mapping(uint=>mapping(address=>bool)) private commentReporters; // Mapping to track who reported which comment\r\n    // mapping(uint=>mapping(address=>bool)) private commentLikers; // Mapping to track who liked on which comment\r\n    mapping(uint=>uint[]) private dweetComments; // Getting comments for a specific dweet\r\n    \r\n    modifier stopInEmergency { require(!stopped); _; }\r\n    modifier onlyInEmergency { require(stopped); _; }\r\n    \r\n    modifier onlyOwner{require(msg.sender==owner); _;}\r\n    modifier onlyDweetAuthor(uint id){require(msg.sender==dweets[id].author); _;}\r\n    modifier onlyCommentAuthor(uint id){require(msg.sender==comments[id].author); _;}\r\n    modifier onlyAllowedUser(address user){require(users[user].status==accountStatus.Active); _;}\r\n    modifier onlyActiveDweet(uint id){require(dweets[id].status==cdStatus.Active); _;}\r\n    modifier onlyActiveComment(uint id){require(comments[id].status==cdStatus.Active); _;}\r\n    modifier usernameTaken(string memory username){require(!usernames[username]); _;}\r\n // modifier checkUserExists(){require(registeredUser[msg.sender]); _;}\r\n    modifier checkUserNotExists(address user){require(users[user].status==accountStatus.NP); _;}\r\n\r\n    \r\n    event logRegisterUser(address user, uint id);\r\n    event logUserBanned(address user, uint id);\r\n    event logDweetCreated(address author, uint userid, uint dweetid, string hashtag);\r\n    event logDweetDeleted(uint id, string hashtag);\r\n    // event logCommentBanned(uint id, string hashtag);\r\n    \r\n    constructor() public {\r\n        owner=msg.sender;\r\n        addMaintainer(msg.sender);\r\n    }\r\n        \r\n/*\r\n**************************************USER FUNCTIONS********************************************************************************\r\n*/\r\n\r\n    /// @notice Check username available or not\r\n    /// @param  _username username to Check\r\n    /// @return status true or false\r\n    function usernameAvailable(string memory _username) public view returns(bool status){\r\n        return !usernames[_username];\r\n    }\r\n    \r\n    /// @notice Register a new user\r\n    /// @param  _username username of username\r\n    /// @param _name name of person\r\n    /// @param _imgHash Ipfs Hash of users Profile Image\r\n    /// @param _coverHash Ipfs Hash of user cover Image\r\n    /// @param _bio Biography of user\r\n    function registerUser(string memory _username, string memory _name, string memory _imgHash, string memory _coverHash, string memory _bio ) public stopInEmergency checkUserNotExists(msg.sender) usernameTaken(_username){\r\n        usernames[_username]=true;// Attack Prevented\r\n        users[msg.sender]=User(++totalUsers, msg.sender, _username, _name, _imgHash, _coverHash, _bio, accountStatus.Active);\r\n        userAddressFromUsername[_username]=msg.sender;\r\n        emit logRegisterUser(msg.sender, totalUsers);\r\n    }\r\n    \r\n    /// @notice Check accountStatus of user-Registered, Banned or Deleted\r\n    /// @return status NP, Active, Banned or Deleted\r\n    function userStatus() public view returns(accountStatus status){\r\n        return users[msg.sender].status;\r\n    }\r\n    \r\n    /// @notice Change username of a user\r\n    /// @param _username New username of user\r\n    function changeUsername(string memory _username) public stopInEmergency onlyAllowedUser(msg.sender) usernameTaken(_username){\r\n        users[msg.sender].username=_username;\r\n    }\r\n    \r\n    /// @notice Get user details\r\n    /// @return id Id of user\r\n    /// @return username username of person\r\n    /// @return name Name of user\r\n    /// @return imghash user profile image ipfs hash\r\n    /// @return coverhash usercCover image ipfs hash\r\n    /// @return bio Biography of user\r\n    function getUser() public view returns(uint id, string memory username, string memory name, string memory imghash, string memory coverhash, string memory bio){\r\n        return(users[msg.sender].id,users[msg.sender].username, users[msg.sender].name, users[msg.sender].profileImgHash, users[msg.sender].profileCoverImgHash, users[msg.sender].bio);\r\n    }\r\n    \r\n    /// @notice Get user details\r\n    /// @param _user address of user\r\n    /// @return id Id of user\r\n    /// @return username username of person\r\n    /// @return name Name of user\r\n    /// @return imghash user profile image ipfs hash\r\n    /// @return coverhash usercCover image ipfs hash\r\n    /// @return bio Biography of user\r\n    function getUser(address _user) public view returns(uint id, string memory username, string memory name, string memory imghash, string memory coverhash, string memory bio){\r\n        return(users[_user].id,users[_user].username, users[_user].name, users[_user].profileImgHash, users[_user].profileCoverImgHash, users[_user].bio);\r\n    }\r\n    \r\n    /// @notice Ban user Internal Function\r\n    /// @param  _user address of user\r\n    function banUser(address _user) internal onlyAllowedUser(_user) onlyMaintainer {\r\n        delete users[_user];\r\n        users[_user].status=accountStatus.Banned;\r\n        emit logUserBanned(msg.sender, users[_user].id);\r\n    }\r\n\r\n/*\r\n**************************************DWEET FUNCTIONS***********************************************************\r\n*/      \r\n    /// @notice Create a new dweet\r\n    ///@param _hashtag hashtag of dweet ex. #ethereum\r\n    ///@param _content content of dweet to show\r\n    ///@param _imghash Image type content ipfs hash\r\n    function createDweet(string memory _hashtag, string memory _content, string memory _imghash) public stopInEmergency onlyAllowedUser(msg.sender) {\r\n        uint id=++totalDweets;\r\n        dweets[id]=Dweet(id, msg.sender, _hashtag, _content, _imghash, block.timestamp , 0, 0, cdStatus.Active);\r\n        userDweets[msg.sender].push(totalDweets);\r\n        emit logDweetCreated(msg.sender, users[msg.sender].id, totalDweets, _hashtag);\r\n    }\r\n    \r\n    /// @notice Ban Dweet Internal Function\r\n    /// @param  _id Id of dweet\r\n    function banDweet(uint _id) internal{\r\n        emit logDweetBanned(_id, dweets[_id].hashtag, maintainerId[msg.sender]);\r\n        delete dweets[_id];\r\n        dweets[_id].status=cdStatus.Banned;\r\n        for(uint i=0;i<dweetComments[_id].length;i++){\r\n            delete dweetComments[_id][i];\r\n        }\r\n        delete dweetComments[_id];\r\n    }\r\n    \r\n    /// @notice Edit a dweet \r\n    /// @param  _id Id of dweet\r\n    /// @param  _hashtag New tag of dweet\r\n    /// @param  _content New content of dweet\r\n    /// @param  _imghash Hash of new image content\r\n    function editDweet(uint _id, string memory _hashtag, string memory _content, string memory _imghash) public stopInEmergency onlyActiveDweet(_id)\r\n    onlyAllowedUser(msg.sender) onlyDweetAuthor(_id) {\r\n        dweets[_id].hashtag=_hashtag;\r\n        dweets[_id].content=_content;\r\n        dweets[_id].imgHash=_imghash;\r\n    }\r\n    \r\n    /// @notice Delete a dweet\r\n    /// @param  _id Id of dweet\r\n    function deleteDweet(uint _id) public onlyActiveDweet(_id) onlyAllowedUser(msg.sender) stopInEmergency onlyDweetAuthor(_id){\r\n        emit logDweetDeleted(_id, dweets[_id].hashtag);\r\n        delete dweets[_id];\r\n        dweets[_id].status=cdStatus.Deleted;\r\n        for(uint i=0;i<dweetComments[_id].length;i++){\r\n            delete dweetComments[_id][i];\r\n        }\r\n        delete dweetComments[_id];\r\n    }\r\n    \r\n    /// @notice Get a Dweet\r\n    /// @param  _id Id of dweet\r\n    /// @return author Dweet author address \r\n    /// @return  hashtag Tag of dweet\r\n    /// @return  content Content of dweet\r\n    /// @return  imgHash Hash of image content\r\n    /// @return  timestamp Dweet creation timestamp\r\n    /// @return  likeCount No of likes on dweet\r\n    function getDweet(uint _id) public onlyAllowedUser(msg.sender) onlyActiveDweet(_id) view returns ( address author, string memory hashtag, string memory content, string memory imgHash, uint timestamp, uint likeCount ){\r\n        return (dweets[_id].author, dweets[_id].hashtag, dweets[_id].content, dweets[_id].imgHash, dweets[_id].timestamp, dweets[_id].likeCount);\r\n    }\r\n    \r\n    /// @notice Like a dweets\r\n    /// @param _id Id of dweet to be likeDweet\r\n    function likeDweet(uint _id) public onlyAllowedUser(msg.sender) onlyActiveDweet(_id){\r\n        require(!dweetLikers[_id][msg.sender]);\r\n        dweets[_id].likeCount++;\r\n        dweetLikers[_id][msg.sender]=true;\r\n    }\r\n    \r\n    /// @notice Get list of dweets done by a user\r\n    /// @return dweetList Array of dweet ids\r\n    function getUserDweets() public view onlyAllowedUser(msg.sender) returns(uint[] memory dweetList){\r\n        return userDweets[msg.sender];\r\n    }\r\n    \r\n    /// @notice Get list of dweets done by a user\r\n    /// @param _user User address\r\n    /// @return dweetList Array of dweet ids\r\n    function getUserDweets(address _user) public view onlyAllowedUser(msg.sender) returns(uint[] memory dweetList){\r\n        return userDweets[_user];\r\n    }\r\n\r\n/*\r\n**************************************COMMENT FUNCTIONS*************************************************************************\r\n*/ \r\n    /// @notice Create a comment on dweet\r\n    /// @param  _dweetid Id of dweetList\r\n    /// @param  _comment content of comment\r\n    function createComment(uint _dweetid, string memory _comment) public stopInEmergency onlyAllowedUser(msg.sender)  onlyActiveDweet(_dweetid){\r\n        uint id=++totalComments;\r\n        comments[id]=Comment(id, msg.sender, _dweetid, _comment, 0, block.timestamp, cdStatus.Active);\r\n        userComments[msg.sender].push(totalComments);\r\n        dweetComments[_dweetid].push(totalComments);\r\n    }\r\n    \r\n    // function banComment(uint _id) internal {\r\n    //     emit logCommentBanned(_id, dweets[comments[_id].dweetId].hashtag);\r\n    //     delete comments[_id];\r\n    //     comments[_id].status=cdStatus.Banned;\r\n    // }\r\n    \r\n    \r\n    /// @notice Get list of dweets done by a user\r\n    /// @param  _commentid Id of comments\r\n    /// @param  _comment New content of comment\r\n    function editComment(uint _commentid, string memory _comment) public stopInEmergency onlyAllowedUser(msg.sender)  onlyActiveComment(_commentid) onlyCommentAuthor(_commentid){\r\n        comments[_commentid].content=_comment;\r\n    }\r\n    \r\n    /// @notice Delete a comment\r\n    /// @param _id Id of comment to be Deleted\r\n    function deleteComment(uint _id) public stopInEmergency onlyActiveComment(_id) onlyAllowedUser(msg.sender) onlyCommentAuthor(_id) {\r\n        delete comments[_id];\r\n        comments[_id].status=cdStatus.Deleted;\r\n    }\r\n    \r\n    /// @notice Get a comment\r\n    /// @param  _id Id of comment\r\n    /// @return author Address of author\r\n    /// @return dweetId Id of dweet \r\n    /// @return content content of comment\r\n    /// @return likeCount Likes on commment\r\n    /// @return timestamp Comment creation timestamp\r\n    /// @return status status of Comment active-banned-deleted\r\n    function getComment(uint _id) public view onlyAllowedUser(msg.sender) onlyActiveComment(_id) returns(address author, uint dweetId, string memory content, uint likeCount, uint timestamp, cdStatus status){\r\n        return(comments[_id].author, comments[_id].dweetId, comments[_id].content, comments[_id].likeCount, comments[_id].timestamp, comments[_id].status);\r\n    }\r\n    \r\n    /// @notice Get comments done by user\r\n    /// @return commentList Array of comment ids\r\n    /// @dev Though onlyAllowedUser can be bypassed easily but still keeping for calls from frontend \r\n    function getUserComments() public view onlyAllowedUser(msg.sender) returns(uint[] memory commentList){\r\n        return userComments[msg.sender];\r\n    }\r\n    \r\n    /// @notice Get comments done by user\r\n    /// @param _user address of user\r\n    /// @return commentList Array of comment ids\r\n    function getUserComments(address _user) public view onlyAllowedUser(msg.sender) returns(uint[] memory commentList){\r\n        return userComments[_user];\r\n    }\r\n    \r\n    /// @notice Get comments on a dweet\r\n    /// @return list Array of comment ids\r\n    function getDweetComments(uint _id) public view onlyAllowedUser(msg.sender) onlyActiveDweet(_id) returns(uint[] memory list){\r\n        return(dweetComments[_id]);\r\n    }\r\n        \r\n/*\r\n**********************************Reporting And Maintanining*****************************************************************************************\r\n*/\r\n    uint public totalMaintainers=0;\r\n    uint[] private dweetsReportedList;// List of ids of reported dweets\r\n    uint private noOfReportsRequired=1;// No of reports required to term a dweet reported and send for action\r\n    uint public reportingstakePrice=1936458778290500;// Stake amount to pay while reporting\r\n    uint public reportingRewardPrice=3872917556581000;// Reward of correct reporting\r\n      \r\n    mapping(address=>bool) public isMaintainer;\r\n    mapping(address=>uint) private maintainerId;\r\n    mapping(uint=>mapping(address=>bool)) private dweetReporters; // Mapping to track who reported which dweet\r\n    mapping(uint=>reportAction) private actionOnDweet;// What is the ction on dweet done by maintainers\r\n    mapping(address=>uint[]) public userReportList;// Ids of dweets reported by a user\r\n    //mapping(address=>uint) private userRewards;\r\n    mapping(address=>uint) private fakeReportingReward;// Reward a user get when somebody do a fake reporting against that user\r\n    mapping(uint=>mapping(address=>userdweetReportingStatus)) private claimedReward;//To check whether user has claimed reward for a particular reporting\r\n      \r\n    enum userdweetReportingStatus{NP, Reported, Claimed}\r\n    enum reportAction{NP, Banned, Free}\r\n    \r\n    modifier onlyMaintainer(){\r\n        require(isMaintainer[msg.sender]);\r\n        _;\r\n    }\r\n    \r\n    modifier paidEnoughforReporter() { require(msg.value >= reportingstakePrice); _;}\r\n        \r\n    modifier checkValueforReporter() {\r\n        _;\r\n        uint amountToRefund = msg.value - reportingstakePrice;\r\n        msg.sender.transfer(amountToRefund);\r\n    }\r\n      \r\n    /// @notice Add a maintainer to the platform\r\n    /// @param _user Address of user to be added as maintainer\r\n    function addMaintainer(address _user) public onlyOwner {\r\n        isMaintainer[_user]=true;\r\n        maintainerId[msg.sender]=++totalMaintainers;\r\n    }\r\n     \r\n    /// @notice Remove a maintainer \r\n    /// @param _user Address of user to be removed from maintainer  \r\n    function revokeMaintainer(address _user) public onlyOwner{\r\n        isMaintainer[_user]=false;\r\n    }\r\n      \r\n    event logDweetReported(uint id, string hashtag);\r\n    event logDweetBanned(uint id, string hashtag, uint maintainer); // To track how many dweets were banned to specific hashtag\r\n    event logDweetFreed(uint id, string hashtag, uint maintainer); // To track how many dweets were banned to specific hashtag\r\n    \r\n    /// @notice Report a dweet\r\n    /// @param _dweetId Id of the dweet to be reported\r\n    function reportDweet(uint _dweetId) public payable onlyActiveDweet(_dweetId) onlyAllowedUser(msg.sender) paidEnoughforReporter checkValueforReporter{\r\n        require(dweets[_dweetId].reportCount<=noOfReportsRequired);\r\n        require(!dweetReporters[_dweetId][msg.sender]);\r\n        dweetReporters[_dweetId][msg.sender]=true;//Reentracy attack Prevented\r\n        userReportList[msg.sender].push(_dweetId);\r\n        claimedReward[_dweetId][msg.sender]=userdweetReportingStatus.Reported;\r\n        uint reports=++dweets[_dweetId].reportCount;\r\n        if(reports==noOfReportsRequired){\r\n          dweetsReportedList.push(_dweetId);\r\n          emit logDweetReported(_dweetId, dweets[_dweetId].hashtag);\r\n        }\r\n    }\r\n    \r\n    /// @notice Take action on a reported dweets\r\n    /// @param _dweetId Id of dweets\r\n    /// @param _action ban or free, true or false\r\n    function takeAction(uint _dweetId, bool _action) public onlyMaintainer onlyActiveDweet(_dweetId) onlyAllowedUser(msg.sender){\r\n        require(actionOnDweet[_dweetId]==reportAction.NP);\r\n        if(_action){\r\n          actionOnDweet[_dweetId]=reportAction.Banned;\r\n          banDweet(_dweetId);\r\n        }else{\r\n          actionOnDweet[_dweetId]=reportAction.Free;\r\n          fakeReportingReward[dweets[_dweetId].author]+=reportingstakePrice.mul(noOfReportsRequired);\r\n          emit logDweetFreed(_dweetId, dweets[_dweetId].hashtag, maintainerId[msg.sender]);\r\n        }\r\n    }\r\n      \r\n    /// @notice Claim right reporting reward\r\n    /// @param _id Id of dweet on which reward is to be claimed  \r\n    function claimReportingReward(uint _id) public onlyAllowedUser(msg.sender){\r\n        require(claimedReward[_id][msg.sender]==userdweetReportingStatus.Reported);\r\n        require(userReportList[msg.sender].length>0);\r\n        require(actionOnDweet[_id]==reportAction.Banned);\r\n        claimedReward[_id][msg.sender]=userdweetReportingStatus.Claimed;//Reentracy Prevented\r\n        msg.sender.transfer(reportingRewardPrice);\r\n    }\r\n    \r\n    /// @notice Claim fake reporting reward(suit)\r\n    function claimSuitReward()public onlyAllowedUser(msg.sender){\r\n        require(fakeReportingReward[msg.sender]>0);\r\n        uint amount=fakeReportingReward[msg.sender];\r\n        fakeReportingReward[msg.sender]=0;//Attack Prevented\r\n        msg.sender.transfer(amount);\r\n    }\r\n    \r\n    /// @notice To get list of reportings done by a user\r\n    /// @param list Array of dweet Ids reported by user\r\n    function myReportings() public view onlyAllowedUser(msg.sender) returns(uint[] memory list){\r\n        return userReportList[msg.sender];\r\n    }\r\n    \r\n    //   function myReportingReward() public view onlyAllowedUser(msg.sender) returns(uint balance){\r\n    //       return userRewards[msg.sender];\r\n    //   }\r\n    \r\n    /// @notice To get claim status of reporting\r\n    /// @param _id Id of dweetsReportedList\r\n    /// @return status status of claim reported or claimed\r\n    function reportingClaimStatus(uint _id) public view onlyAllowedUser(msg.sender) returns(userdweetReportingStatus status){\r\n        return claimedReward[_id][msg.sender];\r\n    }\r\n    \r\n    /// @notice To get fake reporting reward balance\r\n    /// @return balance reward balance of user\r\n    function fakeReportingSuitReward() public view onlyAllowedUser(msg.sender) returns(uint balance){\r\n        return fakeReportingReward[msg.sender];\r\n    }\r\n    \r\n    /// @notice To get list of reported dweets on the platform\r\n    /// @return list Array of reported dweet ids\r\n    function getReportedDweets() public view onlyAllowedUser(msg.sender) returns(uint[] memory list){\r\n        return(dweetsReportedList);\r\n    }\r\n    \r\n    /// @notice Get action status of reporting on a dweet\r\n    /// @param _dweetId Id of dweet\r\n    /// @return status status of action NP-BAN_FREE\r\n    function getReportedDweetStatus(uint _dweetId) public view onlyAllowedUser(msg.sender) returns(reportAction status){\r\n        return(actionOnDweet[_dweetId]);\r\n    }\r\n    \r\n/*\r\n*******************************************Advertisement **************************************************************\r\n*/\r\n    uint public advertisementCost=96822938914524992;\r\n    uint public totalAdvertisements=0;\r\n    uint[] private advertisementsList;\r\n    \r\n    enum AdApprovalStatus{NP, Approved, Rejected}\r\n    \r\n    struct Advertisement{\r\n        uint id;\r\n        address advertiser;\r\n        string imgHash;\r\n        string link;\r\n        AdApprovalStatus status;// Advertisement Approve or Rejected\r\n        uint expiry; //timestamp to put expiry of Advertisement\r\n    }\r\n    \r\n    modifier paidEnoughforAdvertisement() { require(msg.value >= advertisementCost); _;}\r\n    modifier checkValueforAdvertisement() {\r\n        _;\r\n        uint amountToRefund = msg.value - advertisementCost;\r\n        msg.sender.transfer(amountToRefund);\r\n    }\r\n    \r\n    mapping(address=>uint[]) public advertiserAdvertisementsList;\r\n    mapping(uint=>Advertisement) private advertisements;\r\n    \r\n    event logAdvertisementApproved(uint id, uint maintainer);\r\n    event logAdvertisementRejected(uint id, uint maintainer);\r\n    \r\n    \r\n    /// @notice Submit a new advertisement\r\n    /// @param _imgHash Ipfs hash of image to be shown as advertisement\r\n    /// @param _link Href link for the advertisement\r\n    function submitAdvertisement(string memory _imgHash, string memory _link) public payable onlyAllowedUser(msg.sender) paidEnoughforAdvertisement checkValueforAdvertisement{\r\n        uint id=++totalAdvertisements;\r\n        advertisements[id]=Advertisement(id, msg.sender, _imgHash, _link, AdApprovalStatus.NP, 0);\r\n        advertisementsList.push(id);\r\n        advertiserAdvertisementsList[msg.sender].push(id);\r\n    }\r\n    \r\n    /// @notice Approve or reject advertisements\r\n    /// @param _id Id of advertisement\r\n    /// @param _decision Approval decision Accepted or Rejected, true or false\r\n    function advertisementApproval(uint _id, bool _decision) public onlyMaintainer{\r\n        require(advertisements[_id].status==AdApprovalStatus.NP);\r\n        if(_decision){\r\n            advertisements[_id].status=AdApprovalStatus.Approved;\r\n            advertisements[_id].expiry=block.timestamp+ 1 days;\r\n            emit logAdvertisementApproved(_id,maintainerId[msg.sender]);\r\n        }else{\r\n            advertisements[_id].status=AdApprovalStatus.Rejected;\r\n            uint refund=advertisementCost.mul(8).div(100);\r\n            msg.sender.transfer(refund);\r\n            emit logAdvertisementRejected(_id,maintainerId[msg.sender]);\r\n        }\r\n    }\r\n    \r\n    /// @notice Get all ads submitted on platform\r\n    /// @return list Array of advertisement ids\r\n    function getAds() public view onlyAllowedUser(msg.sender) returns(uint[] memory list){\r\n        return(advertisementsList);\r\n    }\r\n    \r\n    /// @notice Get details of a advertisement\r\n    /// @param _id Id of advertisement\r\n    /// @return advertiser address of advertiser\r\n    /// @return imgHash Ipfs hash of advertisement image\r\n    /// @return link Href link of advertisement\r\n    /// @return status Approval status of advertisements\r\n    /// @return expiry advertisement expiry timestamp\r\n    function getAd(uint _id) public view onlyAllowedUser(msg.sender) returns(address advertiser, string memory imgHash, string memory link, AdApprovalStatus status, uint expiry){\r\n        return(advertisements[_id].advertiser, advertisements[_id].imgHash, advertisements[_id].link, advertisements[_id].status, advertisements[_id].expiry);\r\n    }\r\n    \r\n    /// @notice Get advertisement done by user\r\n    /// @return list Array of advertisement ids\r\n    function myAdvertisements() public view onlyAllowedUser(msg.sender) returns(uint[] memory list){\r\n        return(advertiserAdvertisementsList[msg.sender]);\r\n    }\r\n    \r\n    /// @notice Status of a advertisement\r\n    /// @param _id Id of advertisement\r\n    /// @return status Approval status accepted or rejected \r\n    function getAdvertisementStatus(uint _id) public view onlyAllowedUser(msg.sender) returns(AdApprovalStatus status){\r\n        return advertisements[_id].status;\r\n    }\r\n\r\n/*\r\n****************************************Owner Admin ******************************************************************************************\r\n*/\r\n    /// @notice Get balance of contract \r\n    /// @return balance balance of contract\r\n    function getBalance()public view onlyOwner() returns(uint balance){\r\n        return address(this).balance;\r\n    }\r\n    \r\n    /// @notice Withdraw contract funds to owner\r\n    /// @param _amount Amount to be withdrawn\r\n    function transferContractBalance(uint _amount)public onlyOwner{\r\n        require(_amount<=address(this).balance);\r\n        msg.sender.transfer(_amount);\r\n    }\r\n    \r\n    function stopDapp() public onlyOwner{\r\n        require(!stopped);\r\n        stopped=true;\r\n    }\r\n    \r\n    function startDapp() public onlyOwner{\r\n        require(stopped);\r\n        stopped=false;\r\n    }\r\n    \r\n    \r\n}",
  "sourcePath": "C:/Users/MOHITBHAT/Desktop/MYPERSONAL/CONSENSYS_ACADEMY_COURSE/PROJECT/Decentralized_Social_Media/contracts/dwitter.sol",
  "compiler": {
    "name": "solc",
    "version": "0.6.1+commit.e6f7d5a4.Emscripten.clang"
  },
  "schemaVersion": "3.3.2",
  "updatedAt": "2020-12-30T06:40:34.981Z",
  "networkType": "ethereum",
  "devdoc": {
    "author": "Mohit Bhat",
    "details": "Most of the features are implemented keeping note of security concerns",
    "methods": {
      "addMaintainer(address)": {
        "params": {
          "_user": "Address of user to be added as maintainer"
        }
      },
      "advertisementApproval(uint256,bool)": {
        "params": {
          "_decision": "Approval decision Accepted or Rejected, true or false",
          "_id": "Id of advertisement"
        }
      },
      "changeUsername(string)": {
        "params": {
          "_username": "New username of user"
        }
      },
      "claimReportingReward(uint256)": {
        "params": {
          "_id": "Id of dweet on which reward is to be claimed  "
        }
      },
      "createComment(uint256,string)": {
        "params": {
          "_comment": "content of comment",
          "_dweetid": "Id of dweetList"
        }
      },
      "createDweet(string,string,string)": {
        "params": {
          "_content": "content of dweet to show",
          "_hashtag": "hashtag of dweet ex. #ethereum",
          "_imghash": "Image type content ipfs hash"
        }
      },
      "deleteComment(uint256)": {
        "params": {
          "_id": "Id of comment to be Deleted"
        }
      },
      "deleteDweet(uint256)": {
        "params": {
          "_id": "Id of dweet"
        }
      },
      "editComment(uint256,string)": {
        "params": {
          "_comment": "New content of comment",
          "_commentid": "Id of comments"
        }
      },
      "editDweet(uint256,string,string,string)": {
        "params": {
          "_content": "New content of dweet",
          "_hashtag": "New tag of dweet",
          "_id": "Id of dweet",
          "_imghash": "Hash of new image content"
        }
      },
      "getAd(uint256)": {
        "params": {
          "_id": "Id of advertisement"
        },
        "returns": {
          "advertiser": "address of advertiser",
          "expiry": "advertisement expiry timestamp",
          "imgHash": "Ipfs hash of advertisement image",
          "link": "Href link of advertisement",
          "status": "Approval status of advertisements"
        }
      },
      "getAdvertisementStatus(uint256)": {
        "params": {
          "_id": "Id of advertisement"
        },
        "returns": {
          "status": "Approval status accepted or rejected "
        }
      },
      "getComment(uint256)": {
        "params": {
          "_id": "Id of comment"
        },
        "returns": {
          "author": "Address of author",
          "content": "content of comment",
          "dweetId": "Id of dweet ",
          "likeCount": "Likes on commment",
          "status": "status of Comment active-banned-deleted",
          "timestamp": "Comment creation timestamp"
        }
      },
      "getDweet(uint256)": {
        "params": {
          "_id": "Id of dweet"
        },
        "returns": {
          "author": "Dweet author address ",
          "content": "Content of dweet",
          "hashtag": "Tag of dweet",
          "imgHash": "Hash of image content",
          "likeCount": "No of likes on dweet",
          "timestamp": "Dweet creation timestamp"
        }
      },
      "getReportedDweetStatus(uint256)": {
        "params": {
          "_dweetId": "Id of dweet"
        },
        "returns": {
          "status": "status of action NP-BAN_FREE"
        }
      },
      "getUser(address)": {
        "params": {
          "_user": "address of user"
        },
        "returns": {
          "bio": "Biography of user",
          "coverhash": "usercCover image ipfs hash",
          "id": "Id of user",
          "imghash": "user profile image ipfs hash",
          "name": "Name of user",
          "username": "username of person"
        }
      },
      "getUserComments()": {
        "details": "Though onlyAllowedUser can be bypassed easily but still keeping for calls from frontend ",
        "returns": {
          "commentList": "Array of comment ids"
        }
      },
      "getUserComments(address)": {
        "params": {
          "_user": "address of user"
        },
        "returns": {
          "commentList": "Array of comment ids"
        }
      },
      "getUserDweets(address)": {
        "params": {
          "_user": "User address"
        },
        "returns": {
          "dweetList": "Array of dweet ids"
        }
      },
      "likeDweet(uint256)": {
        "params": {
          "_id": "Id of dweet to be likeDweet"
        }
      },
      "myReportings()": {
        "params": {
          "list": "Array of dweet Ids reported by user"
        }
      },
      "registerUser(string,string,string,string,string)": {
        "params": {
          "_bio": "Biography of user",
          "_coverHash": "Ipfs Hash of user cover Image",
          "_imgHash": "Ipfs Hash of users Profile Image",
          "_name": "name of person",
          "_username": "username of username"
        }
      },
      "reportDweet(uint256)": {
        "params": {
          "_dweetId": "Id of the dweet to be reported"
        }
      },
      "reportingClaimStatus(uint256)": {
        "params": {
          "_id": "Id of dweetsReportedList"
        },
        "returns": {
          "status": "status of claim reported or claimed"
        }
      },
      "revokeMaintainer(address)": {
        "params": {
          "_user": "Address of user to be removed from maintainer  "
        }
      },
      "submitAdvertisement(string,string)": {
        "params": {
          "_imgHash": "Ipfs hash of image to be shown as advertisement",
          "_link": "Href link for the advertisement"
        }
      },
      "takeAction(uint256,bool)": {
        "params": {
          "_action": "ban or free, true or false",
          "_dweetId": "Id of dweets"
        }
      },
      "transferContractBalance(uint256)": {
        "params": {
          "_amount": "Amount to be withdrawn"
        }
      },
      "usernameAvailable(string)": {
        "params": {
          "_username": "username to Check"
        },
        "returns": {
          "status": "true or false"
        }
      }
    },
    "title": "A Decentralised Social Media Platform"
  },
  "userdoc": {
    "methods": {
      "addMaintainer(address)": {
        "notice": "Add a maintainer to the platform"
      },
      "advertisementApproval(uint256,bool)": {
        "notice": "Approve or reject advertisements"
      },
      "changeUsername(string)": {
        "notice": "Change username of a user"
      },
      "claimReportingReward(uint256)": {
        "notice": "Claim right reporting reward"
      },
      "claimSuitReward()": {
        "notice": "Claim fake reporting reward(suit)"
      },
      "createComment(uint256,string)": {
        "notice": "Create a comment on dweet"
      },
      "createDweet(string,string,string)": {
        "notice": "Create a new dweet"
      },
      "deleteComment(uint256)": {
        "notice": "Delete a comment"
      },
      "deleteDweet(uint256)": {
        "notice": "Delete a dweet"
      },
      "editComment(uint256,string)": {
        "notice": "Get list of dweets done by a user"
      },
      "editDweet(uint256,string,string,string)": {
        "notice": "Edit a dweet "
      },
      "fakeReportingSuitReward()": {
        "notice": "To get fake reporting reward balance"
      },
      "getAd(uint256)": {
        "notice": "Get details of a advertisement"
      },
      "getAds()": {
        "notice": "Get all ads submitted on platform"
      },
      "getAdvertisementStatus(uint256)": {
        "notice": "Status of a advertisement"
      },
      "getBalance()": {
        "notice": "Get balance of contract "
      },
      "getComment(uint256)": {
        "notice": "Get a comment"
      },
      "getDweet(uint256)": {
        "notice": "Get a Dweet"
      },
      "getDweetComments(uint256)": {
        "notice": "Get comments on a dweet"
      },
      "getReportedDweetStatus(uint256)": {
        "notice": "Get action status of reporting on a dweet"
      },
      "getReportedDweets()": {
        "notice": "To get list of reported dweets on the platform"
      },
      "getUser()": {
        "notice": "Get user details"
      },
      "getUser(address)": {
        "notice": "Get user details"
      },
      "getUserComments()": {
        "notice": "Get comments done by user"
      },
      "getUserComments(address)": {
        "notice": "Get comments done by user"
      },
      "getUserDweets()": {
        "notice": "Get list of dweets done by a user"
      },
      "getUserDweets(address)": {
        "notice": "Get list of dweets done by a user"
      },
      "likeDweet(uint256)": {
        "notice": "Like a dweets"
      },
      "myAdvertisements()": {
        "notice": "Get advertisement done by user"
      },
      "myReportings()": {
        "notice": "To get list of reportings done by a user"
      },
      "registerUser(string,string,string,string,string)": {
        "notice": "Register a new user"
      },
      "reportDweet(uint256)": {
        "notice": "Report a dweet"
      },
      "reportingClaimStatus(uint256)": {
        "notice": "To get claim status of reporting"
      },
      "revokeMaintainer(address)": {
        "notice": "Remove a maintainer "
      },
      "submitAdvertisement(string,string)": {
        "notice": "Submit a new advertisement"
      },
      "takeAction(uint256,bool)": {
        "notice": "Take action on a reported dweets"
      },
      "transferContractBalance(uint256)": {
        "notice": "Withdraw contract funds to owner"
      },
      "userStatus()": {
        "notice": "Check accountStatus of user-Registered, Banned or Deleted"
      },
      "usernameAvailable(string)": {
        "notice": "Check username available or not"
      }
    },
    "notice": "You can use this contract to connect to decentralised social network, share your content to the world in a decentralised way!"
  }
}