{
  "contractName": "Dwitter",
  "abi": [
    {
      "inputs": [],
      "stateMutability": "nonpayable",
      "type": "constructor"
    },
    {
      "anonymous": false,
      "inputs": [
        {
          "indexed": false,
          "internalType": "uint256",
          "name": "id",
          "type": "uint256"
        },
        {
          "indexed": false,
          "internalType": "string",
          "name": "hashtag",
          "type": "string"
        }
      ],
      "name": "logCommentBanned",
      "type": "event"
    },
    {
      "anonymous": false,
      "inputs": [
        {
          "indexed": false,
          "internalType": "uint256",
          "name": "id",
          "type": "uint256"
        },
        {
          "indexed": false,
          "internalType": "string",
          "name": "hashtag",
          "type": "string"
        }
      ],
      "name": "logDweetBanned",
      "type": "event"
    },
    {
      "anonymous": false,
      "inputs": [
        {
          "indexed": false,
          "internalType": "address",
          "name": "author",
          "type": "address"
        },
        {
          "indexed": false,
          "internalType": "uint256",
          "name": "userid",
          "type": "uint256"
        },
        {
          "indexed": false,
          "internalType": "uint256",
          "name": "dweetid",
          "type": "uint256"
        },
        {
          "indexed": false,
          "internalType": "string",
          "name": "hashtag",
          "type": "string"
        }
      ],
      "name": "logDweetCreated",
      "type": "event"
    },
    {
      "anonymous": false,
      "inputs": [
        {
          "indexed": false,
          "internalType": "uint256",
          "name": "id",
          "type": "uint256"
        },
        {
          "indexed": false,
          "internalType": "string",
          "name": "hashtag",
          "type": "string"
        }
      ],
      "name": "logDweetDeleted",
      "type": "event"
    },
    {
      "anonymous": false,
      "inputs": [
        {
          "indexed": false,
          "internalType": "uint256",
          "name": "id",
          "type": "uint256"
        },
        {
          "indexed": false,
          "internalType": "string",
          "name": "hashtag",
          "type": "string"
        }
      ],
      "name": "logDweetReported",
      "type": "event"
    },
    {
      "anonymous": false,
      "inputs": [
        {
          "indexed": false,
          "internalType": "address",
          "name": "user",
          "type": "address"
        },
        {
          "indexed": false,
          "internalType": "uint256",
          "name": "id",
          "type": "uint256"
        }
      ],
      "name": "logRegisterUser",
      "type": "event"
    },
    {
      "anonymous": false,
      "inputs": [
        {
          "indexed": false,
          "internalType": "address",
          "name": "user",
          "type": "address"
        },
        {
          "indexed": false,
          "internalType": "uint256",
          "name": "id",
          "type": "uint256"
        }
      ],
      "name": "logUserBanned",
      "type": "event"
    },
    {
      "inputs": [],
      "name": "advertisementCost",
      "outputs": [
        {
          "internalType": "uint256",
          "name": "",
          "type": "uint256"
        }
      ],
      "stateMutability": "view",
      "type": "function",
      "constant": true
    },
    {
      "inputs": [
        {
          "internalType": "address",
          "name": "",
          "type": "address"
        },
        {
          "internalType": "uint256",
          "name": "",
          "type": "uint256"
        }
      ],
      "name": "advertiserAdvertisementsList",
      "outputs": [
        {
          "internalType": "uint256",
          "name": "",
          "type": "uint256"
        }
      ],
      "stateMutability": "view",
      "type": "function",
      "constant": true
    },
    {
      "inputs": [
        {
          "internalType": "address",
          "name": "",
          "type": "address"
        }
      ],
      "name": "isMaintainer",
      "outputs": [
        {
          "internalType": "bool",
          "name": "",
          "type": "bool"
        }
      ],
      "stateMutability": "view",
      "type": "function",
      "constant": true
    },
    {
      "inputs": [],
      "name": "owner",
      "outputs": [
        {
          "internalType": "address payable",
          "name": "",
          "type": "address"
        }
      ],
      "stateMutability": "view",
      "type": "function",
      "constant": true
    },
    {
      "inputs": [],
      "name": "reportingRewardPrice",
      "outputs": [
        {
          "internalType": "uint256",
          "name": "",
          "type": "uint256"
        }
      ],
      "stateMutability": "view",
      "type": "function",
      "constant": true
    },
    {
      "inputs": [],
      "name": "reportingstakePrice",
      "outputs": [
        {
          "internalType": "uint256",
          "name": "",
          "type": "uint256"
        }
      ],
      "stateMutability": "view",
      "type": "function",
      "constant": true
    },
    {
      "inputs": [],
      "name": "stopped",
      "outputs": [
        {
          "internalType": "bool",
          "name": "",
          "type": "bool"
        }
      ],
      "stateMutability": "view",
      "type": "function",
      "constant": true
    },
    {
      "inputs": [],
      "name": "totalAdvertisements",
      "outputs": [
        {
          "internalType": "uint256",
          "name": "",
          "type": "uint256"
        }
      ],
      "stateMutability": "view",
      "type": "function",
      "constant": true
    },
    {
      "inputs": [],
      "name": "totalComments",
      "outputs": [
        {
          "internalType": "uint256",
          "name": "",
          "type": "uint256"
        }
      ],
      "stateMutability": "view",
      "type": "function",
      "constant": true
    },
    {
      "inputs": [],
      "name": "totalDweets",
      "outputs": [
        {
          "internalType": "uint256",
          "name": "",
          "type": "uint256"
        }
      ],
      "stateMutability": "view",
      "type": "function",
      "constant": true
    },
    {
      "inputs": [],
      "name": "totalUsers",
      "outputs": [
        {
          "internalType": "uint256",
          "name": "",
          "type": "uint256"
        }
      ],
      "stateMutability": "view",
      "type": "function",
      "constant": true
    },
    {
      "inputs": [
        {
          "internalType": "address",
          "name": "",
          "type": "address"
        },
        {
          "internalType": "uint256",
          "name": "",
          "type": "uint256"
        }
      ],
      "name": "userReportList",
      "outputs": [
        {
          "internalType": "uint256",
          "name": "",
          "type": "uint256"
        }
      ],
      "stateMutability": "view",
      "type": "function",
      "constant": true
    },
    {
      "inputs": [
        {
          "internalType": "string",
          "name": "_username",
          "type": "string"
        }
      ],
      "name": "usernameAvailable",
      "outputs": [
        {
          "internalType": "bool",
          "name": "status",
          "type": "bool"
        }
      ],
      "stateMutability": "view",
      "type": "function",
      "constant": true
    },
    {
      "inputs": [
        {
          "internalType": "string",
          "name": "_username",
          "type": "string"
        },
        {
          "internalType": "string",
          "name": "_name",
          "type": "string"
        },
        {
          "internalType": "string",
          "name": "_imgHash",
          "type": "string"
        },
        {
          "internalType": "string",
          "name": "_coverHash",
          "type": "string"
        },
        {
          "internalType": "string",
          "name": "_bio",
          "type": "string"
        }
      ],
      "name": "registerUser",
      "outputs": [],
      "stateMutability": "nonpayable",
      "type": "function"
    },
    {
      "inputs": [],
      "name": "userStatus",
      "outputs": [
        {
          "internalType": "enum Dwitter.accountStatus",
          "name": "status",
          "type": "uint8"
        }
      ],
      "stateMutability": "view",
      "type": "function",
      "constant": true
    },
    {
      "inputs": [
        {
          "internalType": "string",
          "name": "_username",
          "type": "string"
        }
      ],
      "name": "changeUsername",
      "outputs": [],
      "stateMutability": "nonpayable",
      "type": "function"
    },
    {
      "inputs": [
        {
          "internalType": "address",
          "name": "_user",
          "type": "address"
        }
      ],
      "name": "getUser",
      "outputs": [
        {
          "internalType": "uint256",
          "name": "id",
          "type": "uint256"
        },
        {
          "internalType": "string",
          "name": "username",
          "type": "string"
        },
        {
          "internalType": "string",
          "name": "name",
          "type": "string"
        },
        {
          "internalType": "string",
          "name": "imghash",
          "type": "string"
        },
        {
          "internalType": "string",
          "name": "bio",
          "type": "string"
        }
      ],
      "stateMutability": "view",
      "type": "function",
      "constant": true
    },
    {
      "inputs": [],
      "name": "getUser",
      "outputs": [
        {
          "internalType": "uint256",
          "name": "id",
          "type": "uint256"
        },
        {
          "internalType": "string",
          "name": "username",
          "type": "string"
        },
        {
          "internalType": "string",
          "name": "name",
          "type": "string"
        },
        {
          "internalType": "string",
          "name": "imghash",
          "type": "string"
        },
        {
          "internalType": "string",
          "name": "coverhash",
          "type": "string"
        },
        {
          "internalType": "string",
          "name": "bio",
          "type": "string"
        }
      ],
      "stateMutability": "view",
      "type": "function",
      "constant": true
    },
    {
      "inputs": [
        {
          "internalType": "string",
          "name": "_hashtag",
          "type": "string"
        },
        {
          "internalType": "string",
          "name": "_content",
          "type": "string"
        },
        {
          "internalType": "string",
          "name": "_imghash",
          "type": "string"
        }
      ],
      "name": "createDweet",
      "outputs": [],
      "stateMutability": "nonpayable",
      "type": "function"
    },
    {
      "inputs": [
        {
          "internalType": "uint256",
          "name": "_id",
          "type": "uint256"
        },
        {
          "internalType": "string",
          "name": "_hashtag",
          "type": "string"
        },
        {
          "internalType": "string",
          "name": "_content",
          "type": "string"
        },
        {
          "internalType": "string",
          "name": "_imghash",
          "type": "string"
        }
      ],
      "name": "editDweet",
      "outputs": [],
      "stateMutability": "nonpayable",
      "type": "function"
    },
    {
      "inputs": [
        {
          "internalType": "uint256",
          "name": "_id",
          "type": "uint256"
        }
      ],
      "name": "deleteDweet",
      "outputs": [],
      "stateMutability": "nonpayable",
      "type": "function"
    },
    {
      "inputs": [
        {
          "internalType": "uint256",
          "name": "_id",
          "type": "uint256"
        }
      ],
      "name": "getDweet",
      "outputs": [
        {
          "internalType": "address",
          "name": "author",
          "type": "address"
        },
        {
          "internalType": "string",
          "name": "hashtag",
          "type": "string"
        },
        {
          "internalType": "string",
          "name": "content",
          "type": "string"
        },
        {
          "internalType": "string",
          "name": "imgHash",
          "type": "string"
        },
        {
          "internalType": "uint256",
          "name": "timestamp",
          "type": "uint256"
        },
        {
          "internalType": "uint256",
          "name": "likeCount",
          "type": "uint256"
        }
      ],
      "stateMutability": "view",
      "type": "function",
      "constant": true
    },
    {
      "inputs": [
        {
          "internalType": "uint256",
          "name": "_id",
          "type": "uint256"
        }
      ],
      "name": "likeDweet",
      "outputs": [],
      "stateMutability": "nonpayable",
      "type": "function"
    },
    {
      "inputs": [
        {
          "internalType": "address",
          "name": "_user",
          "type": "address"
        }
      ],
      "name": "getUserDweets",
      "outputs": [
        {
          "internalType": "uint256[]",
          "name": "dweetList",
          "type": "uint256[]"
        }
      ],
      "stateMutability": "view",
      "type": "function",
      "constant": true
    },
    {
      "inputs": [],
      "name": "getUserDweets",
      "outputs": [
        {
          "internalType": "uint256[]",
          "name": "dweetList",
          "type": "uint256[]"
        }
      ],
      "stateMutability": "view",
      "type": "function",
      "constant": true
    },
    {
      "inputs": [
        {
          "internalType": "uint256",
          "name": "_dweetid",
          "type": "uint256"
        },
        {
          "internalType": "string",
          "name": "_comment",
          "type": "string"
        }
      ],
      "name": "createComment",
      "outputs": [],
      "stateMutability": "nonpayable",
      "type": "function"
    },
    {
      "inputs": [
        {
          "internalType": "uint256",
          "name": "_commentid",
          "type": "uint256"
        },
        {
          "internalType": "string",
          "name": "_comment",
          "type": "string"
        }
      ],
      "name": "editComment",
      "outputs": [],
      "stateMutability": "nonpayable",
      "type": "function"
    },
    {
      "inputs": [
        {
          "internalType": "uint256",
          "name": "_id",
          "type": "uint256"
        }
      ],
      "name": "deleteComment",
      "outputs": [],
      "stateMutability": "nonpayable",
      "type": "function"
    },
    {
      "inputs": [
        {
          "internalType": "uint256",
          "name": "_id",
          "type": "uint256"
        }
      ],
      "name": "getComment",
      "outputs": [
        {
          "internalType": "address",
          "name": "author",
          "type": "address"
        },
        {
          "internalType": "uint256",
          "name": "dweetId",
          "type": "uint256"
        },
        {
          "internalType": "string",
          "name": "content",
          "type": "string"
        },
        {
          "internalType": "uint256",
          "name": "likeCount",
          "type": "uint256"
        },
        {
          "internalType": "uint256",
          "name": "timestamp",
          "type": "uint256"
        },
        {
          "internalType": "enum Dwitter.cdStatus",
          "name": "status",
          "type": "uint8"
        }
      ],
      "stateMutability": "view",
      "type": "function",
      "constant": true
    },
    {
      "inputs": [
        {
          "internalType": "address",
          "name": "_user",
          "type": "address"
        }
      ],
      "name": "getUserComments",
      "outputs": [
        {
          "internalType": "uint256[]",
          "name": "commentList",
          "type": "uint256[]"
        }
      ],
      "stateMutability": "view",
      "type": "function",
      "constant": true
    },
    {
      "inputs": [],
      "name": "getUserComments",
      "outputs": [
        {
          "internalType": "uint256[]",
          "name": "commentList",
          "type": "uint256[]"
        }
      ],
      "stateMutability": "view",
      "type": "function",
      "constant": true
    },
    {
      "inputs": [
        {
          "internalType": "uint256",
          "name": "_id",
          "type": "uint256"
        }
      ],
      "name": "getDweetComments",
      "outputs": [
        {
          "internalType": "uint256[]",
          "name": "list",
          "type": "uint256[]"
        }
      ],
      "stateMutability": "view",
      "type": "function",
      "constant": true
    },
    {
      "inputs": [
        {
          "internalType": "address",
          "name": "_user",
          "type": "address"
        }
      ],
      "name": "addMaintainer",
      "outputs": [],
      "stateMutability": "nonpayable",
      "type": "function"
    },
    {
      "inputs": [
        {
          "internalType": "uint256",
          "name": "_dweetId",
          "type": "uint256"
        }
      ],
      "name": "reportDweet",
      "outputs": [],
      "stateMutability": "payable",
      "type": "function",
      "payable": true
    },
    {
      "inputs": [
        {
          "internalType": "uint256",
          "name": "_dweetId",
          "type": "uint256"
        },
        {
          "internalType": "bool",
          "name": "_action",
          "type": "bool"
        }
      ],
      "name": "takeAction",
      "outputs": [],
      "stateMutability": "nonpayable",
      "type": "function"
    },
    {
      "inputs": [],
      "name": "claimReportingReward",
      "outputs": [],
      "stateMutability": "nonpayable",
      "type": "function"
    },
    {
      "inputs": [],
      "name": "getReportedDweets",
      "outputs": [
        {
          "internalType": "uint256[]",
          "name": "list",
          "type": "uint256[]"
        }
      ],
      "stateMutability": "view",
      "type": "function",
      "constant": true
    },
    {
      "inputs": [
        {
          "internalType": "uint256",
          "name": "_dweetId",
          "type": "uint256"
        }
      ],
      "name": "getReportedDweetStatus",
      "outputs": [
        {
          "internalType": "enum Dwitter.reportAction",
          "name": "status",
          "type": "uint8"
        }
      ],
      "stateMutability": "view",
      "type": "function",
      "constant": true
    },
    {
      "inputs": [
        {
          "internalType": "string",
          "name": "_imgHash",
          "type": "string"
        },
        {
          "internalType": "string",
          "name": "_link",
          "type": "string"
        }
      ],
      "name": "submitAdvertisement",
      "outputs": [],
      "stateMutability": "payable",
      "type": "function",
      "payable": true
    },
    {
      "inputs": [
        {
          "internalType": "uint256",
          "name": "_id",
          "type": "uint256"
        },
        {
          "internalType": "bool",
          "name": "_decision",
          "type": "bool"
        }
      ],
      "name": "advertisementApproval",
      "outputs": [],
      "stateMutability": "nonpayable",
      "type": "function"
    },
    {
      "inputs": [],
      "name": "getAds",
      "outputs": [
        {
          "internalType": "uint256[]",
          "name": "list",
          "type": "uint256[]"
        }
      ],
      "stateMutability": "view",
      "type": "function",
      "constant": true
    },
    {
      "inputs": [
        {
          "internalType": "uint256",
          "name": "_id",
          "type": "uint256"
        }
      ],
      "name": "getAd",
      "outputs": [
        {
          "internalType": "address",
          "name": "advertiser",
          "type": "address"
        },
        {
          "internalType": "string",
          "name": "imgHash",
          "type": "string"
        },
        {
          "internalType": "string",
          "name": "link",
          "type": "string"
        },
        {
          "internalType": "enum Dwitter.AdApprovalStatus",
          "name": "status",
          "type": "uint8"
        },
        {
          "internalType": "uint256",
          "name": "expiry",
          "type": "uint256"
        }
      ],
      "stateMutability": "view",
      "type": "function",
      "constant": true
    },
    {
      "inputs": [],
      "name": "myAdvertisements",
      "outputs": [
        {
          "internalType": "uint256[]",
          "name": "list",
          "type": "uint256[]"
        }
      ],
      "stateMutability": "view",
      "type": "function",
      "constant": true
    }
  ],
  "bytecode": "0x60806040526000805460ff60a01b19168155600181815560028290556003829055600f556514f1d52a9a4b6010556529e3aa5534966011556701afe4b11067cc4060185560195534801561005257600080fd5b50600080546001600160a01b03191633178082556001600160a01b03168152601260205260409020805460ff191660011790556143a1806100946000396000f3fe60806040526004361061025c5760003560e01c8063830426ee11610144578063be06db45116100b6578063ef8e41971161007a578063ef8e41971461164d578063f332f22814611662578063f717793b14611677578063f8264f8114611832578063f98be58114611847578063fc3e562e146118715761025c565b8063be06db45146113e0578063bff1f9e114611419578063d354f3921461142e578063db80552d14611458578063dd57366a1461161a5761025c565b806398f4538c1161010857806398f4538c14610fd55780639d096b9714610fea578063a26eadff1461101c578063ac9f0a401461104e578063ad81602914611313578063b9f06908146113cb5761025c565b8063830426ee14610c15578063832880e714610c2a5780638b041a0314610e565780638da5cb5b14610f7f578063939327a114610fb05761025c565b806361936b81116101dd57806374ebaadc116101a157806374ebaadc1461095157806375f12b2114610a1657806377c846af14610a2b5780637d0b102614610adc5780637ede1c0714610b06578063825622d014610c005761025c565b806361936b8114610738578063668df5061461074d5780636b453c1f1461076a5780636f77926b1461079d578063719b741d1461093c5761025c565b80632b3c6e22116102245780632b3c6e22146105d95780632f0082621461060c57806337d33ac91461062157806340a179851461065457806350931c811461070e5761025c565b80630800e300146102615780630955ae99146103465780631bf6e71a146103ab5780631d83417a146103f95780631e54248e1461058e575b600080fd5b34801561026d57600080fd5b5061028b6004803603602081101561028457600080fd5b5035611886565b60405180876001600160a01b03166001600160a01b03168152602001868152602001806020018581526020018481526020018360038111156102c957fe5b60ff168152602001828103825286818151815260200191508051906020019080838360005b838110156103065781810151838201526020016102ee565b50505050905090810190601f1680156103335780820380516001836020036101000a031916815260200191505b5097505050505050505060405180910390f35b34801561035257600080fd5b5061035b6119da565b60408051602080825283518183015283519192839290830191858101910280838360005b8381101561039757818101518382015260200161037f565b505050509050019250505060405180910390f35b3480156103b757600080fd5b506103d5600480360360208110156103ce57600080fd5b5035611a6b565b604051808260028111156103e557fe5b60ff16815260200191505060405180910390f35b34801561040557600080fd5b506104236004803603602081101561041c57600080fd5b5035611abb565b60405180876001600160a01b03166001600160a01b03168152602001806020018060200180602001868152602001858152602001848103845289818151815260200191508051906020019080838360005b8381101561048c578181015183820152602001610474565b50505050905090810190601f1680156104b95780820380516001836020036101000a031916815260200191505b5084810383528851815288516020918201918a019080838360005b838110156104ec5781810151838201526020016104d4565b50505050905090810190601f1680156105195780820380516001836020036101000a031916815260200191505b50848103825287518152875160209182019189019080838360005b8381101561054c578181015183820152602001610534565b50505050905090810190601f1680156105795780820380516001836020036101000a031916815260200191505b50995050505050505050505060405180910390f35b34801561059a57600080fd5b506105c7600480360360408110156105b157600080fd5b506001600160a01b038135169060200135611d22565b60408051918252519081900360200190f35b3480156105e557600080fd5b5061035b600480360360208110156105fc57600080fd5b50356001600160a01b0316611d50565b34801561061857600080fd5b5061035b611df4565b34801561062d57600080fd5b5061035b6004803603602081101561064457600080fd5b50356001600160a01b0316611e82565b34801561066057600080fd5b5061070c6004803603604081101561067757600080fd5b81359190810190604081016020820135600160201b81111561069857600080fd5b8201836020820111156106aa57600080fd5b803590602001918460018302840111600160201b831117156106cb57600080fd5b91908080601f016020809104026020016040519081016040528093929190818152602001838380828437600092019190915250929550611f24945050505050565b005b34801561071a57600080fd5b5061070c6004803603602081101561073157600080fd5b503561209d565b34801561074457600080fd5b506105c761215c565b61070c6004803603602081101561076357600080fd5b5035612162565b34801561077657600080fd5b5061070c6004803603602081101561078d57600080fd5b50356001600160a01b03166123ad565b3480156107a957600080fd5b506107d0600480360360208110156107c057600080fd5b50356001600160a01b031661242b565b6040518086815260200180602001806020018060200180602001858103855289818151815260200191508051906020019080838360005b8381101561081f578181015183820152602001610807565b50505050905090810190601f16801561084c5780820380516001836020036101000a031916815260200191505b5085810384528851815288516020918201918a019080838360005b8381101561087f578181015183820152602001610867565b50505050905090810190601f1680156108ac5780820380516001836020036101000a031916815260200191505b50858103835287518152875160209182019189019080838360005b838110156108df5781810151838201526020016108c7565b50505050905090810190601f16801561090c5780820380516001836020036101000a031916815260200191505b5085810382528651815286516020918201918801908083836000831561054c578181015183820152602001610534565b34801561094857600080fd5b5061035b6126af565b34801561095d57600080fd5b50610a026004803603602081101561097457600080fd5b810190602081018135600160201b81111561098e57600080fd5b8201836020820111156109a057600080fd5b803590602001918460018302840111600160201b831117156109c157600080fd5b91908080601f016020809104026020016040519081016040528093929190818152602001838380828437600092019190915250929550612746945050505050565b604080519115158252519081900360200190f35b348015610a2257600080fd5b50610a026127b2565b348015610a3757600080fd5b5061070c60048036036020811015610a4e57600080fd5b810190602081018135600160201b811115610a6857600080fd5b820183602082011115610a7a57600080fd5b803590602001918460018302840111600160201b83111715610a9b57600080fd5b91908080601f0160208091040260200160405190810160405280939291908181526020018383808284376000920191909152509295506127c2945050505050565b348015610ae857600080fd5b5061070c60048036036020811015610aff57600080fd5b503561288c565b348015610b1257600080fd5b50610b3060048036036020811015610b2957600080fd5b5035612985565b60405180866001600160a01b03166001600160a01b031681526020018060200180602001856002811115610b6057fe5b60ff168152602001848152602001838103835287818151815260200191508051906020019080838360005b83811015610ba3578181015183820152602001610b8b565b50505050905090810190601f168015610bd05780820380516001836020036101000a031916815260200191505b508381038252865181528651602091820191880190808383600083156103065781810151838201526020016102ee565b348015610c0c57600080fd5b5061035b612b30565b348015610c2157600080fd5b506105c7612bc7565b348015610c3657600080fd5b50610c3f612bcd565b60405180878152602001806020018060200180602001806020018060200186810386528b818151815260200191508051906020019080838360005b83811015610c92578181015183820152602001610c7a565b50505050905090810190601f168015610cbf5780820380516001836020036101000a031916815260200191505b5086810385528a5181528a516020918201918c019080838360005b83811015610cf2578181015183820152602001610cda565b50505050905090810190601f168015610d1f5780820380516001836020036101000a031916815260200191505b5086810384528951815289516020918201918b019080838360005b83811015610d52578181015183820152602001610d3a565b50505050905090810190601f168015610d7f5780820380516001836020036101000a031916815260200191505b5086810383528851815288516020918201918a019080838360005b83811015610db2578181015183820152602001610d9a565b50505050905090810190601f168015610ddf5780820380516001836020036101000a031916815260200191505b50868103825287518152875160209182019189019080838360005b83811015610e12578181015183820152602001610dfa565b50505050905090810190601f168015610e3f5780820380516001836020036101000a031916815260200191505b509b50505050505050505050505060405180910390f35b61070c60048036036040811015610e6c57600080fd5b810190602081018135600160201b811115610e8657600080fd5b820183602082011115610e9857600080fd5b803590602001918460018302840111600160201b83111715610eb957600080fd5b91908080601f0160208091040260200160405190810160405280939291908181526020018383808284376000920191909152509295949360208101935035915050600160201b811115610f0b57600080fd5b820183602082011115610f1d57600080fd5b803590602001918460018302840111600160201b83111715610f3e57600080fd5b91908080601f016020809104026020016040519081016040528093929190818152602001838380828437600092019190915250929550612ed6945050505050565b348015610f8b57600080fd5b50610f94613076565b604080516001600160a01b039092168252519081900360200190f35b348015610fbc57600080fd5b50610fc5613085565b604051808260038111156103e557fe5b348015610fe157600080fd5b506105c761309f565b348015610ff657600080fd5b5061070c6004803603604081101561100d57600080fd5b508035906020013515156130a5565b34801561102857600080fd5b5061070c6004803603604081101561103f57600080fd5b50803590602001351515613196565b34801561105a57600080fd5b5061070c600480360360a081101561107157600080fd5b810190602081018135600160201b81111561108b57600080fd5b82018360208201111561109d57600080fd5b803590602001918460018302840111600160201b831117156110be57600080fd5b91908080601f0160208091040260200160405190810160405280939291908181526020018383808284376000920191909152509295949360208101935035915050600160201b81111561111057600080fd5b82018360208201111561112257600080fd5b803590602001918460018302840111600160201b8311171561114357600080fd5b91908080601f0160208091040260200160405190810160405280939291908181526020018383808284376000920191909152509295949360208101935035915050600160201b81111561119557600080fd5b8201836020820111156111a757600080fd5b803590602001918460018302840111600160201b831117156111c857600080fd5b91908080601f0160208091040260200160405190810160405280939291908181526020018383808284376000920191909152509295949360208101935035915050600160201b81111561121a57600080fd5b82018360208201111561122c57600080fd5b803590602001918460018302840111600160201b8311171561124d57600080fd5b91908080601f0160208091040260200160405190810160405280939291908181526020018383808284376000920191909152509295949360208101935035915050600160201b81111561129f57600080fd5b8201836020820111156112b157600080fd5b803590602001918460018302840111600160201b831117156112d257600080fd5b91908080601f0160208091040260200160405190810160405280939291908181526020018383808284376000920191909152509295506132bd945050505050565b34801561131f57600080fd5b5061070c6004803603604081101561133657600080fd5b81359190810190604081016020820135600160201b81111561135757600080fd5b82018360208201111561136957600080fd5b803590602001918460018302840111600160201b8311171561138a57600080fd5b91908080601f0160208091040260200160405190810160405280939291908181526020018383808284376000920191909152509295506135da945050505050565b3480156113d757600080fd5b506105c761368a565b3480156113ec57600080fd5b506105c76004803603604081101561140357600080fd5b506001600160a01b038135169060200135613690565b34801561142557600080fd5b506105c76136a9565b34801561143a57600080fd5b5061035b6004803603602081101561145157600080fd5b50356136af565b34801561146457600080fd5b5061070c6004803603608081101561147b57600080fd5b81359190810190604081016020820135600160201b81111561149c57600080fd5b8201836020820111156114ae57600080fd5b803590602001918460018302840111600160201b831117156114cf57600080fd5b91908080601f0160208091040260200160405190810160405280939291908181526020018383808284376000920191909152509295949360208101935035915050600160201b81111561152157600080fd5b82018360208201111561153357600080fd5b803590602001918460018302840111600160201b8311171561155457600080fd5b91908080601f0160208091040260200160405190810160405280939291908181526020018383808284376000920191909152509295949360208101935035915050600160201b8111156115a657600080fd5b8201836020820111156115b857600080fd5b803590602001918460018302840111600160201b831117156115d957600080fd5b91908080601f016020809104026020016040519081016040528093929190818152602001838380828437600092019190915250929550613777945050505050565b34801561162657600080fd5b50610a026004803603602081101561163d57600080fd5b50356001600160a01b0316613875565b34801561165957600080fd5b506105c761388a565b34801561166e57600080fd5b5061070c613890565b34801561168357600080fd5b5061070c6004803603606081101561169a57600080fd5b810190602081018135600160201b8111156116b457600080fd5b8201836020820111156116c657600080fd5b803590602001918460018302840111600160201b831117156116e757600080fd5b91908080601f0160208091040260200160405190810160405280939291908181526020018383808284376000920191909152509295949360208101935035915050600160201b81111561173957600080fd5b82018360208201111561174b57600080fd5b803590602001918460018302840111600160201b8311171561176c57600080fd5b91908080601f0160208091040260200160405190810160405280939291908181526020018383808284376000920191909152509295949360208101935035915050600160201b8111156117be57600080fd5b8201836020820111156117d057600080fd5b803590602001918460018302840111600160201b831117156117f157600080fd5b91908080601f016020809104026020016040519081016040528093929190818152602001838380828437600092019190915250929550613a4f945050505050565b34801561183e57600080fd5b506105c7613c8b565b34801561185357600080fd5b5061070c6004803603602081101561186a57600080fd5b5035613c91565b34801561187d57600080fd5b5061035b613ec6565b60008060608180803360016001600160a01b03821660009081526004602052604090206007015460ff1660038111156118bb57fe5b146118c557600080fd5b8760016000828152600a602052604090206006015460ff1660038111156118e857fe5b146118f257600080fd5b6000898152600a6020908152604091829020600180820154600280840154600485015460058601546006870154600390970180548a516101009882161598909802600019011694909404601f81018990048902870189019099528886526001600160a01b039094169791969295909460ff90911692909186918301828280156119bc5780601f10611991576101008083540402835291602001916119bc565b820191906000526020600020905b81548152906001019060200180831161199f57829003601f168201915b50505050509350975097509750975097509750505091939550919395565b60603360016001600160a01b03821660009081526004602052604090206007015460ff166003811115611a0957fe5b14611a1357600080fd5b601c805480602002602001604051908101604052809291908181526020018280548015611a5f57602002820191906000526020600020905b815481526020019060010190808311611a4b575b505050505091505b5090565b60003360016001600160a01b03821660009081526004602052604090206007015460ff166003811115611a9a57fe5b14611aa457600080fd5b505060009081526015602052604090205460ff1690565b60006060808083803360016001600160a01b03821660009081526004602052604090206007015460ff166003811115611af057fe5b14611afa57600080fd5b87600160008281526007602052604090206008015460ff166003811115611b1d57fe5b14611b2757600080fd5b600089815260076020908152604091829020600180820154600583015460068401546002808601805489516101009782161597909702600019011691909104601f81018890048802860188019098528785526001600160a01b0390931696929560038601956004019492939192918791830182828015611be85780601f10611bbd57610100808354040283529160200191611be8565b820191906000526020600020905b815481529060010190602001808311611bcb57829003601f168201915b5050875460408051602060026001851615610100026000190190941693909304601f8101849004840282018401909252818152959a5089945092508401905082828015611c765780601f10611c4b57610100808354040283529160200191611c76565b820191906000526020600020905b815481529060010190602001808311611c5957829003601f168201915b5050865460408051602060026001851615610100026000190190941693909304601f810184900484028201840190925281815295995088945092508401905082828015611d045780601f10611cd957610100808354040283529160200191611d04565b820191906000526020600020905b815481529060010190602001808311611ce757829003601f168201915b50505050509250975097509750975097509750505091939550919395565b60146020528160005260406000208181548110611d3b57fe5b90600052602060002001600091509150505481565b60603360016001600160a01b03821660009081526004602052604090206007015460ff166003811115611d7f57fe5b14611d8957600080fd5b6001600160a01b0383166000908152600b602090815260409182902080548351818402810184019094528084529091830182828015611de757602002820191906000526020600020905b815481526020019060010190808311611dd3575b5050505050915050919050565b60603360016001600160a01b03821660009081526004602052604090206007015460ff166003811115611e2357fe5b14611e2d57600080fd5b600e805480602002602001604051908101604052809291908181526020018280548015611a5f5760200282019190600052602060002090815481526020019060010190808311611a4b57505050505091505090565b60603360016001600160a01b03821660009081526004602052604090206007015460ff166003811115611eb157fe5b14611ebb57600080fd5b6001600160a01b03831660009081526008602090815260409182902080548351818402810184019094528084529091830182828015611de75760200282019190600052602060002090815481526020019060010190808311611dd3575050505050915050919050565b3360008181526004602052604090206007015460019060ff166003811115611f4857fe5b14611f5257600080fd5b82600160008281526007602052604090206008015460ff166003811115611f7557fe5b14611f7f57600080fd5b600280546001908101918290556040805160e08101825283815233602082015290810187905260608101869052600060808201524260a08201529060c08201526000828152600a602090815260409182902083518155838201516001820180546001600160a01b0319166001600160a01b039092169190911790559183015160028301556060830151805161201a9260038501920190614258565b506080820151600482015560a0820151600582015560c082015160068201805460ff1916600183600381111561204c57fe5b021790555050336000908152600b60209081526040808320600280548254600181810185559387528587200155998452600c8352908320985489549182018a55988352912001959095555050505050565b3360008181526004602052604090206007015460019060ff1660038111156120c157fe5b146120cb57600080fd5b81600160008281526007602052604090206008015460ff1660038111156120ee57fe5b146120f857600080fd5b600083815260096020908152604080832033845290915290205460ff161561211f57600080fd5b505060009081526007602090815260408083206006018054600190810190915560098352818420338552909252909120805460ff19169091179055565b60025481565b80600160008281526007602052604090206008015460ff16600381111561218557fe5b1461218f57600080fd5b3360008181526004602052604090206007015460019060ff1660038111156121b357fe5b146121bd57600080fd5b6010543410156121cc57600080fd5b600f546000848152600760208190526040909120015411156121ed57600080fd5b600083815260136020908152604080832033845290915290205460ff161561221457600080fd5b60008381526013602090815260408083203384528252808320805460ff19166001908117909155601483528184208054808301825590855283852001879055868452600792839052922001805490910190819055600f5481141561236f57600e805460018181019092557fbb7b4a454dc3493923482f07822329ed19e8244eff582cc204f8554c3620c3fd01859055600085815260076020908152604091829020825188815291820183815260029182018054610100968116159690960260001901909516919091049282018390527ff36efff61beff5fce9769a14cd22476bb653b2165946f3f58242301dcf6294c09388939092919060608301908490801561235f5780601f106123345761010080835404028352916020019161235f565b820191906000526020600020905b81548152906001019060200180831161234257829003601f168201915b5050935050505060405180910390a15b50601054604051349190910390339082156108fc029083906000818181858888f193505050501580156123a6573d6000803e3d6000fd5b5050505050565b6000546001600160a01b031633146123c457600080fd5b600d805460018181019092557fd7b6990105719101dabeb77144f2a3385c8033acd3af97e9423a695e81ad1eb50180546001600160a01b039093166001600160a01b031990931683179055600091825260126020526040909120805460ff19169091179055565b6001600160a01b0381166000908152600460208181526040808420543385528185206002808201805485516001821615610100026000190190911692909204601f810187900487028301870190955284825260609687968796879695939460038501949384019360060192909186918301828280156124eb5780601f106124c0576101008083540402835291602001916124eb565b820191906000526020600020905b8154815290600101906020018083116124ce57829003601f168201915b5050865460408051602060026001851615610100026000190190941693909304601f8101849004840282018401909252818152959950889450925084019050828280156125795780601f1061254e57610100808354040283529160200191612579565b820191906000526020600020905b81548152906001019060200180831161255c57829003601f168201915b5050855460408051602060026001851615610100026000190190941693909304601f8101849004840282018401909252818152959850879450925084019050828280156126075780601f106125dc57610100808354040283529160200191612607565b820191906000526020600020905b8154815290600101906020018083116125ea57829003601f168201915b5050845460408051602060026001851615610100026000190190941693909304601f8101849004840282018401909252818152959750869450925084019050828280156126955780601f1061266a57610100808354040283529160200191612695565b820191906000526020600020905b81548152906001019060200180831161267857829003601f168201915b505050505090509450945094509450945091939590929450565b60603360016001600160a01b03821660009081526004602052604090206007015460ff1660038111156126de57fe5b146126e857600080fd5b336000908152600b602090815260409182902080548351818402810184019094528084529091830182828015611a5f5760200282019190600052602060002090815481526020019060010190808311611a4b57505050505091505090565b60006006826040518082805190602001908083835b6020831061277a5780518252601f19909201916020918201910161275b565b51815160209384036101000a600019018019909216911617905292019485525060405193849003019092205460ff1615949350505050565b600054600160a01b900460ff1681565b3360008181526004602052604090206007015460019060ff1660038111156127e657fe5b146127f057600080fd5b816006816040518082805190602001908083835b602083106128235780518252601f199092019160209182019101612804565b51815160209384036101000a600019018019909216911617905292019485525060405193849003019092205460ff16159150612860905057600080fd5b336000908152600460209081526040909120845161288692600290920191860190614258565b50505050565b8060016000828152600a602052604090206006015460ff1660038111156128af57fe5b146128b957600080fd5b3360008181526004602052604090206007015460019060ff1660038111156128dd57fe5b146128e757600080fd5b6000838152600a602052604090206001015483906001600160a01b0316331461290f57600080fd5b6000848152600a602052604081208181556001810180546001600160a01b0319169055600281018290559061294760038301826142d2565b50600060048201819055600582018190556006918201805460ff19908116909155958152600a60205260409020018054909416600317909355505050565b600060608082803360016001600160a01b03821660009081526004602052604090206007015460ff1660038111156129b957fe5b146129c357600080fd5b6000878152601b6020908152604091829020600180820154600483015460058401546002808601805489516101009782161597909702600019011691909104601f81018890048802860188019098528785526001600160a01b0390931696929560039095019460ff9092169390929091869190830182828015612a875780601f10612a5c57610100808354040283529160200191612a87565b820191906000526020600020905b815481529060010190602001808311612a6a57829003601f168201915b5050865460408051602060026001851615610100026000190190941693909304601f810184900484028201840190925281815295995088945092508401905082828015612b155780601f10612aea57610100808354040283529160200191612b15565b820191906000526020600020905b815481529060010190602001808311612af857829003601f168201915b50505050509250955095509550955095505091939590929450565b60603360016001600160a01b03821660009081526004602052604090206007015460ff166003811115612b5f57fe5b14612b6957600080fd5b336000908152601a602090815260409182902080548351818402810184019094528084529091830182828015611a5f5760200282019190600052602060002090815481526020019060010190808311611a4b57505050505091505090565b60115481565b33600090815260046020818152604080842080546002808301805485516001821615610100026000190190911692909204601f8101879004870283018701909552848252606096879687968796879695600382019482019360058301936006909301928791830182828015612c835780601f10612c5857610100808354040283529160200191612c83565b820191906000526020600020905b815481529060010190602001808311612c6657829003601f168201915b5050875460408051602060026001851615610100026000190190941693909304601f8101849004840282018401909252818152959a5089945092508401905082828015612d115780601f10612ce657610100808354040283529160200191612d11565b820191906000526020600020905b815481529060010190602001808311612cf457829003601f168201915b5050865460408051602060026001851615610100026000190190941693909304601f810184900484028201840190925281815295995088945092508401905082828015612d9f5780601f10612d7457610100808354040283529160200191612d9f565b820191906000526020600020905b815481529060010190602001808311612d8257829003601f168201915b5050855460408051602060026001851615610100026000190190941693909304601f810184900484028201840190925281815295985087945092508401905082828015612e2d5780601f10612e0257610100808354040283529160200191612e2d565b820191906000526020600020905b815481529060010190602001808311612e1057829003601f168201915b5050845460408051602060026001851615610100026000190190941693909304601f810184900484028201840190925281815295975086945092508401905082828015612ebb5780601f10612e9057610100808354040283529160200191612ebb565b820191906000526020600020905b815481529060010190602001808311612e9e57829003601f168201915b50505050509050955095509550955095509550909192939495565b3360008181526004602052604090206007015460019060ff166003811115612efa57fe5b14612f0457600080fd5b601854341015612f1357600080fd5b60198054600101908190556040805160c08101825282815233602082015290810185905260608101849052608081016000815260006020918201819052838152601b825260409081902083518155838301516001820180546001600160a01b0319166001600160a01b039092169190911790559083015180519192612fa092600285019290910190614258565b5060608201518051612fbc916003840191602090910190614258565b50608082015160048201805460ff19166001836002811115612fda57fe5b021790555060a09190910151600590910155601c805460018181019092557f0e4562a10381dec21b205ed72637e6b1b523bdd0e4d4d50af5cd23dd4500a21101829055336000818152601a60209081526040808320805495860181558352908220909301939093556018549151349290920392909183156108fc0291849190818181858888f193505050501580156123a6573d6000803e3d6000fd5b6000546001600160a01b031681565b3360009081526004602052604090206007015460ff165b90565b60185481565b3360009081526012602052604090205460ff166130c157600080fd5b6000828152601b602052604081206004015460ff1660028111156130e157fe5b146130eb57600080fd5b801561311f576000828152601b6020526040902060048101805460ff19166001179055426201518001600590910155613192565b6000828152601b60205260408120600401805460ff191660021790556018546131629060649061315690600863ffffffff613f5d16565b9063ffffffff613fbf16565b604051909150339082156108fc029083906000818181858888f19350505050158015612886573d6000803e3d6000fd5b5050565b3360009081526012602052604090205460ff166131b257600080fd5b81600160008281526007602052604090206008015460ff1660038111156131d557fe5b146131df57600080fd5b3360008181526004602052604090206007015460019060ff16600381111561320357fe5b1461320d57600080fd5b60008481526015602052604081205460ff16600281111561322a57fe5b1461323457600080fd5b8215613261576000848152601560205260409020805460ff1916600117905561325c84614001565b612886565b6000848152601560205260409020805460ff19166002179055600f5460105461328991613f5d565b6000858152600760209081526040808320600101546001600160a01b03168352601790915290208054909101905550505050565b3360008181526004602052604081206007015460ff1660038111156132de57fe5b146132e857600080fd5b856006816040518082805190602001908083835b6020831061331b5780518252601f1990920191602091820191016132fc565b51815160209384036101000a600019018019909216911617905292019485525060405193849003019092205460ff16159150613358905057600080fd5b60016006886040518082805190602001908083835b6020831061338c5780518252601f19909201916020918201910161336d565b6001836020036101000a038019825116818451168082178552505050505050905001915050908152602001604051809103902060006101000a81548160ff0219169083151502179055506040518061010001604052806003600081546001019190508190558152602001336001600160a01b031681526020018881526020018781526020018681526020018581526020018481526020016001600381111561343057fe5b90523360009081526004602090815260409182902083518155838201516001820180546001600160a01b0319166001600160a01b039092169190911790559183015180516134849260028501920190614258565b50606082015180516134a0916003840191602090910190614258565b50608082015180516134bc916004840191602090910190614258565b5060a082015180516134d8916005840191602090910190614258565b5060c082015180516134f4916006840191602090910190614258565b5060e082015160078201805460ff1916600183600381111561351257fe5b0217905550905050336005886040518082805190602001908083835b6020831061354d5780518252601f19909201916020918201910161352e565b51815160209384036101000a600019018019909216911617905292019485525060408051948590038201852080546001600160a01b0319166001600160a01b03979097169690961790955560035433855290840152505081517fabc58c36475157c4ac7669f9adfbb6f254d3a3578fb89676f6866ac3b9950eed929181900390910190a150505050505050565b3360008181526004602052604090206007015460019060ff1660038111156135fe57fe5b1461360857600080fd5b8260016000828152600a602052604090206006015460ff16600381111561362b57fe5b1461363557600080fd5b6000848152600a602052604090206001015484906001600160a01b0316331461365d57600080fd5b6000858152600a60209081526040909120855161368292600390920191870190614258565b505050505050565b60015481565b601a6020528160005260406000208181548110611d3b57fe5b60035481565b60603360016001600160a01b03821660009081526004602052604090206007015460ff1660038111156136de57fe5b146136e857600080fd5b82600160008281526007602052604090206008015460ff16600381111561370b57fe5b1461371557600080fd5b6000848152600c60209081526040918290208054835181840281018401909452808452909183018282801561376957602002820191906000526020600020905b815481526020019060010190808311613755575b505050505092505050919050565b83600160008281526007602052604090206008015460ff16600381111561379a57fe5b146137a457600080fd5b3360008181526004602052604090206007015460019060ff1660038111156137c857fe5b146137d257600080fd5b60008681526007602052604090206001015486906001600160a01b031633146137fa57600080fd5b6000878152600760209081526040909120875161381f92600290920191890190614258565b506000878152600760209081526040909120865161384592600390920191880190614258565b506000878152600760209081526040909120855161386b92600490920191870190614258565b5050505050505050565b60126020526000908152604090205460ff1681565b60195481565b3360008181526004602052604090206007015460019060ff1660038111156138b457fe5b146138be57600080fd5b336000908152601460205260409020546138d757600080fd5b33600090815260146020526040902054600019015b336000908152601460205260408120805460159183918590811061390c57fe5b6000918252602080832090910154835282019290925260400190205460ff16600281111561393657fe5b141561394157600080fd5b6001336000908152601460205260408120805460159291908590811061396357fe5b6000918252602080832090910154835282019290925260400190205460ff16600281111561398d57fe5b14156139cd57601154336000908152601660209081526040808320805490940190935560149052208054829081106139c157fe5b60009182526020822001555b600233600090815260146020526040812080546015929190859081106139ef57fe5b6000918252602080832090910154835282019290925260400190205460ff166002811115613a1957fe5b1415613a4657336000908152601460205260409020805482908110613a3a57fe5b60009182526020822001555b600019016138ec565b3360008181526004602052604090206007015460019060ff166003811115613a7357fe5b14613a7d57600080fd5b600180548101808255604080516101208101825282815233602082015290810187905260608101869052608081018590524260a0820152600060c0820181905260e0820152909161010082015260008281526007602090815260409182902083518155838201516001820180546001600160a01b0319166001600160a01b03909216919091179055918301518051613b1b9260028501920190614258565b5060608201518051613b37916003840191602090910190614258565b5060808201518051613b53916004840191602090910190614258565b5060a0820151600582015560c0820151600682015560e0820151600782015561010082015160088201805460ff19166001836003811115613b9057fe5b0217905550503360008181526008602090815260408083206001805482548083018455928652848620909201919091558484526004835281842054905482518681528085018390529283018190526080606084018181528d51918501919091528c517f21593a9df09ab143689b32be8383151220aea83c109d2687fdaf0352025b12b69850929591948d9493919260a085019291860191908190849084905b83811015613c47578181015183820152602001613c2f565b50505050905090810190601f168015613c745780820380516001836020036101000a031916815260200191505b509550505050505060405180910390a15050505050565b60105481565b80600160008281526007602052604090206008015460ff166003811115613cb457fe5b14613cbe57600080fd5b3360008181526004602052604090206007015460019060ff166003811115613ce257fe5b14613cec57600080fd5b60008381526007602052604090206001015483906001600160a01b03163314613d1457600080fd5b6000848152600760209081526040918290208251878152918201838152600291820180546000196101006001831615020116929092049383018490527f83eaa369805b076a12075449c0a5991787d784ac3ac93f7f0ee7d626867ba1609388939190606083019084908015613dca5780601f10613d9f57610100808354040283529160200191613dca565b820191906000526020600020905b815481529060010190602001808311613dad57829003601f168201915b5050935050505060405180910390a160008481526007602052604081208181556001810180546001600160a01b031916905590613e0a60028301826142d2565b613e186003830160006142d2565b613e266004830160006142d2565b506000600582018190556006820181905560078083018290556008928301805460ff199081169091558783526020919091526040822090920180549092166003179091555b6000858152600c6020526040902054811015613eae576000858152600c60205260409020805482908110613e9b57fe5b6000918252602082200155600101613e6b565b506000848152600c6020526040812061288691614316565b60603360016001600160a01b03821660009081526004602052604090206007015460ff166003811115613ef557fe5b14613eff57600080fd5b3360009081526008602090815260409182902080548351818402810184019094528084529091830182828015611a5f5760200282019190600052602060002090815481526020019060010190808311611a4b57505050505091505090565b600082613f6c57506000613fb9565b82820282848281613f7957fe5b0414613fb65760405162461bcd60e51b815260040180806020018281038252602181526020018061434b6021913960400191505060405180910390fd5b90505b92915050565b6000613fb683836040518060400160405280601a81526020017f536166654d6174683a206469766973696f6e206279207a65726f0000000000008152506141b6565b6000818152600760209081526040918290208251848152918201838152600291820180546000196101006001831615020116929092049383018490527f58b6be982ca40d15c54643e9621ee3adc5a3ead7611116a8919d819c32526da593859391906060830190849080156140b75780601f1061408c576101008083540402835291602001916140b7565b820191906000526020600020905b81548152906001019060200180831161409a57829003601f168201915b5050935050505060405180910390a160008181526007602052604081208181556001810180546001600160a01b0319169055906140f760028301826142d2565b6141056003830160006142d2565b6141136004830160006142d2565b506000600582018190556006820181905560078083018290556008928301805460ff199081169091558483526020919091526040822090920180549092166002179091555b6000828152600c602052604090205481101561419b576000828152600c6020526040902080548290811061418857fe5b6000918252602082200155600101614158565b506000818152600c602052604081206141b391614316565b50565b600081836142425760405162461bcd60e51b81526004018080602001828103825283818151815260200191508051906020019080838360005b838110156142075781810151838201526020016141ef565b50505050905090810190601f1680156142345780820380516001836020036101000a031916815260200191505b509250505060405180910390fd5b50600083858161424e57fe5b0495945050505050565b828054600181600116156101000203166002900490600052602060002090601f016020900481019282601f1061429957805160ff19168380011785556142c6565b828001600101855582156142c6579182015b828111156142c65782518255916020019190600101906142ab565b50611a67929150614330565b50805460018160011615610100020316600290046000825580601f106142f857506141b3565b601f0160209004906000526020600020908101906141b39190614330565b50805460008255906000526020600020908101906141b391905b61309c91905b80821115611a67576000815560010161433656fe536166654d6174683a206d756c7469706c69636174696f6e206f766572666c6f77a2646970667358221220db7a911d0e2bbf7e313968b410bce06f810f0f0ba227bfb7e3e3e7144dce986d64736f6c63430006010033",
  "source": "  // SPDX-License-Identifier: GPL-3.0\r\npragma solidity >=0.5.10;\r\n    library SafeMath {\r\n    \r\n        function add(uint256 a, uint256 b) internal pure returns (uint256) {\r\n            uint256 c = a + b;\r\n            require(c >= a, \"SafeMath: addition overflow\");\r\n    \r\n            return c;\r\n        }\r\n    \r\n        function sub(uint256 a, uint256 b) internal pure returns (uint256) {\r\n            return sub(a, b, \"SafeMath: subtraction overflow\");\r\n        }\r\n    \r\n        function sub(uint256 a, uint256 b, string memory errorMessage) internal pure returns (uint256) {\r\n            require(b <= a, errorMessage);\r\n            uint256 c = a - b;\r\n    \r\n            return c;\r\n        }\r\n    \r\n        function mul(uint256 a, uint256 b) internal pure returns (uint256) {\r\n            if (a == 0) {\r\n                return 0;\r\n            }\r\n    \r\n            uint256 c = a * b;\r\n            require(c / a == b, \"SafeMath: multiplication overflow\");\r\n    \r\n            return c;\r\n        }\r\n    \r\n        function div(uint256 a, uint256 b) internal pure returns (uint256) {\r\n            return div(a, b, \"SafeMath: division by zero\");\r\n        }\r\n    \r\n        function div(uint256 a, uint256 b, string memory errorMessage) internal pure returns (uint256) {\r\n            require(b > 0, errorMessage);\r\n            uint256 c = a / b;\r\n            return c;\r\n        }\r\n    \r\n    }\r\n\r\n/// @title A Decentralised Social Media Platform\r\n/// @author Mohit Bhat\r\n/// @notice You can use this contract to connect to decentralised social network, share your content to the world\r\n/// @dev Most of the features are implemented keeping note of security concerns\r\n    contract Dwitter{\r\n        using SafeMath for uint;\r\n        address payable public owner;//Owner is also a maintainer\r\n        bool public stopped = false;\r\n        \r\n        struct User{\r\n            uint id;\r\n            address ethAddress;\r\n            string username;\r\n            string name;\r\n            string profileImgHash;\r\n            string profileCoverImgHash;\r\n            string bio;\r\n            accountStatus status; // Account Banned or not\r\n        }\r\n        \r\n        struct Dweet{\r\n            uint dweetId;\r\n            address author;\r\n            string hashtag;\r\n            string content;\r\n            string imgHash;\r\n            uint timestamp;\r\n            uint likeCount;\r\n            uint reportCount;\r\n            cdStatus status; // Dweet Reported and Banned or not\r\n        }\r\n        \r\n        struct Comment{\r\n            uint commentId;\r\n            address author;\r\n            uint dweetId;\r\n            string content;\r\n            uint likeCount;\r\n            // uint reportCount;\r\n            uint timestamp;\r\n            cdStatus status; // Comment Reported and Banned or not\r\n        }\r\n        \r\n        uint public totalDweets=0;\r\n        uint public totalComments=0;\r\n        uint public totalUsers=0;\r\n        \r\n        ///@dev NP means not present the default value for status \r\n        enum accountStatus{NP,Active,Banned,Deactivated}\r\n        enum cdStatus{NP,Active, Banned, Deleted}//Comment-Dweet status\r\n        // enum dweetStatus{NP,Active, Banned, Deleted}\r\n        \r\n        mapping(address=>User) private users; //mapping to get user details from user address\r\n        mapping(string=>address) private userAddressFromUsername;//to get user address from username\r\n        // mapping(address=>bool) private registeredUser; //mapping to get user details from user address\r\n        mapping(string=>bool) private usernames;//To check which username is taken taken=>true, not taken=>false\r\n\r\n        \r\n        mapping(uint=>Dweet) private dweets;// mapping to get dweet from Id\r\n        mapping(address=>uint[]) private userDweets; // Array to store dweets(Id) done by user\r\n        // mapping(uint=>address[]) private dweetLikersList;\r\n        mapping(uint=>mapping(address=>bool)) private dweetLikers; // Mapping to track who liked which dweet\r\n        \r\n        mapping(uint=>Comment) private comments; //Mapping to get comment from comment Id\r\n        mapping(address=>uint[]) private userComments;// Mapping to track user comments from there address\r\n        // mapping(uint=>mapping(address=>bool)) private commentReporters; // Mapping to track who reported which comment\r\n        // mapping(uint=>mapping(address=>bool)) private commentLikers; // Mapping to track who liked on which comment\r\n        mapping(uint=>uint[]) private dweetComments; // Getting comments for a specific dweet\r\n        \r\n        modifier stopInEmergency { require(!stopped); _; }\r\n        modifier onlyInEmergency { require(stopped); _; }\r\n        \r\n        modifier onlyOwner{require(msg.sender==owner); _;}\r\n        modifier onlyDweetAuthor(uint id){require(msg.sender==dweets[id].author); _;}\r\n        modifier onlyCommentAuthor(uint id){require(msg.sender==comments[id].author); _;}\r\n        modifier onlyAllowedUser(address user){require(users[user].status==accountStatus.Active); _;}\r\n        modifier onlyActiveDweet(uint id){require(dweets[id].status==cdStatus.Active); _;}\r\n        modifier onlyActiveComment(uint id){require(comments[id].status==cdStatus.Active); _;}\r\n        modifier usernameTaken(string memory username){require(!usernames[username]); _;}\r\n     // modifier checkUserExists(){require(registeredUser[msg.sender]); _;}\r\n        modifier checkUserNotExists(address user){require(users[user].status==accountStatus.NP); _;}\r\n\r\n        \r\n        event logRegisterUser(address user, uint id);\r\n        event logUserBanned(address user, uint id);\r\n        event logDweetCreated(address author, uint userid, uint dweetid, string hashtag);\r\n        event logDweetBanned(uint id, string hashtag); // To track how many dweets were banned to specific hashtag\r\n        event logDweetDeleted(uint id, string hashtag);\r\n        event logCommentBanned(uint id, string hashtag);\r\n        \r\n        constructor() public {\r\n            owner=msg.sender;\r\n            isMaintainer[owner]=true;\r\n        }\r\n        \r\n/*\r\n**************************************USER FUNCTIONS***********************************************************\r\n*/\r\n        function usernameAvailable(string memory _username) public view returns(bool status){\r\n            return !usernames[_username];\r\n        }\r\n        \r\n        function registerUser(string memory _username, string memory _name, string memory _imgHash, string memory _coverHash, string memory _bio ) public checkUserNotExists(msg.sender) usernameTaken(_username){\r\n            /// Reentrancy attack Prevented\r\n            usernames[_username]=true;\r\n            users[msg.sender]=User(++totalUsers, msg.sender, _username, _name, _imgHash, _coverHash, _bio, accountStatus.Active);\r\n            userAddressFromUsername[_username]=msg.sender;\r\n            emit logRegisterUser(msg.sender, totalUsers);\r\n        }\r\n        \r\n        function userStatus() public view returns(accountStatus status){\r\n            return users[msg.sender].status;\r\n        }\r\n        \r\n        function changeUsername(string memory _username) public onlyAllowedUser(msg.sender) usernameTaken(_username){\r\n            users[msg.sender].username=_username;\r\n        }\r\n        \r\n        function getUser() public view returns(uint id, string memory username, string memory name, string memory imghash, string memory coverhash, string memory bio){\r\n            return(users[msg.sender].id,users[msg.sender].username, users[msg.sender].name, users[msg.sender].profileImgHash, users[msg.sender].profileCoverImgHash, users[msg.sender].bio);\r\n        }\r\n        \r\n        function getUser(address _user) public view returns(uint id, string memory username, string memory name, string memory imghash, string memory bio){\r\n            return(users[_user].id,users[msg.sender].username, users[msg.sender].name, users[msg.sender].profileImgHash, users[msg.sender].bio);\r\n        }\r\n        \r\n        function banUser(address _user) internal onlyAllowedUser(_user) {\r\n            delete users[_user];\r\n            users[_user].status=accountStatus.Banned;\r\n            emit logUserBanned(msg.sender, users[_user].id);\r\n        }\r\n\r\n/*\r\n**************************************DWEET FUNCTIONS***********************************************************\r\n*/        \r\n        function createDweet(string memory _hashtag, string memory _content, string memory _imghash) public onlyAllowedUser(msg.sender) {\r\n            uint id=++totalDweets;\r\n            dweets[id]=Dweet(id, msg.sender, _hashtag, _content, _imghash, block.timestamp , 0, 0, cdStatus.Active);\r\n            userDweets[msg.sender].push(totalDweets);\r\n            emit logDweetCreated(msg.sender, users[msg.sender].id, totalDweets, _hashtag);\r\n        }\r\n        \r\n        function banDweet(uint _id) internal{\r\n            emit logDweetBanned(_id, dweets[_id].hashtag);\r\n            delete dweets[_id];\r\n            dweets[_id].status=cdStatus.Banned;\r\n            for(uint i=0;i<dweetComments[_id].length;i++){\r\n                delete dweetComments[_id][i];\r\n            }\r\n            delete dweetComments[_id];\r\n        }\r\n        \r\n        function editDweet(uint _id, string memory _hashtag, string memory _content, string memory _imghash) public onlyActiveDweet(_id)\r\n        onlyAllowedUser(msg.sender) onlyDweetAuthor(_id) {\r\n            dweets[_id].hashtag=_hashtag;\r\n            dweets[_id].content=_content;\r\n            dweets[_id].imgHash=_imghash;\r\n        }\r\n        \r\n        function deleteDweet(uint _id) public onlyActiveDweet(_id) onlyAllowedUser(msg.sender) onlyDweetAuthor(_id){\r\n            emit logDweetDeleted(_id, dweets[_id].hashtag);\r\n            delete dweets[_id];\r\n            dweets[_id].status=cdStatus.Deleted;\r\n            for(uint i=0;i<dweetComments[_id].length;i++){\r\n                delete dweetComments[_id][i];\r\n            }\r\n            delete dweetComments[_id];\r\n        }\r\n        \r\n        function getDweet(uint _id) public onlyAllowedUser(msg.sender) onlyActiveDweet(_id) view returns ( address author, string memory hashtag, string memory content, string memory imgHash, uint timestamp, uint likeCount ){\r\n            return (dweets[_id].author, dweets[_id].hashtag, dweets[_id].content, dweets[_id].imgHash, dweets[_id].timestamp, dweets[_id].likeCount);\r\n        }\r\n        \r\n        function likeDweet(uint _id) public onlyAllowedUser(msg.sender) onlyActiveDweet(_id){\r\n            require(!dweetLikers[_id][msg.sender]);\r\n            dweets[_id].likeCount++;\r\n            dweetLikers[_id][msg.sender]=true;\r\n        }\r\n        \r\n        function getUserDweets() public view onlyAllowedUser(msg.sender) returns(uint[] memory dweetList){\r\n            return userDweets[msg.sender];\r\n        }\r\n        \r\n        function getUserDweets(address _user) public view onlyAllowedUser(msg.sender) returns(uint[] memory dweetList){\r\n            return userDweets[_user];\r\n        }\r\n\r\n/*\r\n**************************************COMMENT FUNCTIONS***********************************************************\r\n*/ \r\n        \r\n        function createComment(uint _dweetid, string memory _comment) public onlyAllowedUser(msg.sender)  onlyActiveDweet(_dweetid){\r\n            uint id=++totalComments;\r\n            comments[id]=Comment(id, msg.sender, _dweetid, _comment, 0, block.timestamp, cdStatus.Active);\r\n            userComments[msg.sender].push(totalComments);\r\n            dweetComments[_dweetid].push(totalComments);\r\n        }\r\n        \r\n        function banComment(uint _id) internal {\r\n            emit logCommentBanned(_id, dweets[comments[_id].dweetId].hashtag);\r\n            delete comments[_id];\r\n            comments[_id].status=cdStatus.Banned;\r\n        }\r\n        \r\n        function editComment(uint _commentid, string memory _comment) public onlyAllowedUser(msg.sender)  onlyActiveComment(_commentid) onlyCommentAuthor(_commentid){\r\n            comments[_commentid].content=_comment;\r\n        }\r\n        \r\n        function deleteComment(uint _id) public onlyActiveComment(_id) onlyAllowedUser(msg.sender) onlyCommentAuthor(_id) {\r\n            delete comments[_id];\r\n            comments[_id].status=cdStatus.Deleted;\r\n        }\r\n        \r\n        function getComment(uint _id) public view onlyAllowedUser(msg.sender) onlyActiveComment(_id) returns(address author, uint dweetId, string memory content, uint likeCount, uint timestamp, cdStatus status){\r\n            return(comments[_id].author, comments[_id].dweetId, comments[_id].content, comments[_id].likeCount, comments[_id].timestamp, comments[_id].status);\r\n        }\r\n        \r\n        /// @dev Though onlyAllowedUser can be bypassed easily but still keeping for general audience \r\n        function getUserComments() public view onlyAllowedUser(msg.sender) returns(uint[] memory commentList){\r\n            return userComments[msg.sender];\r\n        }\r\n        \r\n        function getUserComments(address _user) public view onlyAllowedUser(msg.sender) returns(uint[] memory commentList){\r\n            return userComments[_user];\r\n        }\r\n        \r\n        function getDweetComments(uint _id) public view onlyAllowedUser(msg.sender) onlyActiveDweet(_id) returns(uint[] memory list){\r\n            return(dweetComments[_id]);\r\n        }\r\n        \r\n/*\r\n**********************************Reporting And Maintanining*****************************************\r\n*/\r\n      address[] private maintainers;\r\n      uint[] private dweetsReportedList;\r\n      uint private noOfReportsRequired=1;\r\n      uint public reportingstakePrice=23028896012875;\r\n      uint public reportingRewardPrice=46057792025750;\r\n      mapping(address=>bool) public isMaintainer;\r\n      mapping(uint=>mapping(address=>bool)) private dweetReporters; // Mapping to track who reported which dweet\r\n      mapping(address=>uint[]) public userReportList;\r\n      enum reportAction{NP, Banned, Free}\r\n      mapping(uint=>reportAction) private actionOnDweet;\r\n      mapping(address=>uint) private userRewards;\r\n      mapping(address=>uint) private fakeReportingReward;\r\n      \r\n      function addMaintainer(address _user) public onlyOwner {\r\n          maintainers.push(_user);\r\n          isMaintainer[_user]=true;\r\n      }\r\n      \r\n      modifier onlyMaintainer(){\r\n          require(isMaintainer[msg.sender]);\r\n          _;\r\n      }\r\n      \r\n      modifier paidEnoughforReporter() { require(msg.value >= reportingstakePrice); _;}\r\n        \r\n      modifier checkValueforReporter() {\r\n        _;\r\n        uint amountToRefund = msg.value - reportingstakePrice;\r\n        msg.sender.transfer(amountToRefund);\r\n      }\r\n      \r\n      event logDweetReported(uint id, string hashtag);\r\n\r\n      function reportDweet(uint _dweetId) public payable onlyActiveDweet(_dweetId) onlyAllowedUser(msg.sender) paidEnoughforReporter checkValueforReporter{\r\n          require(dweets[_dweetId].reportCount<=noOfReportsRequired);\r\n          require(!dweetReporters[_dweetId][msg.sender]);\r\n          dweetReporters[_dweetId][msg.sender]=true;//Reentracy attack Prevented\r\n          userReportList[msg.sender].push(_dweetId);\r\n          uint reports=++dweets[_dweetId].reportCount;\r\n          if(reports==noOfReportsRequired){\r\n              dweetsReportedList.push(_dweetId);\r\n              emit logDweetReported(_dweetId, dweets[_dweetId].hashtag);\r\n          }\r\n      }\r\n      \r\n      function takeAction(uint _dweetId, bool _action) public onlyMaintainer onlyActiveDweet(_dweetId) onlyAllowedUser(msg.sender){\r\n          require(actionOnDweet[_dweetId]==reportAction.NP);\r\n          if(_action){\r\n              actionOnDweet[_dweetId]=reportAction.Banned;\r\n              banDweet(_dweetId);\r\n          }else{\r\n              actionOnDweet[_dweetId]=reportAction.Free;\r\n              fakeReportingReward[dweets[_dweetId].author]+=reportingstakePrice.mul(noOfReportsRequired);\r\n          }\r\n      }\r\n      \r\n      \r\n      function claimReportingReward() public onlyAllowedUser(msg.sender){\r\n          require(userReportList[msg.sender].length>0);\r\n          for(uint i=userReportList[msg.sender].length-1;i>=0;i--){\r\n              if(actionOnDweet[userReportList[msg.sender][i]]==reportAction.NP){\r\n                  revert();\r\n              }\r\n              if(actionOnDweet[userReportList[msg.sender][i]]==reportAction.Banned){\r\n                  userRewards[msg.sender]+=reportingRewardPrice;\r\n                  delete(userReportList[msg.sender][i]);\r\n              }\r\n              if(actionOnDweet[userReportList[msg.sender][i]]==reportAction.Free){\r\n                  delete(userReportList[msg.sender][i]);\r\n              }\r\n          }\r\n          \r\n          delete(userReportList[msg.sender]);\r\n          msg.sender.transfer(userRewards[msg.sender]);\r\n      }\r\n      \r\n      function getReportedDweets() public view onlyAllowedUser(msg.sender) returns(uint[] memory list){\r\n          return(dweetsReportedList);\r\n      }\r\n      \r\n      function getReportedDweetStatus(uint _dweetId) public view onlyAllowedUser(msg.sender) returns(reportAction status){\r\n          return(actionOnDweet[_dweetId]);\r\n      }\r\n      \r\n      \r\n/*\r\n*******************************************Advertisement **************************************************************\r\n*/\r\n      uint public advertisementCost=121567164097875008;\r\n      uint public totalAdvertisements=0;\r\n      \r\n      enum AdApprovalStatus{NP, Approved, Rejected}\r\n      \r\n      struct Advertisement{\r\n        uint id;\r\n        address advertiser;\r\n        string imgHash;\r\n        string link;\r\n        AdApprovalStatus status;\r\n        uint expiry;\r\n      }\r\n      \r\n      modifier paidEnoughforAdvertisement() { require(msg.value >= advertisementCost); _;}\r\n        \r\n      modifier checkValueforAdvertisement() {\r\n        _;\r\n        uint amountToRefund = msg.value - advertisementCost;\r\n        msg.sender.transfer(amountToRefund);\r\n      }\r\n      \r\n      mapping(address=>uint[]) public advertiserAdvertisementsList;\r\n      mapping(uint=>Advertisement) private advertisements;\r\n      uint[] private advertisementsList;\r\n      \r\n      function submitAdvertisement(string memory _imgHash, string memory _link) public payable onlyAllowedUser(msg.sender) paidEnoughforAdvertisement checkValueforAdvertisement{\r\n          uint id=++totalAdvertisements;\r\n          advertisements[id]=Advertisement(id, msg.sender, _imgHash, _link, AdApprovalStatus.NP, 0);\r\n          advertisementsList.push(id);\r\n          advertiserAdvertisementsList[msg.sender].push(id);\r\n      }\r\n      \r\n      function advertisementApproval(uint _id, bool _decision) public onlyMaintainer{\r\n          require(advertisements[_id].status==AdApprovalStatus.NP);\r\n          if(_decision){\r\n              advertisements[_id].status=AdApprovalStatus.Approved;\r\n              advertisements[_id].expiry=block.timestamp+ 1 days;\r\n          }else{\r\n              advertisements[_id].status=AdApprovalStatus.Rejected;\r\n              uint refund=advertisementCost.mul(8).div(100);\r\n              msg.sender.transfer(refund);\r\n          }\r\n      }\r\n      \r\n      function getAds() public view onlyAllowedUser(msg.sender) returns(uint[] memory list){\r\n          return(advertisementsList);\r\n      }\r\n      \r\n      function getAd(uint _id) public view onlyAllowedUser(msg.sender) returns(address advertiser, string memory imgHash, string memory link, AdApprovalStatus status, uint expiry){\r\n          return(advertisements[_id].advertiser, advertisements[_id].imgHash, advertisements[_id].link, advertisements[_id].status, advertisements[_id].expiry);\r\n      }\r\n      \r\n      function myAdvertisements() public view onlyAllowedUser(msg.sender) returns(uint[] memory list){\r\n          return(advertiserAdvertisementsList[msg.sender]);\r\n      }\r\n      \r\n        \r\n    }",
  "sourcePath": "C:/Users/MOHITBHAT/Desktop/MYPERSONAL/CONSENSYS_ACADEMY_COURSE/PROJECT/Decentralized_Social_Media/contracts/dwitter.sol",
  "compiler": {
    "name": "solc",
    "version": "0.6.1+commit.e6f7d5a4.Emscripten.clang"
  },
  "schemaVersion": "3.3.2",
  "updatedAt": "2020-12-27T13:03:10.326Z",
  "networkType": "ethereum",
  "devdoc": {
    "author": "Mohit Bhat",
    "details": "Most of the features are implemented keeping note of security concerns",
    "methods": {
      "getUserComments()": {
        "details": "Though onlyAllowedUser can be bypassed easily but still keeping for general audience "
      }
    },
    "title": "A Decentralised Social Media Platform"
  },
  "userdoc": {
    "methods": {},
    "notice": "You can use this contract to connect to decentralised social network, share your content to the world"
  }
}