{
  "contractName": "Dwitter",
  "abi": [
    {
      "inputs": [],
      "stateMutability": "nonpayable",
      "type": "constructor"
    },
    {
      "anonymous": false,
      "inputs": [
        {
          "indexed": false,
          "internalType": "uint256",
          "name": "id",
          "type": "uint256"
        },
        {
          "indexed": false,
          "internalType": "uint256",
          "name": "maintainer",
          "type": "uint256"
        }
      ],
      "name": "logAdvertisementApproved",
      "type": "event"
    },
    {
      "anonymous": false,
      "inputs": [
        {
          "indexed": false,
          "internalType": "uint256",
          "name": "id",
          "type": "uint256"
        },
        {
          "indexed": false,
          "internalType": "uint256",
          "name": "maintainer",
          "type": "uint256"
        }
      ],
      "name": "logAdvertisementRejected",
      "type": "event"
    },
    {
      "anonymous": false,
      "inputs": [
        {
          "indexed": false,
          "internalType": "uint256",
          "name": "id",
          "type": "uint256"
        },
        {
          "indexed": false,
          "internalType": "string",
          "name": "hashtag",
          "type": "string"
        },
        {
          "indexed": false,
          "internalType": "uint256",
          "name": "maintainer",
          "type": "uint256"
        }
      ],
      "name": "logDweetBanned",
      "type": "event"
    },
    {
      "anonymous": false,
      "inputs": [
        {
          "indexed": false,
          "internalType": "address",
          "name": "author",
          "type": "address"
        },
        {
          "indexed": false,
          "internalType": "uint256",
          "name": "userid",
          "type": "uint256"
        },
        {
          "indexed": false,
          "internalType": "uint256",
          "name": "dweetid",
          "type": "uint256"
        },
        {
          "indexed": false,
          "internalType": "string",
          "name": "hashtag",
          "type": "string"
        }
      ],
      "name": "logDweetCreated",
      "type": "event"
    },
    {
      "anonymous": false,
      "inputs": [
        {
          "indexed": false,
          "internalType": "uint256",
          "name": "id",
          "type": "uint256"
        },
        {
          "indexed": false,
          "internalType": "string",
          "name": "hashtag",
          "type": "string"
        }
      ],
      "name": "logDweetDeleted",
      "type": "event"
    },
    {
      "anonymous": false,
      "inputs": [
        {
          "indexed": false,
          "internalType": "uint256",
          "name": "id",
          "type": "uint256"
        },
        {
          "indexed": false,
          "internalType": "string",
          "name": "hashtag",
          "type": "string"
        },
        {
          "indexed": false,
          "internalType": "uint256",
          "name": "maintainer",
          "type": "uint256"
        }
      ],
      "name": "logDweetFreed",
      "type": "event"
    },
    {
      "anonymous": false,
      "inputs": [
        {
          "indexed": false,
          "internalType": "uint256",
          "name": "id",
          "type": "uint256"
        },
        {
          "indexed": false,
          "internalType": "string",
          "name": "hashtag",
          "type": "string"
        }
      ],
      "name": "logDweetReported",
      "type": "event"
    },
    {
      "anonymous": false,
      "inputs": [
        {
          "indexed": false,
          "internalType": "address",
          "name": "user",
          "type": "address"
        },
        {
          "indexed": false,
          "internalType": "uint256",
          "name": "id",
          "type": "uint256"
        }
      ],
      "name": "logRegisterUser",
      "type": "event"
    },
    {
      "anonymous": false,
      "inputs": [
        {
          "indexed": false,
          "internalType": "address",
          "name": "user",
          "type": "address"
        },
        {
          "indexed": false,
          "internalType": "uint256",
          "name": "id",
          "type": "uint256"
        }
      ],
      "name": "logUserBanned",
      "type": "event"
    },
    {
      "stateMutability": "nonpayable",
      "type": "fallback"
    },
    {
      "inputs": [],
      "name": "advertisementCost",
      "outputs": [
        {
          "internalType": "uint256",
          "name": "",
          "type": "uint256"
        }
      ],
      "stateMutability": "view",
      "type": "function",
      "constant": true
    },
    {
      "inputs": [
        {
          "internalType": "address",
          "name": "",
          "type": "address"
        },
        {
          "internalType": "uint256",
          "name": "",
          "type": "uint256"
        }
      ],
      "name": "advertiserAdvertisementsList",
      "outputs": [
        {
          "internalType": "uint256",
          "name": "",
          "type": "uint256"
        }
      ],
      "stateMutability": "view",
      "type": "function",
      "constant": true
    },
    {
      "inputs": [
        {
          "internalType": "address",
          "name": "",
          "type": "address"
        }
      ],
      "name": "isMaintainer",
      "outputs": [
        {
          "internalType": "bool",
          "name": "",
          "type": "bool"
        }
      ],
      "stateMutability": "view",
      "type": "function",
      "constant": true
    },
    {
      "inputs": [],
      "name": "owner",
      "outputs": [
        {
          "internalType": "address payable",
          "name": "",
          "type": "address"
        }
      ],
      "stateMutability": "view",
      "type": "function",
      "constant": true
    },
    {
      "inputs": [],
      "name": "reportingRewardPrice",
      "outputs": [
        {
          "internalType": "uint256",
          "name": "",
          "type": "uint256"
        }
      ],
      "stateMutability": "view",
      "type": "function",
      "constant": true
    },
    {
      "inputs": [],
      "name": "reportingstakePrice",
      "outputs": [
        {
          "internalType": "uint256",
          "name": "",
          "type": "uint256"
        }
      ],
      "stateMutability": "view",
      "type": "function",
      "constant": true
    },
    {
      "inputs": [],
      "name": "stopped",
      "outputs": [
        {
          "internalType": "bool",
          "name": "",
          "type": "bool"
        }
      ],
      "stateMutability": "view",
      "type": "function",
      "constant": true
    },
    {
      "inputs": [],
      "name": "totalAdvertisements",
      "outputs": [
        {
          "internalType": "uint256",
          "name": "",
          "type": "uint256"
        }
      ],
      "stateMutability": "view",
      "type": "function",
      "constant": true
    },
    {
      "inputs": [],
      "name": "totalComments",
      "outputs": [
        {
          "internalType": "uint256",
          "name": "",
          "type": "uint256"
        }
      ],
      "stateMutability": "view",
      "type": "function",
      "constant": true
    },
    {
      "inputs": [],
      "name": "totalDweets",
      "outputs": [
        {
          "internalType": "uint256",
          "name": "",
          "type": "uint256"
        }
      ],
      "stateMutability": "view",
      "type": "function",
      "constant": true
    },
    {
      "inputs": [],
      "name": "totalMaintainers",
      "outputs": [
        {
          "internalType": "uint256",
          "name": "",
          "type": "uint256"
        }
      ],
      "stateMutability": "view",
      "type": "function",
      "constant": true
    },
    {
      "inputs": [],
      "name": "totalUsers",
      "outputs": [
        {
          "internalType": "uint256",
          "name": "",
          "type": "uint256"
        }
      ],
      "stateMutability": "view",
      "type": "function",
      "constant": true
    },
    {
      "inputs": [
        {
          "internalType": "address",
          "name": "",
          "type": "address"
        },
        {
          "internalType": "uint256",
          "name": "",
          "type": "uint256"
        }
      ],
      "name": "userReportList",
      "outputs": [
        {
          "internalType": "uint256",
          "name": "",
          "type": "uint256"
        }
      ],
      "stateMutability": "view",
      "type": "function",
      "constant": true
    },
    {
      "inputs": [
        {
          "internalType": "string",
          "name": "_username",
          "type": "string"
        }
      ],
      "name": "usernameAvailable",
      "outputs": [
        {
          "internalType": "bool",
          "name": "status",
          "type": "bool"
        }
      ],
      "stateMutability": "view",
      "type": "function",
      "constant": true
    },
    {
      "inputs": [
        {
          "internalType": "string",
          "name": "_username",
          "type": "string"
        },
        {
          "internalType": "string",
          "name": "_name",
          "type": "string"
        },
        {
          "internalType": "string",
          "name": "_imgHash",
          "type": "string"
        },
        {
          "internalType": "string",
          "name": "_coverHash",
          "type": "string"
        },
        {
          "internalType": "string",
          "name": "_bio",
          "type": "string"
        }
      ],
      "name": "registerUser",
      "outputs": [],
      "stateMutability": "nonpayable",
      "type": "function"
    },
    {
      "inputs": [],
      "name": "userStatus",
      "outputs": [
        {
          "internalType": "enum Dwitter.accountStatus",
          "name": "status",
          "type": "uint8"
        }
      ],
      "stateMutability": "view",
      "type": "function",
      "constant": true
    },
    {
      "inputs": [
        {
          "internalType": "string",
          "name": "_username",
          "type": "string"
        }
      ],
      "name": "changeUsername",
      "outputs": [],
      "stateMutability": "nonpayable",
      "type": "function"
    },
    {
      "inputs": [
        {
          "internalType": "address",
          "name": "_user",
          "type": "address"
        }
      ],
      "name": "getUser",
      "outputs": [
        {
          "internalType": "uint256",
          "name": "id",
          "type": "uint256"
        },
        {
          "internalType": "string",
          "name": "username",
          "type": "string"
        },
        {
          "internalType": "string",
          "name": "name",
          "type": "string"
        },
        {
          "internalType": "string",
          "name": "imghash",
          "type": "string"
        },
        {
          "internalType": "string",
          "name": "coverhash",
          "type": "string"
        },
        {
          "internalType": "string",
          "name": "bio",
          "type": "string"
        }
      ],
      "stateMutability": "view",
      "type": "function",
      "constant": true
    },
    {
      "inputs": [],
      "name": "getUser",
      "outputs": [
        {
          "internalType": "uint256",
          "name": "id",
          "type": "uint256"
        },
        {
          "internalType": "string",
          "name": "username",
          "type": "string"
        },
        {
          "internalType": "string",
          "name": "name",
          "type": "string"
        },
        {
          "internalType": "string",
          "name": "imghash",
          "type": "string"
        },
        {
          "internalType": "string",
          "name": "coverhash",
          "type": "string"
        },
        {
          "internalType": "string",
          "name": "bio",
          "type": "string"
        }
      ],
      "stateMutability": "view",
      "type": "function",
      "constant": true
    },
    {
      "inputs": [
        {
          "internalType": "string",
          "name": "_hashtag",
          "type": "string"
        },
        {
          "internalType": "string",
          "name": "_content",
          "type": "string"
        },
        {
          "internalType": "string",
          "name": "_imghash",
          "type": "string"
        }
      ],
      "name": "createDweet",
      "outputs": [],
      "stateMutability": "nonpayable",
      "type": "function"
    },
    {
      "inputs": [
        {
          "internalType": "uint256",
          "name": "_id",
          "type": "uint256"
        },
        {
          "internalType": "string",
          "name": "_hashtag",
          "type": "string"
        },
        {
          "internalType": "string",
          "name": "_content",
          "type": "string"
        },
        {
          "internalType": "string",
          "name": "_imghash",
          "type": "string"
        }
      ],
      "name": "editDweet",
      "outputs": [],
      "stateMutability": "nonpayable",
      "type": "function"
    },
    {
      "inputs": [
        {
          "internalType": "uint256",
          "name": "_id",
          "type": "uint256"
        }
      ],
      "name": "deleteDweet",
      "outputs": [],
      "stateMutability": "nonpayable",
      "type": "function"
    },
    {
      "inputs": [
        {
          "internalType": "uint256",
          "name": "_id",
          "type": "uint256"
        }
      ],
      "name": "getDweet",
      "outputs": [
        {
          "internalType": "address",
          "name": "author",
          "type": "address"
        },
        {
          "internalType": "string",
          "name": "hashtag",
          "type": "string"
        },
        {
          "internalType": "string",
          "name": "content",
          "type": "string"
        },
        {
          "internalType": "string",
          "name": "imgHash",
          "type": "string"
        },
        {
          "internalType": "uint256",
          "name": "timestamp",
          "type": "uint256"
        },
        {
          "internalType": "uint256",
          "name": "likeCount",
          "type": "uint256"
        }
      ],
      "stateMutability": "view",
      "type": "function",
      "constant": true
    },
    {
      "inputs": [
        {
          "internalType": "uint256",
          "name": "_id",
          "type": "uint256"
        }
      ],
      "name": "likeDweet",
      "outputs": [],
      "stateMutability": "nonpayable",
      "type": "function"
    },
    {
      "inputs": [
        {
          "internalType": "address",
          "name": "_user",
          "type": "address"
        }
      ],
      "name": "getUserDweets",
      "outputs": [
        {
          "internalType": "uint256[]",
          "name": "dweetList",
          "type": "uint256[]"
        }
      ],
      "stateMutability": "view",
      "type": "function",
      "constant": true
    },
    {
      "inputs": [],
      "name": "getUserDweets",
      "outputs": [
        {
          "internalType": "uint256[]",
          "name": "dweetList",
          "type": "uint256[]"
        }
      ],
      "stateMutability": "view",
      "type": "function",
      "constant": true
    },
    {
      "inputs": [
        {
          "internalType": "uint256",
          "name": "_dweetid",
          "type": "uint256"
        },
        {
          "internalType": "string",
          "name": "_comment",
          "type": "string"
        }
      ],
      "name": "createComment",
      "outputs": [],
      "stateMutability": "nonpayable",
      "type": "function"
    },
    {
      "inputs": [
        {
          "internalType": "uint256",
          "name": "_commentid",
          "type": "uint256"
        },
        {
          "internalType": "string",
          "name": "_comment",
          "type": "string"
        }
      ],
      "name": "editComment",
      "outputs": [],
      "stateMutability": "nonpayable",
      "type": "function"
    },
    {
      "inputs": [
        {
          "internalType": "uint256",
          "name": "_id",
          "type": "uint256"
        }
      ],
      "name": "deleteComment",
      "outputs": [],
      "stateMutability": "nonpayable",
      "type": "function"
    },
    {
      "inputs": [
        {
          "internalType": "uint256",
          "name": "_id",
          "type": "uint256"
        }
      ],
      "name": "getComment",
      "outputs": [
        {
          "internalType": "address",
          "name": "author",
          "type": "address"
        },
        {
          "internalType": "uint256",
          "name": "dweetId",
          "type": "uint256"
        },
        {
          "internalType": "string",
          "name": "content",
          "type": "string"
        },
        {
          "internalType": "uint256",
          "name": "likeCount",
          "type": "uint256"
        },
        {
          "internalType": "uint256",
          "name": "timestamp",
          "type": "uint256"
        },
        {
          "internalType": "enum Dwitter.cdStatus",
          "name": "status",
          "type": "uint8"
        }
      ],
      "stateMutability": "view",
      "type": "function",
      "constant": true
    },
    {
      "inputs": [
        {
          "internalType": "address",
          "name": "_user",
          "type": "address"
        }
      ],
      "name": "getUserComments",
      "outputs": [
        {
          "internalType": "uint256[]",
          "name": "commentList",
          "type": "uint256[]"
        }
      ],
      "stateMutability": "view",
      "type": "function",
      "constant": true
    },
    {
      "inputs": [],
      "name": "getUserComments",
      "outputs": [
        {
          "internalType": "uint256[]",
          "name": "commentList",
          "type": "uint256[]"
        }
      ],
      "stateMutability": "view",
      "type": "function",
      "constant": true
    },
    {
      "inputs": [
        {
          "internalType": "uint256",
          "name": "_id",
          "type": "uint256"
        }
      ],
      "name": "getDweetComments",
      "outputs": [
        {
          "internalType": "uint256[]",
          "name": "list",
          "type": "uint256[]"
        }
      ],
      "stateMutability": "view",
      "type": "function",
      "constant": true
    },
    {
      "inputs": [
        {
          "internalType": "address",
          "name": "_user",
          "type": "address"
        }
      ],
      "name": "addMaintainer",
      "outputs": [],
      "stateMutability": "nonpayable",
      "type": "function"
    },
    {
      "inputs": [
        {
          "internalType": "address",
          "name": "_user",
          "type": "address"
        }
      ],
      "name": "revokeMaintainer",
      "outputs": [],
      "stateMutability": "nonpayable",
      "type": "function"
    },
    {
      "inputs": [
        {
          "internalType": "uint256",
          "name": "_dweetId",
          "type": "uint256"
        }
      ],
      "name": "reportDweet",
      "outputs": [],
      "stateMutability": "payable",
      "type": "function",
      "payable": true
    },
    {
      "inputs": [
        {
          "internalType": "uint256",
          "name": "_dweetId",
          "type": "uint256"
        },
        {
          "internalType": "bool",
          "name": "_action",
          "type": "bool"
        }
      ],
      "name": "takeAction",
      "outputs": [],
      "stateMutability": "nonpayable",
      "type": "function"
    },
    {
      "inputs": [
        {
          "internalType": "uint256",
          "name": "_id",
          "type": "uint256"
        }
      ],
      "name": "claimReportingReward",
      "outputs": [],
      "stateMutability": "nonpayable",
      "type": "function"
    },
    {
      "inputs": [],
      "name": "claimSuitReward",
      "outputs": [],
      "stateMutability": "nonpayable",
      "type": "function"
    },
    {
      "inputs": [],
      "name": "myReportings",
      "outputs": [
        {
          "internalType": "uint256[]",
          "name": "list",
          "type": "uint256[]"
        }
      ],
      "stateMutability": "view",
      "type": "function",
      "constant": true
    },
    {
      "inputs": [
        {
          "internalType": "uint256",
          "name": "_id",
          "type": "uint256"
        }
      ],
      "name": "reportingClaimStatus",
      "outputs": [
        {
          "internalType": "enum Dwitter.userdweetReportingStatus",
          "name": "status",
          "type": "uint8"
        }
      ],
      "stateMutability": "view",
      "type": "function",
      "constant": true
    },
    {
      "inputs": [],
      "name": "fakeReportingSuitReward",
      "outputs": [
        {
          "internalType": "uint256",
          "name": "balance",
          "type": "uint256"
        }
      ],
      "stateMutability": "view",
      "type": "function",
      "constant": true
    },
    {
      "inputs": [],
      "name": "getReportedDweets",
      "outputs": [
        {
          "internalType": "uint256[]",
          "name": "list",
          "type": "uint256[]"
        }
      ],
      "stateMutability": "view",
      "type": "function",
      "constant": true
    },
    {
      "inputs": [
        {
          "internalType": "uint256",
          "name": "_dweetId",
          "type": "uint256"
        }
      ],
      "name": "getReportedDweetStatus",
      "outputs": [
        {
          "internalType": "enum Dwitter.reportAction",
          "name": "status",
          "type": "uint8"
        }
      ],
      "stateMutability": "view",
      "type": "function",
      "constant": true
    },
    {
      "inputs": [
        {
          "internalType": "string",
          "name": "_imgHash",
          "type": "string"
        },
        {
          "internalType": "string",
          "name": "_link",
          "type": "string"
        }
      ],
      "name": "submitAdvertisement",
      "outputs": [],
      "stateMutability": "payable",
      "type": "function",
      "payable": true
    },
    {
      "inputs": [
        {
          "internalType": "uint256",
          "name": "_id",
          "type": "uint256"
        },
        {
          "internalType": "bool",
          "name": "_decision",
          "type": "bool"
        }
      ],
      "name": "advertisementApproval",
      "outputs": [],
      "stateMutability": "nonpayable",
      "type": "function"
    },
    {
      "inputs": [],
      "name": "getAds",
      "outputs": [
        {
          "internalType": "uint256[]",
          "name": "list",
          "type": "uint256[]"
        }
      ],
      "stateMutability": "view",
      "type": "function",
      "constant": true
    },
    {
      "inputs": [
        {
          "internalType": "uint256",
          "name": "_id",
          "type": "uint256"
        }
      ],
      "name": "getAd",
      "outputs": [
        {
          "internalType": "address",
          "name": "advertiser",
          "type": "address"
        },
        {
          "internalType": "string",
          "name": "imgHash",
          "type": "string"
        },
        {
          "internalType": "string",
          "name": "link",
          "type": "string"
        },
        {
          "internalType": "enum Dwitter.AdApprovalStatus",
          "name": "status",
          "type": "uint8"
        },
        {
          "internalType": "uint256",
          "name": "expiry",
          "type": "uint256"
        }
      ],
      "stateMutability": "view",
      "type": "function",
      "constant": true
    },
    {
      "inputs": [],
      "name": "myAdvertisements",
      "outputs": [
        {
          "internalType": "uint256[]",
          "name": "list",
          "type": "uint256[]"
        }
      ],
      "stateMutability": "view",
      "type": "function",
      "constant": true
    },
    {
      "inputs": [
        {
          "internalType": "uint256",
          "name": "_id",
          "type": "uint256"
        }
      ],
      "name": "getAdvertisementStatus",
      "outputs": [
        {
          "internalType": "enum Dwitter.AdApprovalStatus",
          "name": "status",
          "type": "uint8"
        }
      ],
      "stateMutability": "view",
      "type": "function",
      "constant": true
    },
    {
      "inputs": [],
      "name": "getBalance",
      "outputs": [
        {
          "internalType": "uint256",
          "name": "balance",
          "type": "uint256"
        }
      ],
      "stateMutability": "view",
      "type": "function",
      "constant": true
    },
    {
      "inputs": [
        {
          "internalType": "uint256",
          "name": "_amount",
          "type": "uint256"
        }
      ],
      "name": "transferContractBalance",
      "outputs": [],
      "stateMutability": "nonpayable",
      "type": "function"
    },
    {
      "inputs": [],
      "name": "stopDapp",
      "outputs": [],
      "stateMutability": "nonpayable",
      "type": "function"
    },
    {
      "inputs": [],
      "name": "startDapp",
      "outputs": [],
      "stateMutability": "nonpayable",
      "type": "function"
    },
    {
      "inputs": [
        {
          "internalType": "address payable",
          "name": "_newOwner",
          "type": "address"
        }
      ],
      "name": "changeOwner",
      "outputs": [],
      "stateMutability": "nonpayable",
      "type": "function"
    }
  ],
  "bytecode": "0x60806040526000805460ff60a01b19168155600181815560028290556003829055600d829055600f556606e132f19a2944601055660dc265e3345288601155670157fbf3301c0f40601955601a553480156200005a57600080fd5b50600080546001600160a01b031916339081179091556200007b906200010b565b620001056040518060400160405280600581526020016437bbb732b960d91b8152506040518060400160405280600581526020016437bbb732b960d91b81525060405180602001604052806000815250604051806020016040528060008152506040518060400160405280600581526020016437bbb732b960d91b815250620001b660201b60201c565b620006ec565b6000546001600160a01b0316331462000160576040805162461bcd60e51b8152602060048201526012602482015271596f7520617265206e6f74206f776e65722160701b604482015290519081900360640190fd5b6001600160a01b0381166000908152601260209081526040909120805460ff19166001908117909155600d54620001a39290919062005728620005de821b17901c565b3360009081526013602052604090205550565b600054600160a01b900460ff161562000216576040805162461bcd60e51b815260206004820152601660248201527f4461707020686173206265656e2073746f707065642100000000000000000000604482015290519081900360640190fd5b3360008181526004602052604081206007015460ff1660038111156200023857fe5b146200028b576040805162461bcd60e51b815260206004820152601760248201527f5573657220616c72656164792072656769737465726564000000000000000000604482015290519081900360640190fd5b856006816040518082805190602001908083835b60208310620002c05780518252601f1990920191602091820191016200029f565b51815160209384036101000a600019018019909216911617905292019485525060405193849003019092205460ff16159150620003469050576040805162461bcd60e51b815260206004820152601660248201527f557365726e616d6520616c72656164792074616b656e00000000000000000000604482015290519081900360640190fd5b60016006886040518082805190602001908083835b602083106200037c5780518252601f1990920191602091820191016200035b565b51815160209384036101000a6000190180199092169116179052920194855250604051938490038101909320805460ff1916941515949094179093555060035460009250620003d791600190620005de811b6200572817901c565b9050604051806101000160405280828152602001336001600160a01b03168152602001898152602001888152602001878152602001868152602001858152602001600160038111156200042657fe5b90523360009081526004602090815260409182902083518155838201516001820180546001600160a01b0319166001600160a01b039092169190911790559183015180516200047c926002850192019062000640565b50606082015180516200049a91600384019160209091019062000640565b5060808201518051620004b891600484019160209091019062000640565b5060a08201518051620004d691600584019160209091019062000640565b5060c08201518051620004f491600684019160209091019062000640565b5060e082015160078201805460ff191660018360038111156200051357fe5b0217905550905050336005896040518082805190602001908083835b60208310620005505780518252601f1990920191602091820191016200052f565b51815160209384036101000a600019018019909216911617905292019485525060408051948590038201852080546001600160a01b0319166001600160a01b03979097169690961790955560035433855290840152505081517fabc58c36475157c4ac7669f9adfbb6f254d3a3578fb89676f6866ac3b9950eed929181900390910190a15050505050505050565b60008282018381101562000639576040805162461bcd60e51b815260206004820152601b60248201527f536166654d6174683a206164646974696f6e206f766572666c6f770000000000604482015290519081900360640190fd5b9392505050565b828054600181600116156101000203166002900490600052602060002090601f016020900481019282620006785760008555620006c3565b82601f106200069357805160ff1916838001178555620006c3565b82800160010185558215620006c3579182015b82811115620006c3578251825591602001919060010190620006a6565b50620006d1929150620006d5565b5090565b5b80821115620006d15760008155600101620006d6565b615d9880620006fc6000396000f3fe6080604052600436106103505760003560e01c8063830426ee116101c6578063bddb2b64116100f7578063ef8e419711610095578063f8264f811161006f578063f8264f811461191a578063f98be5811461192f578063fc3e562e14611959578063fc9c6a151461196e57610350565b8063ef8e419714611735578063efde46851461174a578063f717793b1461175f57610350565b8063bff1f9e1116100d1578063bff1f9e114611501578063d354f39214611516578063db80552d14611540578063dd57366a1461170257610350565b8063bddb2b6414611489578063be06db451461149e578063beee20dc146114d757610350565b80639d096b9711610164578063aabeceb01161013e578063aabeceb0146110e2578063ac9f0a40146110f7578063ad816029146113bc578063b9f069081461147457610350565b80639d096b971461104b578063a26eadff1461107d578063a6f9dae1146110af57610350565b80638da5cb5b116101a05780638da5cb5b14610fcb578063939327a114610ffc57806395d2cc921461102157806398f4538c1461103657610350565b8063830426ee14610e78578063832880e714610e8d5780638b041a0314610ea257610350565b806348c87bdb116102a0578063719b741d1161023e57806377c846af1161021857806377c846af14610c9a5780637d0b102614610d4b5780637ede1c0714610d75578063825622d014610e6357610350565b8063719b741d14610bab57806374ebaadc14610bc057806375f12b2114610c8557610350565b806361936b811161027a57806361936b81146108fc578063668df506146109115780636b453c1f1461092e5780636f77926b1461096157610350565b806348c87bdb1461087e5780634aa6600e146108a857806350931c81146108d257610350565b80631d83417a1161030d5780632f008262116102e75780632f0082621461076957806333aa01e91461077e57806337d33ac91461079357806340a17985146107c657610350565b80631d83417a146105715780631e54248e146106fd5780632b3c6e221461073657610350565b806302d90f241461036257806306681ad81461038e5780630800e300146103c15780630955ae991461049a57806312065fe0146104ff5780631bf6e71a14610526575b34801561035c57600080fd5b50600080fd5b34801561036e57600080fd5b5061038c6004803603602081101561038557600080fd5b5035611983565b005b34801561039a57600080fd5b5061038c600480360360208110156103b157600080fd5b50356001600160a01b0316611b17565b3480156103cd57600080fd5b506103eb600480360360208110156103e457600080fd5b5035611b8c565b60405180876001600160a01b031681526020018681526020018060200185815260200184815260200183600381111561042057fe5b8152602001828103825286818151815260200191508051906020019080838360005b8381101561045a578181015183820152602001610442565b50505050905090810190601f1680156104875780820380516001836020036101000a031916815260200191505b5097505050505050505060405180910390f35b3480156104a657600080fd5b506104af611d55565b60408051602080825283518183015283519192839290830191858101910280838360005b838110156104eb5781810151838201526020016104d3565b505050509050019250505060405180910390f35b34801561050b57600080fd5b50610514611e1c565b60408051918252519081900360200190f35b34801561053257600080fd5b506105506004803603602081101561054957600080fd5b5035611e76565b6040518082600281111561056057fe5b815260200191505060405180910390f35b34801561057d57600080fd5b5061059b6004803603602081101561059457600080fd5b5035611efc565b60405180876001600160a01b03168152602001806020018060200180602001868152602001858152602001848103845289818151815260200191508051906020019080838360005b838110156105fb5781810151838201526020016105e3565b50505050905090810190601f1680156106285780820380516001836020036101000a031916815260200191505b5084810383528851815288516020918201918a019080838360005b8381101561065b578181015183820152602001610643565b50505050905090810190601f1680156106885780820380516001836020036101000a031916815260200191505b50848103825287518152875160209182019189019080838360005b838110156106bb5781810151838201526020016106a3565b50505050905090810190601f1680156106e85780820380516001836020036101000a031916815260200191505b50995050505050505050505060405180910390f35b34801561070957600080fd5b506105146004803603604081101561072057600080fd5b506001600160a01b0381351690602001356121d6565b34801561074257600080fd5b506104af6004803603602081101561075957600080fd5b50356001600160a01b0316612207565b34801561077557600080fd5b506104af6122e1565b34801561078a57600080fd5b5061038c6123a5565b34801561079f57600080fd5b506104af600480360360208110156107b657600080fd5b50356001600160a01b031661245f565b3480156107d257600080fd5b5061038c600480360360408110156107e957600080fd5b81359190810190604081016020820135600160201b81111561080a57600080fd5b82018360208201111561081c57600080fd5b803590602001918460018302840111600160201b8311171561083d57600080fd5b91908080601f016020809104026020016040519081016040528093929190818152602001838380828437600092019190915250929550612537945050505050565b34801561088a57600080fd5b50610550600480360360208110156108a157600080fd5b5035612779565b3480156108b457600080fd5b50610550600480360360208110156108cb57600080fd5b5035612802565b3480156108de57600080fd5b5061038c600480360360208110156108f557600080fd5b5035612893565b34801561090857600080fd5b506105146129ce565b61038c6004803603602081101561092757600080fd5b50356129d4565b34801561093a57600080fd5b5061038c6004803603602081101561095157600080fd5b50356001600160a01b0316612d75565b34801561096d57600080fd5b506109946004803603602081101561098457600080fd5b50356001600160a01b0316612e0e565b60405180878152602001806020018060200180602001806020018060200186810386528b818151815260200191508051906020019080838360005b838110156109e75781810151838201526020016109cf565b50505050905090810190601f168015610a145780820380516001836020036101000a031916815260200191505b5086810385528a5181528a516020918201918c019080838360005b83811015610a47578181015183820152602001610a2f565b50505050905090810190601f168015610a745780820380516001836020036101000a031916815260200191505b5086810384528951815289516020918201918b019080838360005b83811015610aa7578181015183820152602001610a8f565b50505050905090810190601f168015610ad45780820380516001836020036101000a031916815260200191505b5086810383528851815288516020918201918a019080838360005b83811015610b07578181015183820152602001610aef565b50505050905090810190601f168015610b345780820380516001836020036101000a031916815260200191505b50868103825287518152875160209182019189019080838360005b83811015610b67578181015183820152602001610b4f565b50505050905090810190601f168015610b945780820380516001836020036101000a031916815260200191505b509b50505050505050505050505060405180910390f35b348015610bb757600080fd5b506104af613121565b348015610bcc57600080fd5b50610c7160048036036020811015610be357600080fd5b810190602081018135600160201b811115610bfd57600080fd5b820183602082011115610c0f57600080fd5b803590602001918460018302840111600160201b83111715610c3057600080fd5b91908080601f0160208091040260200160405190810160405280939291908181526020018383808284376000920191909152509295506131ee945050505050565b604080519115158252519081900360200190f35b348015610c9157600080fd5b50610c7161325a565b348015610ca657600080fd5b5061038c60048036036020811015610cbd57600080fd5b810190602081018135600160201b811115610cd757600080fd5b820183602082011115610ce957600080fd5b803590602001918460018302840111600160201b83111715610d0a57600080fd5b91908080601f01602080910402602001604051908101604052809392919081815260200183838082843760009201919091525092955061326a945050505050565b348015610d5757600080fd5b5061038c60048036036020811015610d6e57600080fd5b50356133f8565b348015610d8157600080fd5b50610d9f60048036036020811015610d9857600080fd5b50356135f1565b60405180866001600160a01b031681526020018060200180602001856002811115610dc657fe5b8152602001848152602001838103835287818151815260200191508051906020019080838360005b83811015610e06578181015183820152602001610dee565b50505050905090810190601f168015610e335780820380516001836020036101000a031916815260200191505b5083810382528651815286516020918201918801908083836000831561045a578181015183820152602001610442565b348015610e6f57600080fd5b506104af6137d2565b348015610e8457600080fd5b5061051461389f565b348015610e9957600080fd5b506109946138a5565b61038c60048036036040811015610eb857600080fd5b810190602081018135600160201b811115610ed257600080fd5b820183602082011115610ee457600080fd5b803590602001918460018302840111600160201b83111715610f0557600080fd5b91908080601f0160208091040260200160405190810160405280939291908181526020018383808284376000920191909152509295949360208101935035915050600160201b811115610f5757600080fd5b820183602082011115610f6957600080fd5b803590602001918460018302840111600160201b83111715610f8a57600080fd5b91908080601f016020809104026020016040519081016040528093929190818152602001838380828437600092019190915250929550613bae945050505050565b348015610fd757600080fd5b50610fe0613d8d565b604080516001600160a01b039092168252519081900360200190f35b34801561100857600080fd5b50611011613d9c565b6040518082600381111561056057fe5b34801561102d57600080fd5b5061038c613db5565b34801561104257600080fd5b50610514613e68565b34801561105757600080fd5b5061038c6004803603604081101561106e57600080fd5b50803590602001351515613e6e565b34801561108957600080fd5b5061038c600480360360408110156110a057600080fd5b50803590602001351515614085565b3480156110bb57600080fd5b5061038c600480360360208110156110d257600080fd5b50356001600160a01b03166143a3565b3480156110ee57600080fd5b506104af614419565b34801561110357600080fd5b5061038c600480360360a081101561111a57600080fd5b810190602081018135600160201b81111561113457600080fd5b82018360208201111561114657600080fd5b803590602001918460018302840111600160201b8311171561116757600080fd5b91908080601f0160208091040260200160405190810160405280939291908181526020018383808284376000920191909152509295949360208101935035915050600160201b8111156111b957600080fd5b8201836020820111156111cb57600080fd5b803590602001918460018302840111600160201b831117156111ec57600080fd5b91908080601f0160208091040260200160405190810160405280939291908181526020018383808284376000920191909152509295949360208101935035915050600160201b81111561123e57600080fd5b82018360208201111561125057600080fd5b803590602001918460018302840111600160201b8311171561127157600080fd5b91908080601f0160208091040260200160405190810160405280939291908181526020018383808284376000920191909152509295949360208101935035915050600160201b8111156112c357600080fd5b8201836020820111156112d557600080fd5b803590602001918460018302840111600160201b831117156112f657600080fd5b91908080601f0160208091040260200160405190810160405280939291908181526020018383808284376000920191909152509295949360208101935035915050600160201b81111561134857600080fd5b82018360208201111561135a57600080fd5b803590602001918460018302840111600160201b8311171561137b57600080fd5b91908080601f0160208091040260200160405190810160405280939291908181526020018383808284376000920191909152509295506144e6945050505050565b3480156113c857600080fd5b5061038c600480360360408110156113df57600080fd5b81359190810190604081016020820135600160201b81111561140057600080fd5b82018360208201111561141257600080fd5b803590602001918460018302840111600160201b8311171561143357600080fd5b91908080601f0160208091040260200160405190810160405280939291908181526020018383808284376000920191909152509295506148d2945050505050565b34801561148057600080fd5b50610514614a82565b34801561149557600080fd5b50610514614a88565b3480156114aa57600080fd5b50610514600480360360408110156114c157600080fd5b506001600160a01b038135169060200135614b0c565b3480156114e357600080fd5b5061038c600480360360208110156114fa57600080fd5b5035614b28565b34801561150d57600080fd5b50610514614be8565b34801561152257600080fd5b506104af6004803603602081101561153957600080fd5b5035614bee565b34801561154c57600080fd5b5061038c6004803603608081101561156357600080fd5b81359190810190604081016020820135600160201b81111561158457600080fd5b82018360208201111561159657600080fd5b803590602001918460018302840111600160201b831117156115b757600080fd5b91908080601f0160208091040260200160405190810160405280939291908181526020018383808284376000920191909152509295949360208101935035915050600160201b81111561160957600080fd5b82018360208201111561161b57600080fd5b803590602001918460018302840111600160201b8311171561163c57600080fd5b91908080601f0160208091040260200160405190810160405280939291908181526020018383808284376000920191909152509295949360208101935035915050600160201b81111561168e57600080fd5b8201836020820111156116a057600080fd5b803590602001918460018302840111600160201b831117156116c157600080fd5b91908080601f016020809104026020016040519081016040528093929190818152602001838380828437600092019190915250929550614d29945050505050565b34801561170e57600080fd5b50610c716004803603602081101561172557600080fd5b50356001600160a01b0316614f25565b34801561174157600080fd5b50610514614f3a565b34801561175657600080fd5b5061038c614f40565b34801561176b57600080fd5b5061038c6004803603606081101561178257600080fd5b810190602081018135600160201b81111561179c57600080fd5b8201836020820111156117ae57600080fd5b803590602001918460018302840111600160201b831117156117cf57600080fd5b91908080601f0160208091040260200160405190810160405280939291908181526020018383808284376000920191909152509295949360208101935035915050600160201b81111561182157600080fd5b82018360208201111561183357600080fd5b803590602001918460018302840111600160201b8311171561185457600080fd5b91908080601f0160208091040260200160405190810160405280939291908181526020018383808284376000920191909152509295949360208101935035915050600160201b8111156118a657600080fd5b8201836020820111156118b857600080fd5b803590602001918460018302840111600160201b831117156118d957600080fd5b91908080601f01602080910402602001604051908101604052809392919081815260200183838082843760009201919091525092955061503b945050505050565b34801561192657600080fd5b5061051461531c565b34801561193b57600080fd5b5061038c6004803603602081101561195257600080fd5b5035615322565b34801561196557600080fd5b506104af615655565b34801561197a57600080fd5b50610514615722565b3360008181526004602052604090206007015460019060ff1660038111156119a757fe5b146119e7576040805162461bcd60e51b81526020600482015260166024820152600080516020615d1b833981519152604482015290519081900360640190fd5b6001600083815260186020908152604080832033845290915290205460ff166002811115611a1157fe5b14611a4d5760405162461bcd60e51b8152600401808060200182810382526028815260200180615d3b6028913960400191505060405180910390fd5b33600090815260166020526040902054611a6657600080fd5b600160008381526015602052604090205460ff166002811115611a8557fe5b14611ac15760405162461bcd60e51b815260040180806020018281038252603c815260200180615c4b603c913960400191505060405180910390fd5b6000828152601860209081526040808320338085529252808320805460ff19166002179055601154905191926108fc8215029290818181858888f19350505050158015611b12573d6000803e3d6000fd5b505050565b6000546001600160a01b03163314611b6b576040805162461bcd60e51b8152602060048201526012602482015271596f7520617265206e6f74206f776e65722160701b604482015290519081900360640190fd5b6001600160a01b03166000908152601260205260409020805460ff19169055565b60008060608180803360016001600160a01b03821660009081526004602052604090206007015460ff166003811115611bc157fe5b14611c01576040805162461bcd60e51b81526020600482015260166024820152600080516020615d1b833981519152604482015290519081900360640190fd5b8760016000828152600a602052604090206006015460ff166003811115611c2457fe5b14611c6d576040805162461bcd60e51b8152602060048201526014602482015273139bdd0818481858dd1a5d994818dbdb5b595b9d60621b604482015290519081900360640190fd5b6000898152600a6020908152604091829020600180820154600280840154600485015460058601546006870154600390970180548a516101009882161598909802600019011694909404601f81018990048902870189019099528886526001600160a01b039094169791969295909460ff9091169290918691830182828015611d375780601f10611d0c57610100808354040283529160200191611d37565b820191906000526020600020905b815481529060010190602001808311611d1a57829003601f168201915b50505050509350975097509750975097509750505091939550919395565b60603360016001600160a01b03821660009081526004602052604090206007015460ff166003811115611d8457fe5b14611dc4576040805162461bcd60e51b81526020600482015260166024820152600080516020615d1b833981519152604482015290519081900360640190fd5b601b805480602002602001604051908101604052809291908181526020018280548015611e1057602002820191906000526020600020905b815481526020019060010190808311611dfc575b505050505091505b5090565b600080546001600160a01b03163314611e71576040805162461bcd60e51b8152602060048201526012602482015271596f7520617265206e6f74206f776e65722160701b604482015290519081900360640190fd5b504790565b60003360016001600160a01b03821660009081526004602052604090206007015460ff166003811115611ea557fe5b14611ee5576040805162461bcd60e51b81526020600482015260166024820152600080516020615d1b833981519152604482015290519081900360640190fd5b505060009081526015602052604090205460ff1690565b60006060808083803360016001600160a01b03821660009081526004602052604090206007015460ff166003811115611f3157fe5b14611f71576040805162461bcd60e51b81526020600482015260166024820152600080516020615d1b833981519152604482015290519081900360640190fd5b87600160008281526007602052604090206008015460ff166003811115611f9457fe5b14611fdb576040805162461bcd60e51b8152602060048201526012602482015271139bdd0818481858dd1a5d9948191dd9595d60721b604482015290519081900360640190fd5b600089815260076020908152604091829020600180820154600583015460068401546002808601805489516101009782161597909702600019011691909104601f81018890048802860188019098528785526001600160a01b039093169692956003860195600401949293919291879183018282801561209c5780601f106120715761010080835404028352916020019161209c565b820191906000526020600020905b81548152906001019060200180831161207f57829003601f168201915b5050875460408051602060026001851615610100026000190190941693909304601f8101849004840282018401909252818152959a508994509250840190508282801561212a5780601f106120ff5761010080835404028352916020019161212a565b820191906000526020600020905b81548152906001019060200180831161210d57829003601f168201915b5050865460408051602060026001851615610100026000190190941693909304601f8101849004840282018401909252818152959950889450925084019050828280156121b85780601f1061218d576101008083540402835291602001916121b8565b820191906000526020600020905b81548152906001019060200180831161219b57829003601f168201915b50505050509250975097509750975097509750505091939550919395565b601660205281600052604060002081815481106121f257600080fd5b90600052602060002001600091509150505481565b60603360016001600160a01b03821660009081526004602052604090206007015460ff16600381111561223657fe5b14612276576040805162461bcd60e51b81526020600482015260166024820152600080516020615d1b833981519152604482015290519081900360640190fd5b6001600160a01b0383166000908152600b6020908152604091829020805483518184028101840190945280845290918301828280156122d457602002820191906000526020600020905b8154815260200190600101908083116122c0575b5050505050915050919050565b60603360016001600160a01b03821660009081526004602052604090206007015460ff16600381111561231057fe5b14612350576040805162461bcd60e51b81526020600482015260166024820152600080516020615d1b833981519152604482015290519081900360640190fd5b600e805480602002602001604051908101604052809291908181526020018280548015611e105760200282019190600052602060002090815481526020019060010190808311611dfc57505050505091505090565b6000546001600160a01b031633146123f9576040805162461bcd60e51b8152602060048201526012602482015271596f7520617265206e6f74206f776e65722160701b604482015290519081900360640190fd5b600054600160a01b900460ff161561244a576040805162461bcd60e51b815260206004820152600f60248201526e105b1c9958591e481cdd1bdc1c1959608a1b604482015290519081900360640190fd5b6000805460ff60a01b1916600160a01b179055565b60603360016001600160a01b03821660009081526004602052604090206007015460ff16600381111561248e57fe5b146124ce576040805162461bcd60e51b81526020600482015260166024820152600080516020615d1b833981519152604482015290519081900360640190fd5b6001600160a01b038316600090815260086020908152604091829020805483518184028101840190945280845290918301828280156122d457602002820191906000526020600020908154815260200190600101908083116122c0575050505050915050919050565b600054600160a01b900460ff1615612584576040805162461bcd60e51b81526020600482015260166024820152600080516020615c2b833981519152604482015290519081900360640190fd5b3360008181526004602052604090206007015460019060ff1660038111156125a857fe5b146125e8576040805162461bcd60e51b81526020600482015260166024820152600080516020615d1b833981519152604482015290519081900360640190fd5b82600160008281526007602052604090206008015460ff16600381111561260b57fe5b14612652576040805162461bcd60e51b8152602060048201526012602482015271139bdd0818481858dd1a5d9948191dd9595d60721b604482015290519081900360640190fd5b600254600090612663906001615728565b6040805160e08101825282815233602082015290810187905260608101869052600060808201524260a082015290915060c08101600190526000828152600a602090815260409182902083518155838201516001820180546001600160a01b0319166001600160a01b03909216919091179055918301516002830155606083015180516126f69260038501920190615b2f565b506080820151600482015560a0820151600582015560c082015160068201805460ff1916600183600381111561272857fe5b021790555050336000908152600b60209081526040808320600280548254600181810185559387528587200155998452600c8352908320985489549182018a55988352912001959095555050505050565b60003360016001600160a01b03821660009081526004602052604090206007015460ff1660038111156127a857fe5b146127e8576040805162461bcd60e51b81526020600482015260166024820152600080516020615d1b833981519152604482015290519081900360640190fd5b50506000908152601d602052604090206004015460ff1690565b60003360016001600160a01b03821660009081526004602052604090206007015460ff16600381111561283157fe5b14612871576040805162461bcd60e51b81526020600482015260166024820152600080516020615d1b833981519152604482015290519081900360640190fd5b5050600090815260186020908152604080832033845290915290205460ff1690565b3360008181526004602052604090206007015460019060ff1660038111156128b757fe5b146128f7576040805162461bcd60e51b81526020600482015260166024820152600080516020615d1b833981519152604482015290519081900360640190fd5b81600160008281526007602052604090206008015460ff16600381111561291a57fe5b14612961576040805162461bcd60e51b8152602060048201526012602482015271139bdd0818481858dd1a5d9948191dd9595d60721b604482015290519081900360640190fd5b600083815260096020908152604080832033845290915290205460ff161561298857600080fd5b6000838152600760205260409020600601546129a5906001615728565b50505060009081526009602090815260408083203384529091529020805460ff19166001179055565b60025481565b80600160008281526007602052604090206008015460ff1660038111156129f757fe5b14612a3e576040805162461bcd60e51b8152602060048201526012602482015271139bdd0818481858dd1a5d9948191dd9595d60721b604482015290519081900360640190fd5b3360008181526004602052604090206007015460019060ff166003811115612a6257fe5b14612aa2576040805162461bcd60e51b81526020600482015260166024820152600080516020615d1b833981519152604482015290519081900360640190fd5b601054341015612ae35760405162461bcd60e51b815260040180806020018281038252602a815260200180615ca8602a913960400191505060405180910390fd5b600f54600084815260076020819052604090912001541115612b365760405162461bcd60e51b8152600401808060200182810382526025815260200180615cd26025913960400191505060405180910390fd5b600083815260146020908152604080832033845290915290205460ff1615612ba5576040805162461bcd60e51b815260206004820152601a60248201527f596f75206861766520616c7265616479205265706f7274656421000000000000604482015290519081900360640190fd5b6000838152601460209081526040808320338085529083528184208054600160ff199182168117909255601685528386208054808401825590875285872001899055888652601885528386209286529184528285208054909216811790915586845260079283905290832090910154612c1d91615728565b9050600f54811415612d2657600e805460018181019092557fbb7b4a454dc3493923482f07822329ed19e8244eff582cc204f8554c3620c3fd01859055600085815260076020908152604091829020825188815291820183815260029182018054610100968116159690960260001901909516919091049282018390527ff36efff61beff5fce9769a14cd22476bb653b2165946f3f58242301dcf6294c093889390929190606083019084908015612d165780601f10612ceb57610100808354040283529160200191612d16565b820191906000526020600020905b815481529060010190602001808311612cf957829003601f168201915b5050935050505060405180910390a15b506000612d3e6010543461578b90919063ffffffff16565b604051909150339082156108fc029083906000818181858888f19350505050158015612d6e573d6000803e3d6000fd5b5050505050565b6000546001600160a01b03163314612dc9576040805162461bcd60e51b8152602060048201526012602482015271596f7520617265206e6f74206f776e65722160701b604482015290519081900360640190fd5b6001600160a01b0381166000908152601260205260409020805460ff19166001908117909155600d54612dfb91615728565b3360009081526013602052604090205550565b6001600160a01b038116600090815260046020818152604080842080546002808301805485516001821615610100026000190190911692909204601f8101879004870283018701909552848252606096879687968796879695600382019482019360058301936006909301928791830182828015612ecd5780601f10612ea257610100808354040283529160200191612ecd565b820191906000526020600020905b815481529060010190602001808311612eb057829003601f168201915b5050875460408051602060026001851615610100026000190190941693909304601f8101849004840282018401909252818152959a5089945092508401905082828015612f5b5780601f10612f3057610100808354040283529160200191612f5b565b820191906000526020600020905b815481529060010190602001808311612f3e57829003601f168201915b5050865460408051602060026001851615610100026000190190941693909304601f810184900484028201840190925281815295995088945092508401905082828015612fe95780601f10612fbe57610100808354040283529160200191612fe9565b820191906000526020600020905b815481529060010190602001808311612fcc57829003601f168201915b5050855460408051602060026001851615610100026000190190941693909304601f8101849004840282018401909252818152959850879450925084019050828280156130775780601f1061304c57610100808354040283529160200191613077565b820191906000526020600020905b81548152906001019060200180831161305a57829003601f168201915b5050845460408051602060026001851615610100026000190190941693909304601f8101849004840282018401909252818152959750869450925084019050828280156131055780601f106130da57610100808354040283529160200191613105565b820191906000526020600020905b8154815290600101906020018083116130e857829003601f168201915b5050505050905095509550955095509550955091939550919395565b60603360016001600160a01b03821660009081526004602052604090206007015460ff16600381111561315057fe5b14613190576040805162461bcd60e51b81526020600482015260166024820152600080516020615d1b833981519152604482015290519081900360640190fd5b336000908152600b602090815260409182902080548351818402810184019094528084529091830182828015611e105760200282019190600052602060002090815481526020019060010190808311611dfc57505050505091505090565b60006006826040518082805190602001908083835b602083106132225780518252601f199092019160209182019101613203565b51815160209384036101000a600019018019909216911617905292019485525060405193849003019092205460ff1615949350505050565b600054600160a01b900460ff1681565b600054600160a01b900460ff16156132b7576040805162461bcd60e51b81526020600482015260166024820152600080516020615c2b833981519152604482015290519081900360640190fd5b3360008181526004602052604090206007015460019060ff1660038111156132db57fe5b1461331b576040805162461bcd60e51b81526020600482015260166024820152600080516020615d1b833981519152604482015290519081900360640190fd5b816006816040518082805190602001908083835b6020831061334e5780518252601f19909201916020918201910161332f565b51815160209384036101000a600019018019909216911617905292019485525060405193849003019092205460ff161591506133cc9050576040805162461bcd60e51b81526020600482015260166024820152752ab9b2b93730b6b29030b63932b0b23c903a30b5b2b760511b604482015290519081900360640190fd5b33600090815260046020908152604090912084516133f292600290920191860190615b2f565b50505050565b600054600160a01b900460ff1615613445576040805162461bcd60e51b81526020600482015260166024820152600080516020615c2b833981519152604482015290519081900360640190fd5b8060016000828152600a602052604090206006015460ff16600381111561346857fe5b146134b1576040805162461bcd60e51b8152602060048201526014602482015273139bdd0818481858dd1a5d994818dbdb5b595b9d60621b604482015290519081900360640190fd5b3360008181526004602052604090206007015460019060ff1660038111156134d557fe5b14613515576040805162461bcd60e51b81526020600482015260166024820152600080516020615d1b833981519152604482015290519081900360640190fd5b6000838152600a602052604090206001015483906001600160a01b0316331461357b576040805162461bcd60e51b8152602060048201526013602482015272596f7520617265206e6f7420417574686f722160681b604482015290519081900360640190fd5b6000848152600a602052604081208181556001810180546001600160a01b031916905560028101829055906135b36003830182615bb7565b50600060048201819055600582018190556006918201805460ff19908116909155958152600a60205260409020018054909416600317909355505050565b600060608082803360016001600160a01b03821660009081526004602052604090206007015460ff16600381111561362557fe5b14613665576040805162461bcd60e51b81526020600482015260166024820152600080516020615d1b833981519152604482015290519081900360640190fd5b6000878152601d6020908152604091829020600180820154600483015460058401546002808601805489516101009782161597909702600019011691909104601f81018890048802860188019098528785526001600160a01b0390931696929560039095019460ff90921693909290918691908301828280156137295780601f106136fe57610100808354040283529160200191613729565b820191906000526020600020905b81548152906001019060200180831161370c57829003601f168201915b5050865460408051602060026001851615610100026000190190941693909304601f8101849004840282018401909252818152959950889450925084019050828280156137b75780601f1061378c576101008083540402835291602001916137b7565b820191906000526020600020905b81548152906001019060200180831161379a57829003601f168201915b50505050509250955095509550955095505091939590929450565b60603360016001600160a01b03821660009081526004602052604090206007015460ff16600381111561380157fe5b14613841576040805162461bcd60e51b81526020600482015260166024820152600080516020615d1b833981519152604482015290519081900360640190fd5b336000908152601c602090815260409182902080548351818402810184019094528084529091830182828015611e105760200282019190600052602060002090815481526020019060010190808311611dfc57505050505091505090565b60115481565b33600090815260046020818152604080842080546002808301805485516001821615610100026000190190911692909204601f810187900487028301870190955284825260609687968796879687969560038201948201936005830193600690930192879183018282801561395b5780601f106139305761010080835404028352916020019161395b565b820191906000526020600020905b81548152906001019060200180831161393e57829003601f168201915b5050875460408051602060026001851615610100026000190190941693909304601f8101849004840282018401909252818152959a50899450925084019050828280156139e95780601f106139be576101008083540402835291602001916139e9565b820191906000526020600020905b8154815290600101906020018083116139cc57829003601f168201915b5050865460408051602060026001851615610100026000190190941693909304601f810184900484028201840190925281815295995088945092508401905082828015613a775780601f10613a4c57610100808354040283529160200191613a77565b820191906000526020600020905b815481529060010190602001808311613a5a57829003601f168201915b5050855460408051602060026001851615610100026000190190941693909304601f810184900484028201840190925281815295985087945092508401905082828015613b055780601f10613ada57610100808354040283529160200191613b05565b820191906000526020600020905b815481529060010190602001808311613ae857829003601f168201915b5050845460408051602060026001851615610100026000190190941693909304601f810184900484028201840190925281815295975086945092508401905082828015613b935780601f10613b6857610100808354040283529160200191613b93565b820191906000526020600020905b815481529060010190602001808311613b7657829003601f168201915b50505050509050955095509550955095509550909192939495565b3360008181526004602052604090206007015460019060ff166003811115613bd257fe5b14613c12576040805162461bcd60e51b81526020600482015260166024820152600080516020615d1b833981519152604482015290519081900360640190fd5b601954341015613c2157600080fd5b601a54600090613c32906001615728565b6040805160c08101825282815233602082015290810186905260608101859052909150608081016000815260006020918201819052838152601d825260409081902083518155838301516001820180546001600160a01b0319166001600160a01b039092169190911790559083015180519192613cb792600285019290910190615b2f565b5060608201518051613cd3916003840191602090910190615b2f565b50608082015160048201805460ff19166001836002811115613cf157fe5b021790555060a09190910151600590910155601b805460018181019092557f3ad8aa4f87544323a9d1e5dd902f40c356527a7955687113db5f9a85ad579dc101829055336000818152601c60209081526040808320805495860181558352908220909301939093556019549151349290920392909183156108fc0291849190818181858888f19350505050158015612d6e573d6000803e3d6000fd5b6000546001600160a01b031681565b3360009081526004602052604090206007015460ff1690565b6000546001600160a01b03163314613e09576040805162461bcd60e51b8152602060048201526012602482015271596f7520617265206e6f74206f776e65722160701b604482015290519081900360640190fd5b600054600160a01b900460ff16613e59576040805162461bcd60e51b815260206004820152600f60248201526e105b1c9958591e481cdd185c9d1959608a1b604482015290519081900360640190fd5b6000805460ff60a01b19169055565b60195481565b3360009081526012602052604090205460ff16613ecd576040805162461bcd60e51b81526020600482015260186024820152772cb7ba9030b932903737ba10309036b0b4b73a30b4b732b960411b604482015290519081900360640190fd5b6000828152601d602052604081206004015460ff166002811115613eed57fe5b14613f3f576040805162461bcd60e51b815260206004820152601760248201527f417070726f76616c20616c726561647920676976656e21000000000000000000604482015290519081900360640190fd5b8015613fcd576000828152601d60205260409020600401805460ff19166001179055613f6e4262015180615728565b6000838152601d602090815260408083206005019390935533825260138152908290205482518581529182015281517f6c8e69d71dc717c59fc706bd173bcb7ce7ea5a8737f9fdfd483006449fd8ec90929181900390910190a1614081565b6000828152601d60205260408120600401805460ff1916600217905560195461400490606490613ffe9060086157cd565b90615826565b604051909150339082156108fc029083906000818181858888f19350505050158015614034573d6000803e3d6000fd5b50336000908152601360209081526040918290205482518681529182015281517fd66d01fb66b33dd99d19c922ec2c8157f57bd902b98ade160c6180593929ee0f929181900390910190a1505b5050565b3360009081526012602052604090205460ff166140e4576040805162461bcd60e51b81526020600482015260186024820152772cb7ba9030b932903737ba10309036b0b4b73a30b4b732b960411b604482015290519081900360640190fd5b81600160008281526007602052604090206008015460ff16600381111561410757fe5b1461414e576040805162461bcd60e51b8152602060048201526012602482015271139bdd0818481858dd1a5d9948191dd9595d60721b604482015290519081900360640190fd5b3360008181526004602052604090206007015460019060ff16600381111561417257fe5b146141b2576040805162461bcd60e51b81526020600482015260166024820152600080516020615d1b833981519152604482015290519081900360640190fd5b60008481526015602052604081205460ff1660028111156141cf57fe5b14614219576040805162461bcd60e51b8152602060048201526015602482015274416374696f6e20616c72656164792074616b656e2160581b604482015290519081900360640190fd5b8215614246576000848152601560205260409020805460ff1916600117905561424184615868565b6133f2565b6000848152601560205260409020805460ff19166002179055600f546010546142a19161427391906157cd565b6000868152600760209081526040808320600101546001600160a01b03168352601790915290205490615728565b60008581526007602090815260408083206001808201546001600160a01b0316855260178452828520959095553384526013835292819020548151898152918201819052606092820183815260029485018054600019978116156101000297909701909616949094049282018390527f5a59bd75dcbe5cdfb58d606721117c0abdaaff14f93f26aab8a2e531fa09d08e948994909391929160808301908590801561438d5780601f106143625761010080835404028352916020019161438d565b820191906000526020600020905b81548152906001019060200180831161437057829003601f168201915b505094505050505060405180910390a150505050565b6000546001600160a01b031633146143f7576040805162461bcd60e51b8152602060048201526012602482015271596f7520617265206e6f74206f776e65722160701b604482015290519081900360640190fd5b600080546001600160a01b0319166001600160a01b0392909216919091179055565b60603360016001600160a01b03821660009081526004602052604090206007015460ff16600381111561444857fe5b14614488576040805162461bcd60e51b81526020600482015260166024820152600080516020615d1b833981519152604482015290519081900360640190fd5b3360009081526016602090815260409182902080548351818402810184019094528084529091830182828015611e105760200282019190600052602060002090815481526020019060010190808311611dfc57505050505091505090565b600054600160a01b900460ff1615614533576040805162461bcd60e51b81526020600482015260166024820152600080516020615c2b833981519152604482015290519081900360640190fd5b3360008181526004602052604081206007015460ff16600381111561455457fe5b146145a6576040805162461bcd60e51b815260206004820152601760248201527f5573657220616c72656164792072656769737465726564000000000000000000604482015290519081900360640190fd5b856006816040518082805190602001908083835b602083106145d95780518252601f1990920191602091820191016145ba565b51815160209384036101000a600019018019909216911617905292019485525060405193849003019092205460ff161591506146579050576040805162461bcd60e51b81526020600482015260166024820152752ab9b2b93730b6b29030b63932b0b23c903a30b5b2b760511b604482015290519081900360640190fd5b60016006886040518082805190602001908083835b6020831061468b5780518252601f19909201916020918201910161466c565b51815160209384036101000a60001901801990921691161790529201948552506040519384900301909220805460ff19169315159390931790925550506003546000906146d9906001615728565b9050604051806101000160405280828152602001336001600160a01b031681526020018981526020018881526020018781526020018681526020018581526020016001600381111561472757fe5b90523360009081526004602090815260409182902083518155838201516001820180546001600160a01b0319166001600160a01b0390921691909117905591830151805161477b9260028501920190615b2f565b5060608201518051614797916003840191602090910190615b2f565b50608082015180516147b3916004840191602090910190615b2f565b5060a082015180516147cf916005840191602090910190615b2f565b5060c082015180516147eb916006840191602090910190615b2f565b5060e082015160078201805460ff1916600183600381111561480957fe5b0217905550905050336005896040518082805190602001908083835b602083106148445780518252601f199092019160209182019101614825565b51815160209384036101000a600019018019909216911617905292019485525060408051948590038201852080546001600160a01b0319166001600160a01b03979097169690961790955560035433855290840152505081517fabc58c36475157c4ac7669f9adfbb6f254d3a3578fb89676f6866ac3b9950eed929181900390910190a15050505050505050565b600054600160a01b900460ff161561491f576040805162461bcd60e51b81526020600482015260166024820152600080516020615c2b833981519152604482015290519081900360640190fd5b3360008181526004602052604090206007015460019060ff16600381111561494357fe5b14614983576040805162461bcd60e51b81526020600482015260166024820152600080516020615d1b833981519152604482015290519081900360640190fd5b8260016000828152600a602052604090206006015460ff1660038111156149a657fe5b146149ef576040805162461bcd60e51b8152602060048201526014602482015273139bdd0818481858dd1a5d994818dbdb5b595b9d60621b604482015290519081900360640190fd5b6000848152600a602052604090206001015484906001600160a01b03163314614a55576040805162461bcd60e51b8152602060048201526013602482015272596f7520617265206e6f7420417574686f722160681b604482015290519081900360640190fd5b6000858152600a602090815260409091208551614a7a92600390920191870190615b2f565b505050505050565b60015481565b60003360016001600160a01b03821660009081526004602052604090206007015460ff166003811115614ab757fe5b14614af7576040805162461bcd60e51b81526020600482015260166024820152600080516020615d1b833981519152604482015290519081900360640190fd5b50503360009081526017602052604090205490565b601c60205281600052604060002081815481106121f257600080fd5b6000546001600160a01b03163314614b7c576040805162461bcd60e51b8152602060048201526012602482015271596f7520617265206e6f74206f776e65722160701b604482015290519081900360640190fd5b47811115614bbb5760405162461bcd60e51b8152600401808060200182810382526024815260200180615cf76024913960400191505060405180910390fd5b604051339082156108fc029083906000818181858888f19350505050158015614081573d6000803e3d6000fd5b60035481565b60603360016001600160a01b03821660009081526004602052604090206007015460ff166003811115614c1d57fe5b14614c5d576040805162461bcd60e51b81526020600482015260166024820152600080516020615d1b833981519152604482015290519081900360640190fd5b82600160008281526007602052604090206008015460ff166003811115614c8057fe5b14614cc7576040805162461bcd60e51b8152602060048201526012602482015271139bdd0818481858dd1a5d9948191dd9595d60721b604482015290519081900360640190fd5b6000848152600c602090815260409182902080548351818402810184019094528084529091830182828015614d1b57602002820191906000526020600020905b815481526020019060010190808311614d07575b505050505092505050919050565b600054600160a01b900460ff1615614d76576040805162461bcd60e51b81526020600482015260166024820152600080516020615c2b833981519152604482015290519081900360640190fd5b83600160008281526007602052604090206008015460ff166003811115614d9957fe5b14614de0576040805162461bcd60e51b8152602060048201526012602482015271139bdd0818481858dd1a5d9948191dd9595d60721b604482015290519081900360640190fd5b3360008181526004602052604090206007015460019060ff166003811115614e0457fe5b14614e44576040805162461bcd60e51b81526020600482015260166024820152600080516020615d1b833981519152604482015290519081900360640190fd5b60008681526007602052604090206001015486906001600160a01b03163314614eaa576040805162461bcd60e51b8152602060048201526013602482015272596f7520617265206e6f7420417574686f722160681b604482015290519081900360640190fd5b60008781526007602090815260409091208751614ecf92600290920191890190615b2f565b5060008781526007602090815260409091208651614ef592600390920191880190615b2f565b5060008781526007602090815260409091208551614f1b92600490920191870190615b2f565b5050505050505050565b60126020526000908152604090205460ff1681565b601a5481565b3360008181526004602052604090206007015460019060ff166003811115614f6457fe5b14614fa4576040805162461bcd60e51b81526020600482015260166024820152600080516020615d1b833981519152604482015290519081900360640190fd5b33600090815260176020526040902054614ffa576040805162461bcd60e51b81526020600482015260126024820152714e6f7420656e6f7567682062616c616e636560701b604482015290519081900360640190fd5b33600081815260176020526040808220805490839055905190929183156108fc02918491818181858888f19350505050158015611b12573d6000803e3d6000fd5b600054600160a01b900460ff1615615088576040805162461bcd60e51b81526020600482015260166024820152600080516020615c2b833981519152604482015290519081900360640190fd5b3360008181526004602052604090206007015460019060ff1660038111156150ac57fe5b146150ec576040805162461bcd60e51b81526020600482015260166024820152600080516020615d1b833981519152604482015290519081900360640190fd5b60006151036001805461572890919063ffffffff16565b9050604051806101200160405280828152602001336001600160a01b0316815260200186815260200185815260200184815260200142815260200160008152602001600081526020016001600381111561515957fe5b905260008281526007602090815260409182902083518155838201516001820180546001600160a01b0319166001600160a01b039092169190911790559183015180516151ac9260028501920190615b2f565b50606082015180516151c8916003840191602090910190615b2f565b50608082015180516151e4916004840191602090910190615b2f565b5060a0820151600582015560c0820151600682015560e0820151600782015561010082015160088201805460ff1916600183600381111561522157fe5b0217905550503360008181526008602090815260408083206001805482548083018455928652848620909201919091558484526004835281842054905482518681528085018390529283018190526080606084018181528d51918501919091528c517f21593a9df09ab143689b32be8383151220aea83c109d2687fdaf0352025b12b69850929591948d9493919260a085019291860191908190849084905b838110156152d85781810151838201526020016152c0565b50505050905090810190601f1680156153055780820380516001836020036101000a031916815260200191505b509550505050505060405180910390a15050505050565b60105481565b80600160008281526007602052604090206008015460ff16600381111561534557fe5b1461538c576040805162461bcd60e51b8152602060048201526012602482015271139bdd0818481858dd1a5d9948191dd9595d60721b604482015290519081900360640190fd5b3360008181526004602052604090206007015460019060ff1660038111156153b057fe5b146153f0576040805162461bcd60e51b81526020600482015260166024820152600080516020615d1b833981519152604482015290519081900360640190fd5b600054600160a01b900460ff161561543d576040805162461bcd60e51b81526020600482015260166024820152600080516020615c2b833981519152604482015290519081900360640190fd5b60008381526007602052604090206001015483906001600160a01b031633146154a3576040805162461bcd60e51b8152602060048201526013602482015272596f7520617265206e6f7420417574686f722160681b604482015290519081900360640190fd5b6000848152600760209081526040918290208251878152918201838152600291820180546000196101006001831615020116929092049383018490527f83eaa369805b076a12075449c0a5991787d784ac3ac93f7f0ee7d626867ba16093889391906060830190849080156155595780601f1061552e57610100808354040283529160200191615559565b820191906000526020600020905b81548152906001019060200180831161553c57829003601f168201915b5050935050505060405180910390a160008481526007602052604081208181556001810180546001600160a01b0319169055906155996002830182615bb7565b6155a7600383016000615bb7565b6155b5600483016000615bb7565b506000600582018190556006820181905560078083018290556008928301805460ff199081169091558783526020919091526040822090920180549092166003179091555b6000858152600c602052604090205481101561563d576000858152600c6020526040902080548290811061562a57fe5b60009182526020822001556001016155fa565b506000848152600c602052604081206133f291615bfb565b60603360016001600160a01b03821660009081526004602052604090206007015460ff16600381111561568457fe5b146156c4576040805162461bcd60e51b81526020600482015260166024820152600080516020615d1b833981519152604482015290519081900360640190fd5b3360009081526008602090815260409182902080548351818402810184019094528084529091830182828015611e105760200282019190600052602060002090815481526020019060010190808311611dfc57505050505091505090565b600d5481565b600082820183811015615782576040805162461bcd60e51b815260206004820152601b60248201527f536166654d6174683a206164646974696f6e206f766572666c6f770000000000604482015290519081900360640190fd5b90505b92915050565b600061578283836040518060400160405280601e81526020017f536166654d6174683a207375627472616374696f6e206f766572666c6f770000815250615a33565b6000826157dc57506000615785565b828202828482816157e957fe5b04146157825760405162461bcd60e51b8152600401808060200182810382526021815260200180615c876021913960400191505060405180910390fd5b600061578283836040518060400160405280601a81526020017f536166654d6174683a206469766973696f6e206279207a65726f000000000000815250615aca565b600081815260076020908152604080832033845260138352928190205481518581529182018190526060928201838152600294850180546000196101006001831615020116959095049383018490527fe8b0ee2448f5490098968df919aa6073143ba52e678bdd8decf9bfa160d626b8948694909391906080830190859080156159335780601f1061590857610100808354040283529160200191615933565b820191906000526020600020905b81548152906001019060200180831161591657829003601f168201915b505094505050505060405180910390a160008181526007602052604081208181556001810180546001600160a01b0319169055906159746002830182615bb7565b615982600383016000615bb7565b615990600483016000615bb7565b506000600582018190556006820181905560078083018290556008928301805460ff199081169091558483526020919091526040822090920180549092166002179091555b6000828152600c6020526040902054811015615a18576000828152600c60205260409020805482908110615a0557fe5b60009182526020822001556001016159d5565b506000818152600c60205260408120615a3091615bfb565b50565b60008184841115615ac25760405162461bcd60e51b81526004018080602001828103825283818151815260200191508051906020019080838360005b83811015615a87578181015183820152602001615a6f565b50505050905090810190601f168015615ab45780820380516001836020036101000a031916815260200191505b509250505060405180910390fd5b505050900390565b60008183615b195760405162461bcd60e51b8152602060048201818152835160248401528351909283926044909101919085019080838360008315615a87578181015183820152602001615a6f565b506000838581615b2557fe5b0495945050505050565b828054600181600116156101000203166002900490600052602060002090601f016020900481019282615b655760008555615bab565b82601f10615b7e57805160ff1916838001178555615bab565b82800160010185558215615bab579182015b82811115615bab578251825591602001919060010190615b90565b50611e18929150615c15565b50805460018160011615610100020316600290046000825580601f10615bdd5750615a30565b601f016020900490600052602060002090810190615a309190615c15565b5080546000825590600052602060002090810190615a3091905b5b80821115611e185760008155600101615c1656fe4461707020686173206265656e2073746f7070656421000000000000000000004e6f7420656c696769626c6520666f72207265776172642c20447765657420686173206265656e206672656564206d79206d61696e6174696e657273536166654d6174683a206d756c7469706c69636174696f6e206f766572666c6f77596f752068617665206e6f74207061696420656e6f75676820666f72206164766572746973656d656e744477656574206861766520676f74207265717569726564206e6f206f66205265706f727473576974686472617720616d6f756e742067726561746572207468616e2062616c616e63654e6f742061205265676973746572656420557365722100000000000000000000596f752068617665206e6f74207265706f72746564206f7220616c726561647920636c61696d6564a2646970667358221220a176fb2a049846dbbd68b1219b83079be0aa8fe6323b5320b87cf61ce1ad464864736f6c63430007050033",
  "immutableReferences": {},
  "source": "/*\r\n_____           _ _   _            \r\n |  __ \\         (_) | | |           \r\n | |  | |_      ___| |_| |_ ___ _ __ \r\n | |  | \\ \\ /\\ / / | __| __/ _ \\ '__|\r\n | |__| |\\ V  V /| | |_| ||  __/ |   \r\n |_____/  \\_/\\_/ |_|\\__|\\__\\___|_|   \r\n                                     \r\n*/\r\n\r\n// SPDX-License-Identifier: GPL-3.0\r\npragma solidity >=0.7.0 <0.8.0;\r\n    library SafeMath {\r\n    \r\n        function add(uint256 a, uint256 b) internal pure returns (uint256) {\r\n            uint256 c = a + b;\r\n            require(c >= a, \"SafeMath: addition overflow\");\r\n    \r\n            return c;\r\n        }\r\n    \r\n        function sub(uint256 a, uint256 b) internal pure returns (uint256) {\r\n            return sub(a, b, \"SafeMath: subtraction overflow\");\r\n        }\r\n    \r\n        function sub(uint256 a, uint256 b, string memory errorMessage) internal pure returns (uint256) {\r\n            require(b <= a, errorMessage);\r\n            uint256 c = a - b;\r\n    \r\n            return c;\r\n        }\r\n    \r\n        function mul(uint256 a, uint256 b) internal pure returns (uint256) {\r\n            if (a == 0) {\r\n                return 0;\r\n            }\r\n    \r\n            uint256 c = a * b;\r\n            require(c / a == b, \"SafeMath: multiplication overflow\");\r\n    \r\n            return c;\r\n        }\r\n    \r\n        function div(uint256 a, uint256 b) internal pure returns (uint256) {\r\n            return div(a, b, \"SafeMath: division by zero\");\r\n        }\r\n    \r\n        function div(uint256 a, uint256 b, string memory errorMessage) internal pure returns (uint256) {\r\n            require(b > 0, errorMessage);\r\n            uint256 c = a / b;\r\n            return c;\r\n        }\r\n    \r\n    }\r\n\r\n/// @title A Decentralised Social Media Platform\r\n/// @author Mohit Bhat\r\n/// @notice You can use this contract to connect to decentralised social network, share your content to the world in a decentralised way!\r\n/// @dev Most of the features are implemented keeping note of security concerns\r\n\r\ncontract Dwitter{\r\n    using SafeMath for uint;\r\n    address payable public owner; //Owner is also a maintainer\r\n    bool public stopped = false;\r\n    \r\n    struct User{\r\n        uint id;\r\n        address ethAddress;\r\n        string username;\r\n        string name;\r\n        string profileImgHash;\r\n        string profileCoverImgHash;\r\n        string bio;\r\n        accountStatus status; // Account Banned or Not\r\n    }\r\n    \r\n    struct Dweet{\r\n        uint dweetId;\r\n        address author;\r\n        string hashtag;\r\n        string content;\r\n        string imgHash;\r\n        uint timestamp;\r\n        uint likeCount;\r\n        uint reportCount;\r\n        cdStatus status; // Dweet Active-Deleted-Banned\r\n    }\r\n    \r\n    struct Comment{\r\n        uint commentId;\r\n        address author;\r\n        uint dweetId;\r\n        string content;\r\n        uint likeCount;\r\n        // uint reportCount;\r\n        uint timestamp;\r\n        cdStatus status; // Comment Reported and Banned or not\r\n    }\r\n    \r\n    uint public totalDweets=0;\r\n    uint public totalComments=0;\r\n    uint public totalUsers=0;\r\n    \r\n    ///@dev NP means not present the default value for status \r\n    enum accountStatus{NP,Active,Banned,Deactivated}\r\n    enum cdStatus{NP,Active, Banned, Deleted}//Comment-Dweet status\r\n    // enum dweetStatus{NP,Active, Banned, Deleted}\r\n    \r\n    mapping(address=>User) private users; //mapping to get user details from user address\r\n    mapping(string=>address) private userAddressFromUsername;//to get user address from username\r\n    // mapping(address=>bool) private registeredUser; //mapping to get user details from user address\r\n    mapping(string=>bool) private usernames;//To check which username is taken taken=>true, not taken=>false\r\n\r\n    \r\n    mapping(uint=>Dweet) private dweets;// mapping to get dweet from Id\r\n    mapping(address=>uint[]) private userDweets; // Array to store dweets(Id) done by user\r\n    // mapping(uint=>address[]) private dweetLikersList;\r\n    mapping(uint=>mapping(address=>bool)) private dweetLikers; // Mapping to track who liked which dweet\r\n    \r\n    mapping(uint=>Comment) private comments; //Mapping to get comment from comment Id\r\n    mapping(address=>uint[]) private userComments;// Mapping to track user comments from there address\r\n    // mapping(uint=>mapping(address=>bool)) private commentReporters; // Mapping to track who reported which comment\r\n    // mapping(uint=>mapping(address=>bool)) private commentLikers; // Mapping to track who liked on which comment\r\n    mapping(uint=>uint[]) private dweetComments; // Getting comments for a specific dweet\r\n    \r\n    modifier stopInEmergency { require(!stopped,\"Dapp has been stopped!\"); _; }\r\n    modifier onlyInEmergency { require(stopped); _; }\r\n    \r\n    modifier onlyOwner{require(msg.sender==owner,\"You are not owner!\"); _;}\r\n    modifier onlyDweetAuthor(uint id){require(msg.sender==dweets[id].author,\"You are not Author!\"); _;}\r\n    modifier onlyCommentAuthor(uint id){require(msg.sender==comments[id].author,\"You are not Author!\"); _;}\r\n    modifier onlyAllowedUser(address user){require(users[user].status==accountStatus.Active,\"Not a Registered User!\"); _;}\r\n    modifier onlyActiveDweet(uint id){require(dweets[id].status==cdStatus.Active,\"Not a active dweet\"); _;}\r\n    modifier onlyActiveComment(uint id){require(comments[id].status==cdStatus.Active,\"Not a active comment\"); _;}\r\n    modifier usernameTaken(string memory username){require(!usernames[username],\"Username already taken\"); _;}\r\n // modifier checkUserExists(){require(registeredUser[msg.sender]); _;}\r\n    modifier checkUserNotExists(address user){require(users[user].status==accountStatus.NP,\"User already registered\"); _;}\r\n\r\n    \r\n    event logRegisterUser(address user, uint id);\r\n    event logUserBanned(address user, uint id);\r\n    event logDweetCreated(address author, uint userid, uint dweetid, string hashtag);\r\n    event logDweetDeleted(uint id, string hashtag);\r\n    // event logCommentBanned(uint id, string hashtag);\r\n    \r\n    constructor() {\r\n        owner=msg.sender;\r\n        addMaintainer(msg.sender);\r\n        registerUser(\"owner\",\"owner\",\"\",\"\",\"owner\");\r\n    }\r\n    \r\n    fallback() external{\r\n        revert();\r\n    }\r\n        \r\n/*\r\n**************************************USER FUNCTIONS********************************************************************************\r\n*/\r\n\r\n    /// @notice Check username available or not\r\n    /// @param  _username username to Check\r\n    /// @return status true or false\r\n    function usernameAvailable(string memory _username) public view returns(bool status){\r\n        return !usernames[_username];\r\n    }\r\n    \r\n    /// @notice Register a new user\r\n    /// @param  _username username of username\r\n    /// @param _name name of person\r\n    /// @param _imgHash Ipfs Hash of users Profile Image\r\n    /// @param _coverHash Ipfs Hash of user cover Image\r\n    /// @param _bio Biography of user\r\n    function registerUser(string memory _username, string memory _name, string memory _imgHash, string memory _coverHash, string memory _bio ) public stopInEmergency checkUserNotExists(msg.sender) usernameTaken(_username){\r\n        usernames[_username]=true;// Attack Prevented\r\n        uint id=totalUsers.add(1);\r\n        users[msg.sender]=User(id, msg.sender, _username, _name, _imgHash, _coverHash, _bio, accountStatus.Active);\r\n        userAddressFromUsername[_username]=msg.sender;\r\n        emit logRegisterUser(msg.sender, totalUsers);\r\n    }\r\n    \r\n    /// @notice Check accountStatus of user-Registered, Banned or Deleted\r\n    /// @return status NP, Active, Banned or Deleted\r\n    function userStatus() public view returns(accountStatus status){\r\n        return users[msg.sender].status;\r\n    }\r\n    \r\n    /// @notice Change username of a user\r\n    /// @param _username New username of user\r\n    function changeUsername(string memory _username) public stopInEmergency onlyAllowedUser(msg.sender) usernameTaken(_username){\r\n        users[msg.sender].username=_username;\r\n    }\r\n    \r\n    /// @notice Get user details\r\n    /// @return id Id of user\r\n    /// @return username username of person\r\n    /// @return name Name of user\r\n    /// @return imghash user profile image ipfs hash\r\n    /// @return coverhash usercCover image ipfs hash\r\n    /// @return bio Biography of user\r\n    function getUser() public view returns(uint id, string memory username, string memory name, string memory imghash, string memory coverhash, string memory bio){\r\n        return(users[msg.sender].id,users[msg.sender].username, users[msg.sender].name, users[msg.sender].profileImgHash, users[msg.sender].profileCoverImgHash, users[msg.sender].bio);\r\n    }\r\n    \r\n    /// @notice Get user details\r\n    /// @param _user address of user\r\n    /// @return id Id of user\r\n    /// @return username username of person\r\n    /// @return name Name of user\r\n    /// @return imghash user profile image ipfs hash\r\n    /// @return coverhash usercCover image ipfs hash\r\n    /// @return bio Biography of user\r\n    function getUser(address _user) public view returns(uint id, string memory username, string memory name, string memory imghash, string memory coverhash, string memory bio){\r\n        return(users[_user].id,users[_user].username, users[_user].name, users[_user].profileImgHash, users[_user].profileCoverImgHash, users[_user].bio);\r\n    }\r\n    \r\n    /// @notice Ban user Internal Function\r\n    /// @param  _user address of user\r\n    function banUser(address _user) internal onlyAllowedUser(_user) onlyMaintainer {\r\n        delete users[_user];\r\n        users[_user].status=accountStatus.Banned;\r\n        emit logUserBanned(msg.sender, users[_user].id);\r\n    }\r\n\r\n/*\r\n**************************************DWEET FUNCTIONS***********************************************************\r\n*/      \r\n    /// @notice Create a new dweet\r\n    /// @param _hashtag hashtag of dweet ex. #ethereum\r\n    /// @param _content content of dweet to show\r\n    /// @param _imghash Image type content ipfs hash\r\n    function createDweet(string memory _hashtag, string memory _content, string memory _imghash) public stopInEmergency onlyAllowedUser(msg.sender) {\r\n        uint id=totalDweets.add(1);\r\n        dweets[id]=Dweet(id, msg.sender, _hashtag, _content, _imghash, block.timestamp , 0, 0, cdStatus.Active);\r\n        userDweets[msg.sender].push(totalDweets);\r\n        emit logDweetCreated(msg.sender, users[msg.sender].id, totalDweets, _hashtag);\r\n    }\r\n    \r\n    /// @notice Ban Dweet Internal Function\r\n    /// @param  _id Id of dweet\r\n    function banDweet(uint _id) internal{\r\n        emit logDweetBanned(_id, dweets[_id].hashtag, maintainerId[msg.sender]);\r\n        delete dweets[_id];\r\n        dweets[_id].status=cdStatus.Banned;\r\n        for(uint i=0;i<dweetComments[_id].length;i++){\r\n            delete dweetComments[_id][i];\r\n        }\r\n        delete dweetComments[_id];\r\n    }\r\n    \r\n    /// @notice Edit a dweet \r\n    /// @param  _id Id of dweet\r\n    /// @param  _hashtag New tag of dweet\r\n    /// @param  _content New content of dweet\r\n    /// @param  _imghash Hash of new image content\r\n    function editDweet(uint _id, string memory _hashtag, string memory _content, string memory _imghash) public stopInEmergency onlyActiveDweet(_id)\r\n    onlyAllowedUser(msg.sender) onlyDweetAuthor(_id) {\r\n        dweets[_id].hashtag=_hashtag;\r\n        dweets[_id].content=_content;\r\n        dweets[_id].imgHash=_imghash;\r\n    }\r\n    \r\n    /// @notice Delete a dweet\r\n    /// @param  _id Id of dweet\r\n    function deleteDweet(uint _id) public onlyActiveDweet(_id) onlyAllowedUser(msg.sender) stopInEmergency onlyDweetAuthor(_id){\r\n        emit logDweetDeleted(_id, dweets[_id].hashtag);\r\n        delete dweets[_id];\r\n        dweets[_id].status=cdStatus.Deleted;\r\n        for(uint i=0;i<dweetComments[_id].length;i++){\r\n            delete dweetComments[_id][i];\r\n        }\r\n        delete dweetComments[_id];\r\n    }\r\n    \r\n    /// @notice Get a Dweet\r\n    /// @param  _id Id of dweet\r\n    /// @return author Dweet author address \r\n    /// @return  hashtag Tag of dweet\r\n    /// @return  content Content of dweet\r\n    /// @return  imgHash Hash of image content\r\n    /// @return  timestamp Dweet creation timestamp\r\n    /// @return  likeCount No of likes on dweet\r\n    function getDweet(uint _id) public onlyAllowedUser(msg.sender) onlyActiveDweet(_id) view returns ( address author, string memory hashtag, string memory content, string memory imgHash, uint timestamp, uint likeCount ){\r\n        return (dweets[_id].author, dweets[_id].hashtag, dweets[_id].content, dweets[_id].imgHash, dweets[_id].timestamp, dweets[_id].likeCount);\r\n    }\r\n    \r\n    /// @notice Like a dweets\r\n    /// @param _id Id of dweet to be likeDweet\r\n    function likeDweet(uint _id) public onlyAllowedUser(msg.sender) onlyActiveDweet(_id){\r\n        require(!dweetLikers[_id][msg.sender]);\r\n        dweets[_id].likeCount.add(1);\r\n        dweetLikers[_id][msg.sender]=true;\r\n    }\r\n    \r\n    /// @notice Get list of dweets done by a user\r\n    /// @return dweetList Array of dweet ids\r\n    function getUserDweets() public view onlyAllowedUser(msg.sender) returns(uint[] memory dweetList){\r\n        return userDweets[msg.sender];\r\n    }\r\n    \r\n    /// @notice Get list of dweets done by a user\r\n    /// @param _user User address\r\n    /// @return dweetList Array of dweet ids\r\n    function getUserDweets(address _user) public view onlyAllowedUser(msg.sender) returns(uint[] memory dweetList){\r\n        return userDweets[_user];\r\n    }\r\n\r\n/*\r\n**************************************COMMENT FUNCTIONS*************************************************************************\r\n*/ \r\n    /// @notice Create a comment on dweet\r\n    /// @param  _dweetid Id of dweetList\r\n    /// @param  _comment content of comment\r\n    function createComment(uint _dweetid, string memory _comment) public stopInEmergency onlyAllowedUser(msg.sender)  onlyActiveDweet(_dweetid){\r\n        uint id=totalComments.add(1);\r\n        comments[id]=Comment(id, msg.sender, _dweetid, _comment, 0, block.timestamp, cdStatus.Active);\r\n        userComments[msg.sender].push(totalComments);\r\n        dweetComments[_dweetid].push(totalComments);\r\n    }\r\n    \r\n    // function banComment(uint _id) internal {\r\n    //     emit logCommentBanned(_id, dweets[comments[_id].dweetId].hashtag);\r\n    //     delete comments[_id];\r\n    //     comments[_id].status=cdStatus.Banned;\r\n    // }\r\n    \r\n    \r\n    /// @notice Get list of dweets done by a user\r\n    /// @param  _commentid Id of comments\r\n    /// @param  _comment New content of comment\r\n    function editComment(uint _commentid, string memory _comment) public stopInEmergency onlyAllowedUser(msg.sender)  onlyActiveComment(_commentid) onlyCommentAuthor(_commentid){\r\n        comments[_commentid].content=_comment;\r\n    }\r\n    \r\n    /// @notice Delete a comment\r\n    /// @param _id Id of comment to be Deleted\r\n    function deleteComment(uint _id) public stopInEmergency onlyActiveComment(_id) onlyAllowedUser(msg.sender) onlyCommentAuthor(_id) {\r\n        delete comments[_id];\r\n        comments[_id].status=cdStatus.Deleted;\r\n    }\r\n    \r\n    /// @notice Get a comment\r\n    /// @param  _id Id of comment\r\n    /// @return author Address of author\r\n    /// @return dweetId Id of dweet \r\n    /// @return content content of comment\r\n    /// @return likeCount Likes on commment\r\n    /// @return timestamp Comment creation timestamp\r\n    /// @return status status of Comment active-banned-deleted\r\n    function getComment(uint _id) public view onlyAllowedUser(msg.sender) onlyActiveComment(_id) returns(address author, uint dweetId, string memory content, uint likeCount, uint timestamp, cdStatus status){\r\n        return(comments[_id].author, comments[_id].dweetId, comments[_id].content, comments[_id].likeCount, comments[_id].timestamp, comments[_id].status);\r\n    }\r\n    \r\n    /// @notice Get comments done by user\r\n    /// @return commentList Array of comment ids\r\n    /// @dev Though onlyAllowedUser can be bypassed easily but still keeping for calls from frontend \r\n    function getUserComments() public view onlyAllowedUser(msg.sender) returns(uint[] memory commentList){\r\n        return userComments[msg.sender];\r\n    }\r\n    \r\n    /// @notice Get comments done by user\r\n    /// @param _user address of user\r\n    /// @return commentList Array of comment ids\r\n    function getUserComments(address _user) public view onlyAllowedUser(msg.sender) returns(uint[] memory commentList){\r\n        return userComments[_user];\r\n    }\r\n    \r\n    /// @notice Get comments on a dweet\r\n    /// @return list Array of comment ids\r\n    function getDweetComments(uint _id) public view onlyAllowedUser(msg.sender) onlyActiveDweet(_id) returns(uint[] memory list){\r\n        return(dweetComments[_id]);\r\n    }\r\n        \r\n/*\r\n**********************************Reporting And Maintanining*****************************************************************************************\r\n*/\r\n    uint public totalMaintainers=0;\r\n    uint[] private dweetsReportedList;// List of ids of reported dweets\r\n    uint private noOfReportsRequired=1;// No of reports required to term a dweet reported and send for action\r\n    uint public reportingstakePrice=1936458778290500;// Stake amount to pay while reporting\r\n    uint public reportingRewardPrice=3872917556581000;// Reward of correct reporting\r\n      \r\n    mapping(address=>bool) public isMaintainer;\r\n    mapping(address=>uint) private maintainerId;\r\n    mapping(uint=>mapping(address=>bool)) private dweetReporters; // Mapping to track who reported which dweet\r\n    mapping(uint=>reportAction) private actionOnDweet;// What is the ction on dweet done by maintainers\r\n    mapping(address=>uint[]) public userReportList;// Ids of dweets reported by a user\r\n    //mapping(address=>uint) private userRewards;\r\n    mapping(address=>uint) private fakeReportingReward;// Reward a user get when somebody do a fake reporting against that user\r\n    mapping(uint=>mapping(address=>userdweetReportingStatus)) private claimedReward;//To check whether user has claimed reward for a particular reporting\r\n      \r\n    enum userdweetReportingStatus{NP, Reported, Claimed}\r\n    enum reportAction{NP, Banned, Free}\r\n    \r\n    modifier onlyMaintainer(){\r\n        require(isMaintainer[msg.sender],\"You are not a maintainer\");\r\n        _;\r\n    }\r\n    \r\n    modifier paidEnoughforReporter() { require(msg.value >= reportingstakePrice,\"You have not paid enough for advertisement\"); _;}\r\n        \r\n    modifier checkValueforReporter() {\r\n        _;\r\n        uint amountToRefund = msg.value.sub(reportingstakePrice);\r\n        msg.sender.transfer(amountToRefund);\r\n    }\r\n      \r\n    /// @notice Add a maintainer to the platform\r\n    /// @param _user Address of user to be added as maintainer\r\n    function addMaintainer(address _user) public onlyOwner {\r\n        isMaintainer[_user]=true;\r\n        maintainerId[msg.sender]=totalMaintainers.add(1);\r\n    }\r\n     \r\n    /// @notice Remove a maintainer \r\n    /// @param _user Address of user to be removed from maintainer  \r\n    function revokeMaintainer(address _user) public onlyOwner{\r\n        isMaintainer[_user]=false;\r\n    }\r\n      \r\n    event logDweetReported(uint id, string hashtag);\r\n    event logDweetBanned(uint id, string hashtag, uint maintainer); // To track how many dweets were banned to specific hashtag\r\n    event logDweetFreed(uint id, string hashtag, uint maintainer); // To track how many dweets were banned to specific hashtag\r\n    \r\n    /// @notice Report a dweet\r\n    /// @param _dweetId Id of the dweet to be reported\r\n    function reportDweet(uint _dweetId) public payable onlyActiveDweet(_dweetId) onlyAllowedUser(msg.sender) paidEnoughforReporter checkValueforReporter{\r\n        require(dweets[_dweetId].reportCount<=noOfReportsRequired,\"Dweet have got required no of Reports\");\r\n        require(!dweetReporters[_dweetId][msg.sender],\"You have already Reported!\");\r\n        dweetReporters[_dweetId][msg.sender]=true;//Reentracy attack Prevented\r\n        userReportList[msg.sender].push(_dweetId);\r\n        claimedReward[_dweetId][msg.sender]=userdweetReportingStatus.Reported;\r\n        uint reports=dweets[_dweetId].reportCount.add(1);\r\n        if(reports==noOfReportsRequired){\r\n          dweetsReportedList.push(_dweetId);\r\n          emit logDweetReported(_dweetId, dweets[_dweetId].hashtag);\r\n        }\r\n    }\r\n    \r\n    /// @notice Take action on a reported dweets\r\n    /// @param _dweetId Id of dweets\r\n    /// @param _action ban or free, true or false\r\n    function takeAction(uint _dweetId, bool _action) public onlyMaintainer onlyActiveDweet(_dweetId) onlyAllowedUser(msg.sender){\r\n        require(actionOnDweet[_dweetId]==reportAction.NP,\"Action already taken!\");\r\n        if(_action){\r\n          actionOnDweet[_dweetId]=reportAction.Banned;\r\n          banDweet(_dweetId);\r\n        }else{\r\n          actionOnDweet[_dweetId]=reportAction.Free;\r\n          fakeReportingReward[dweets[_dweetId].author]=fakeReportingReward[dweets[_dweetId].author].add(reportingstakePrice.mul(noOfReportsRequired));\r\n          emit logDweetFreed(_dweetId, dweets[_dweetId].hashtag, maintainerId[msg.sender]);\r\n        }\r\n    }\r\n      \r\n    /// @notice Claim right reporting reward\r\n    /// @param _id Id of dweet on which reward is to be claimed  \r\n    function claimReportingReward(uint _id) public onlyAllowedUser(msg.sender){\r\n        require(claimedReward[_id][msg.sender]==userdweetReportingStatus.Reported,\"You have not reported or already claimed\");\r\n        require(userReportList[msg.sender].length>0);\r\n        require(actionOnDweet[_id]==reportAction.Banned,\"Not eligible for reward, Dweet has been freed my mainatiners\");\r\n        claimedReward[_id][msg.sender]=userdweetReportingStatus.Claimed;//Reentracy Prevented\r\n        msg.sender.transfer(reportingRewardPrice);\r\n    }\r\n    \r\n    /// @notice Claim fake reporting reward(suit)\r\n    function claimSuitReward()public onlyAllowedUser(msg.sender){\r\n        require(fakeReportingReward[msg.sender]>0,\"Not enough balance\");\r\n        uint amount=fakeReportingReward[msg.sender];\r\n        fakeReportingReward[msg.sender]=0;//Attack Prevented\r\n        msg.sender.transfer(amount);\r\n    }\r\n    \r\n    /// @notice To get list of reportings done by a user\r\n    /// @param list Array of dweet Ids reported by user\r\n    function myReportings() public view onlyAllowedUser(msg.sender) returns(uint[] memory list){\r\n        return userReportList[msg.sender];\r\n    }\r\n    \r\n    //   function myReportingReward() public view onlyAllowedUser(msg.sender) returns(uint balance){\r\n    //       return userRewards[msg.sender];\r\n    //   }\r\n    \r\n    /// @notice To get claim status of reporting\r\n    /// @param _id Id of dweetsReportedList\r\n    /// @return status status of claim reported or claimed\r\n    function reportingClaimStatus(uint _id) public view onlyAllowedUser(msg.sender) returns(userdweetReportingStatus status){\r\n        return claimedReward[_id][msg.sender];\r\n    }\r\n    \r\n    /// @notice To get fake reporting reward balance\r\n    /// @return balance reward balance of user\r\n    function fakeReportingSuitReward() public view onlyAllowedUser(msg.sender) returns(uint balance){\r\n        return fakeReportingReward[msg.sender];\r\n    }\r\n    \r\n    /// @notice To get list of reported dweets on the platform\r\n    /// @return list Array of reported dweet ids\r\n    function getReportedDweets() public view onlyAllowedUser(msg.sender) returns(uint[] memory list){\r\n        return(dweetsReportedList);\r\n    }\r\n    \r\n    /// @notice Get action status of reporting on a dweet\r\n    /// @param _dweetId Id of dweet\r\n    /// @return status status of action NP-BAN_FREE\r\n    function getReportedDweetStatus(uint _dweetId) public view onlyAllowedUser(msg.sender) returns(reportAction status){\r\n        return(actionOnDweet[_dweetId]);\r\n    }\r\n    \r\n/*\r\n*******************************************Advertisement **************************************************************\r\n*/\r\n    uint public advertisementCost=96822938914524992;\r\n    uint public totalAdvertisements=0;\r\n    uint[] private advertisementsList;\r\n    \r\n    enum AdApprovalStatus{NP, Approved, Rejected}\r\n    \r\n    struct Advertisement{\r\n        uint id;\r\n        address advertiser;\r\n        string imgHash;\r\n        string link;\r\n        AdApprovalStatus status;// Advertisement Approve or Rejected\r\n        uint expiry; //timestamp to put expiry of Advertisement\r\n    }\r\n    \r\n    modifier paidEnoughforAdvertisement() { require(msg.value >= advertisementCost); _;}\r\n    modifier checkValueforAdvertisement() {\r\n        _;\r\n        uint amountToRefund = msg.value - advertisementCost;\r\n        msg.sender.transfer(amountToRefund);\r\n    }\r\n    \r\n    mapping(address=>uint[]) public advertiserAdvertisementsList;\r\n    mapping(uint=>Advertisement) private advertisements;\r\n    \r\n    event logAdvertisementApproved(uint id, uint maintainer);\r\n    event logAdvertisementRejected(uint id, uint maintainer);\r\n    \r\n    \r\n    /// @notice Submit a new advertisement\r\n    /// @param _imgHash Ipfs hash of image to be shown as advertisement\r\n    /// @param _link Href link for the advertisement\r\n    function submitAdvertisement(string memory _imgHash, string memory _link) public payable onlyAllowedUser(msg.sender) paidEnoughforAdvertisement checkValueforAdvertisement{\r\n        uint id=totalAdvertisements.add(1);\r\n        advertisements[id]=Advertisement(id, msg.sender, _imgHash, _link, AdApprovalStatus.NP, 0);\r\n        advertisementsList.push(id);\r\n        advertiserAdvertisementsList[msg.sender].push(id);\r\n    }\r\n    \r\n    /// @notice Approve or reject advertisements\r\n    /// @param _id Id of advertisement\r\n    /// @param _decision Approval decision Accepted or Rejected, true or false\r\n    function advertisementApproval(uint _id, bool _decision) public onlyMaintainer{\r\n        require(advertisements[_id].status==AdApprovalStatus.NP,\"Approval already given!\");\r\n        if(_decision){\r\n            advertisements[_id].status=AdApprovalStatus.Approved;\r\n            advertisements[_id].expiry=block.timestamp.add(1 days);\r\n            emit logAdvertisementApproved(_id,maintainerId[msg.sender]);\r\n        }else{\r\n            advertisements[_id].status=AdApprovalStatus.Rejected;\r\n            uint refund=advertisementCost.mul(8).div(100);\r\n            msg.sender.transfer(refund);\r\n            emit logAdvertisementRejected(_id,maintainerId[msg.sender]);\r\n        }\r\n    }\r\n    \r\n    /// @notice Get all ads submitted on platform\r\n    /// @return list Array of advertisement ids\r\n    function getAds() public view onlyAllowedUser(msg.sender) returns(uint[] memory list){\r\n        return(advertisementsList);\r\n    }\r\n    \r\n    /// @notice Get details of a advertisement\r\n    /// @param _id Id of advertisement\r\n    /// @return advertiser address of advertiser\r\n    /// @return imgHash Ipfs hash of advertisement image\r\n    /// @return link Href link of advertisement\r\n    /// @return status Approval status of advertisements\r\n    /// @return expiry advertisement expiry timestamp\r\n    function getAd(uint _id) public view onlyAllowedUser(msg.sender) returns(address advertiser, string memory imgHash, string memory link, AdApprovalStatus status, uint expiry){\r\n        return(advertisements[_id].advertiser, advertisements[_id].imgHash, advertisements[_id].link, advertisements[_id].status, advertisements[_id].expiry);\r\n    }\r\n    \r\n    /// @notice Get advertisement done by user\r\n    /// @return list Array of advertisement ids\r\n    function myAdvertisements() public view onlyAllowedUser(msg.sender) returns(uint[] memory list){\r\n        return(advertiserAdvertisementsList[msg.sender]);\r\n    }\r\n    \r\n    /// @notice Status of a advertisement\r\n    /// @param _id Id of advertisement\r\n    /// @return status Approval status accepted or rejected \r\n    function getAdvertisementStatus(uint _id) public view onlyAllowedUser(msg.sender) returns(AdApprovalStatus status){\r\n        return advertisements[_id].status;\r\n    }\r\n\r\n/*\r\n****************************************Owner Admin ******************************************************************************************\r\n*/\r\n    /// @notice Get balance of contract \r\n    /// @return balance balance of contract\r\n    function getBalance()public view onlyOwner() returns(uint balance){\r\n        return address(this).balance;\r\n    }\r\n    \r\n    /// @notice Withdraw contract funds to owner\r\n    /// @param _amount Amount to be withdrawn\r\n    function transferContractBalance(uint _amount)public onlyOwner{\r\n        require(_amount<=address(this).balance,\"Withdraw amount greater than balance\");\r\n        msg.sender.transfer(_amount);\r\n    }\r\n    \r\n    function stopDapp() public onlyOwner{\r\n        require(!stopped,\"Already stopped\");\r\n        stopped=true;\r\n    }\r\n    \r\n    function startDapp() public onlyOwner{\r\n        require(stopped,\"Already started\");\r\n        stopped=false;\r\n    }\r\n    \r\n    function changeOwner(address payable _newOwner) public onlyOwner{\r\n        owner=_newOwner;\r\n    }\r\n    \r\n}",
  "sourcePath": "C:/Users/MOHITBHAT/Desktop/MYPERSONAL/CONSENSYS_ACADEMY_COURSE/PROJECT/Decentralized_Social_Media/contracts/dwitter.sol",
  "compiler": {
    "name": "solc",
    "version": "0.7.5+commit.eb77ed08.Emscripten.clang"
  },
  "schemaVersion": "3.3.2",
  "updatedAt": "2020-12-31T09:18:04.478Z",
  "networkType": "ethereum",
  "devdoc": {
    "author": "Mohit Bhat",
    "details": "Most of the features are implemented keeping note of security concerns",
    "kind": "dev",
    "methods": {
      "addMaintainer(address)": {
        "params": {
          "_user": "Address of user to be added as maintainer"
        }
      },
      "advertisementApproval(uint256,bool)": {
        "params": {
          "_decision": "Approval decision Accepted or Rejected, true or false",
          "_id": "Id of advertisement"
        }
      },
      "changeUsername(string)": {
        "params": {
          "_username": "New username of user"
        }
      },
      "claimReportingReward(uint256)": {
        "params": {
          "_id": "Id of dweet on which reward is to be claimed  "
        }
      },
      "createComment(uint256,string)": {
        "params": {
          "_comment": "content of comment",
          "_dweetid": "Id of dweetList"
        }
      },
      "createDweet(string,string,string)": {
        "params": {
          "_content": "content of dweet to show",
          "_hashtag": "hashtag of dweet ex. #ethereum",
          "_imghash": "Image type content ipfs hash"
        }
      },
      "deleteComment(uint256)": {
        "params": {
          "_id": "Id of comment to be Deleted"
        }
      },
      "deleteDweet(uint256)": {
        "params": {
          "_id": "Id of dweet"
        }
      },
      "editComment(uint256,string)": {
        "params": {
          "_comment": "New content of comment",
          "_commentid": "Id of comments"
        }
      },
      "editDweet(uint256,string,string,string)": {
        "params": {
          "_content": "New content of dweet",
          "_hashtag": "New tag of dweet",
          "_id": "Id of dweet",
          "_imghash": "Hash of new image content"
        }
      },
      "fakeReportingSuitReward()": {
        "returns": {
          "balance": "reward balance of user"
        }
      },
      "getAd(uint256)": {
        "params": {
          "_id": "Id of advertisement"
        },
        "returns": {
          "advertiser": "address of advertiser",
          "expiry": "advertisement expiry timestamp",
          "imgHash": "Ipfs hash of advertisement image",
          "link": "Href link of advertisement",
          "status": "Approval status of advertisements"
        }
      },
      "getAds()": {
        "returns": {
          "list": "Array of advertisement ids"
        }
      },
      "getAdvertisementStatus(uint256)": {
        "params": {
          "_id": "Id of advertisement"
        },
        "returns": {
          "status": "Approval status accepted or rejected "
        }
      },
      "getBalance()": {
        "returns": {
          "balance": "balance of contract"
        }
      },
      "getComment(uint256)": {
        "params": {
          "_id": "Id of comment"
        },
        "returns": {
          "author": "Address of author",
          "content": "content of comment",
          "dweetId": "Id of dweet ",
          "likeCount": "Likes on commment",
          "status": "status of Comment active-banned-deleted",
          "timestamp": "Comment creation timestamp"
        }
      },
      "getDweet(uint256)": {
        "params": {
          "_id": "Id of dweet"
        },
        "returns": {
          "author": "Dweet author address ",
          "content": "Content of dweet",
          "hashtag": "Tag of dweet",
          "imgHash": "Hash of image content",
          "likeCount": "No of likes on dweet",
          "timestamp": "Dweet creation timestamp"
        }
      },
      "getDweetComments(uint256)": {
        "returns": {
          "list": "Array of comment ids"
        }
      },
      "getReportedDweetStatus(uint256)": {
        "params": {
          "_dweetId": "Id of dweet"
        },
        "returns": {
          "status": "status of action NP-BAN_FREE"
        }
      },
      "getReportedDweets()": {
        "returns": {
          "list": "Array of reported dweet ids"
        }
      },
      "getUser()": {
        "returns": {
          "bio": "Biography of user",
          "coverhash": "usercCover image ipfs hash",
          "id": "Id of user",
          "imghash": "user profile image ipfs hash",
          "name": "Name of user",
          "username": "username of person"
        }
      },
      "getUser(address)": {
        "params": {
          "_user": "address of user"
        },
        "returns": {
          "bio": "Biography of user",
          "coverhash": "usercCover image ipfs hash",
          "id": "Id of user",
          "imghash": "user profile image ipfs hash",
          "name": "Name of user",
          "username": "username of person"
        }
      },
      "getUserComments()": {
        "details": "Though onlyAllowedUser can be bypassed easily but still keeping for calls from frontend ",
        "returns": {
          "commentList": "Array of comment ids"
        }
      },
      "getUserComments(address)": {
        "params": {
          "_user": "address of user"
        },
        "returns": {
          "commentList": "Array of comment ids"
        }
      },
      "getUserDweets()": {
        "returns": {
          "dweetList": "Array of dweet ids"
        }
      },
      "getUserDweets(address)": {
        "params": {
          "_user": "User address"
        },
        "returns": {
          "dweetList": "Array of dweet ids"
        }
      },
      "likeDweet(uint256)": {
        "params": {
          "_id": "Id of dweet to be likeDweet"
        }
      },
      "myAdvertisements()": {
        "returns": {
          "list": "Array of advertisement ids"
        }
      },
      "myReportings()": {
        "params": {
          "list": "Array of dweet Ids reported by user"
        }
      },
      "registerUser(string,string,string,string,string)": {
        "params": {
          "_bio": "Biography of user",
          "_coverHash": "Ipfs Hash of user cover Image",
          "_imgHash": "Ipfs Hash of users Profile Image",
          "_name": "name of person",
          "_username": "username of username"
        }
      },
      "reportDweet(uint256)": {
        "params": {
          "_dweetId": "Id of the dweet to be reported"
        }
      },
      "reportingClaimStatus(uint256)": {
        "params": {
          "_id": "Id of dweetsReportedList"
        },
        "returns": {
          "status": "status of claim reported or claimed"
        }
      },
      "revokeMaintainer(address)": {
        "params": {
          "_user": "Address of user to be removed from maintainer  "
        }
      },
      "submitAdvertisement(string,string)": {
        "params": {
          "_imgHash": "Ipfs hash of image to be shown as advertisement",
          "_link": "Href link for the advertisement"
        }
      },
      "takeAction(uint256,bool)": {
        "params": {
          "_action": "ban or free, true or false",
          "_dweetId": "Id of dweets"
        }
      },
      "transferContractBalance(uint256)": {
        "params": {
          "_amount": "Amount to be withdrawn"
        }
      },
      "userStatus()": {
        "returns": {
          "status": "NP, Active, Banned or Deleted"
        }
      },
      "usernameAvailable(string)": {
        "params": {
          "_username": "username to Check"
        },
        "returns": {
          "status": "true or false"
        }
      }
    },
    "title": "A Decentralised Social Media Platform",
    "version": 1
  },
  "userdoc": {
    "kind": "user",
    "methods": {
      "addMaintainer(address)": {
        "notice": "Add a maintainer to the platform"
      },
      "advertisementApproval(uint256,bool)": {
        "notice": "Approve or reject advertisements"
      },
      "changeUsername(string)": {
        "notice": "Change username of a user"
      },
      "claimReportingReward(uint256)": {
        "notice": "Claim right reporting reward"
      },
      "claimSuitReward()": {
        "notice": "Claim fake reporting reward(suit)"
      },
      "createComment(uint256,string)": {
        "notice": "Create a comment on dweet"
      },
      "createDweet(string,string,string)": {
        "notice": "Create a new dweet"
      },
      "deleteComment(uint256)": {
        "notice": "Delete a comment"
      },
      "deleteDweet(uint256)": {
        "notice": "Delete a dweet"
      },
      "editComment(uint256,string)": {
        "notice": "Get list of dweets done by a user"
      },
      "editDweet(uint256,string,string,string)": {
        "notice": "Edit a dweet "
      },
      "fakeReportingSuitReward()": {
        "notice": "To get fake reporting reward balance"
      },
      "getAd(uint256)": {
        "notice": "Get details of a advertisement"
      },
      "getAds()": {
        "notice": "Get all ads submitted on platform"
      },
      "getAdvertisementStatus(uint256)": {
        "notice": "Status of a advertisement"
      },
      "getBalance()": {
        "notice": "Get balance of contract "
      },
      "getComment(uint256)": {
        "notice": "Get a comment"
      },
      "getDweet(uint256)": {
        "notice": "Get a Dweet"
      },
      "getDweetComments(uint256)": {
        "notice": "Get comments on a dweet"
      },
      "getReportedDweetStatus(uint256)": {
        "notice": "Get action status of reporting on a dweet"
      },
      "getReportedDweets()": {
        "notice": "To get list of reported dweets on the platform"
      },
      "getUser()": {
        "notice": "Get user details"
      },
      "getUser(address)": {
        "notice": "Get user details"
      },
      "getUserComments()": {
        "notice": "Get comments done by user"
      },
      "getUserComments(address)": {
        "notice": "Get comments done by user"
      },
      "getUserDweets()": {
        "notice": "Get list of dweets done by a user"
      },
      "getUserDweets(address)": {
        "notice": "Get list of dweets done by a user"
      },
      "likeDweet(uint256)": {
        "notice": "Like a dweets"
      },
      "myAdvertisements()": {
        "notice": "Get advertisement done by user"
      },
      "myReportings()": {
        "notice": "To get list of reportings done by a user"
      },
      "registerUser(string,string,string,string,string)": {
        "notice": "Register a new user"
      },
      "reportDweet(uint256)": {
        "notice": "Report a dweet"
      },
      "reportingClaimStatus(uint256)": {
        "notice": "To get claim status of reporting"
      },
      "revokeMaintainer(address)": {
        "notice": "Remove a maintainer "
      },
      "submitAdvertisement(string,string)": {
        "notice": "Submit a new advertisement"
      },
      "takeAction(uint256,bool)": {
        "notice": "Take action on a reported dweets"
      },
      "transferContractBalance(uint256)": {
        "notice": "Withdraw contract funds to owner"
      },
      "userStatus()": {
        "notice": "Check accountStatus of user-Registered, Banned or Deleted"
      },
      "usernameAvailable(string)": {
        "notice": "Check username available or not"
      }
    },
    "notice": "You can use this contract to connect to decentralised social network, share your content to the world in a decentralised way!",
    "version": 1
  }
}